{
  "contractName": "EnsSubdomainFactory",
  "abi": [
    {
      "inputs": [
        {
          "internalType": "contract EnsRegistry",
          "name": "_registry",
          "type": "address"
        },
        {
          "internalType": "contract EnsResolver",
          "name": "_resolver",
          "type": "address"
        }
      ],
      "payable": false,
      "stateMutability": "nonpayable",
      "type": "constructor"
    },
    {
      "anonymous": false,
      "inputs": [],
      "name": "DomainTransfersLocked",
      "type": "event"
    },
    {
      "anonymous": false,
      "inputs": [
        {
          "indexed": true,
          "internalType": "address",
          "name": "previousOwner",
          "type": "address"
        },
        {
          "indexed": true,
          "internalType": "address",
          "name": "newOwner",
          "type": "address"
        }
      ],
      "name": "OwnershipTransferred",
      "type": "event"
    },
    {
      "anonymous": false,
      "inputs": [
        {
          "indexed": true,
          "internalType": "address",
          "name": "previousRegistry",
          "type": "address"
        },
        {
          "indexed": true,
          "internalType": "address",
          "name": "newRegistry",
          "type": "address"
        }
      ],
      "name": "RegistryUpdated",
      "type": "event"
    },
    {
      "anonymous": false,
      "inputs": [
        {
          "indexed": true,
          "internalType": "address",
          "name": "previousResolver",
          "type": "address"
        },
        {
          "indexed": true,
          "internalType": "address",
          "name": "newResolver",
          "type": "address"
        }
      ],
      "name": "ResolverUpdated",
      "type": "event"
    },
    {
      "anonymous": false,
      "inputs": [
        {
          "indexed": true,
          "internalType": "address",
          "name": "creator",
          "type": "address"
        },
        {
          "indexed": true,
          "internalType": "address",
          "name": "owner",
          "type": "address"
        },
        {
          "indexed": false,
          "internalType": "string",
          "name": "subdomain",
          "type": "string"
        },
        {
          "indexed": false,
          "internalType": "string",
          "name": "domain",
          "type": "string"
        },
        {
          "indexed": false,
          "internalType": "string",
          "name": "topdomain",
          "type": "string"
        }
      ],
      "name": "SubdomainCreated",
      "type": "event"
    },
    {
      "constant": true,
      "inputs": [],
      "name": "locked",
      "outputs": [
        {
          "internalType": "bool",
          "name": "",
          "type": "bool"
        }
      ],
      "payable": false,
      "stateMutability": "view",
      "type": "function"
    },
    {
      "constant": true,
      "inputs": [],
      "name": "owner",
      "outputs": [
        {
          "internalType": "address",
          "name": "",
          "type": "address"
        }
      ],
      "payable": false,
      "stateMutability": "view",
      "type": "function"
    },
    {
      "constant": true,
      "inputs": [],
      "name": "registry",
      "outputs": [
        {
          "internalType": "contract EnsRegistry",
          "name": "",
          "type": "address"
        }
      ],
      "payable": false,
      "stateMutability": "view",
      "type": "function"
    },
    {
      "constant": true,
      "inputs": [],
      "name": "resolver",
      "outputs": [
        {
          "internalType": "contract EnsResolver",
          "name": "",
          "type": "address"
        }
      ],
      "payable": false,
      "stateMutability": "view",
      "type": "function"
    },
    {
      "constant": false,
      "inputs": [
        {
          "internalType": "string",
          "name": "_subdomain",
          "type": "string"
        },
        {
          "internalType": "string",
          "name": "_domain",
          "type": "string"
        },
        {
          "internalType": "string",
          "name": "_topdomain",
          "type": "string"
        },
        {
          "internalType": "address",
          "name": "_owner",
          "type": "address"
        },
        {
          "internalType": "address",
          "name": "_target",
          "type": "address"
        }
      ],
      "name": "newSubdomain",
      "outputs": [],
      "payable": false,
      "stateMutability": "nonpayable",
      "type": "function"
    },
    {
      "constant": true,
      "inputs": [
        {
          "internalType": "string",
          "name": "_domain",
          "type": "string"
        },
        {
          "internalType": "string",
          "name": "_topdomain",
          "type": "string"
        }
      ],
      "name": "domainOwner",
      "outputs": [
        {
          "internalType": "address",
          "name": "",
          "type": "address"
        }
      ],
      "payable": false,
      "stateMutability": "view",
      "type": "function"
    },
    {
      "constant": true,
      "inputs": [
        {
          "internalType": "string",
          "name": "_subdomain",
          "type": "string"
        },
        {
          "internalType": "string",
          "name": "_domain",
          "type": "string"
        },
        {
          "internalType": "string",
          "name": "_topdomain",
          "type": "string"
        }
      ],
      "name": "subdomainOwner",
      "outputs": [
        {
          "internalType": "address",
          "name": "",
          "type": "address"
        }
      ],
      "payable": false,
      "stateMutability": "view",
      "type": "function"
    },
    {
      "constant": true,
      "inputs": [
        {
          "internalType": "string",
          "name": "_subdomain",
          "type": "string"
        },
        {
          "internalType": "string",
          "name": "_domain",
          "type": "string"
        },
        {
          "internalType": "string",
          "name": "_topdomain",
          "type": "string"
        }
      ],
      "name": "subdomainTarget",
      "outputs": [
        {
          "internalType": "address",
          "name": "",
          "type": "address"
        }
      ],
      "payable": false,
      "stateMutability": "view",
      "type": "function"
    },
    {
      "constant": false,
      "inputs": [
        {
          "internalType": "bytes32",
          "name": "_node",
          "type": "bytes32"
        },
        {
          "internalType": "address",
          "name": "_owner",
          "type": "address"
        }
      ],
      "name": "transferDomainOwnership",
      "outputs": [],
      "payable": false,
      "stateMutability": "nonpayable",
      "type": "function"
    },
    {
      "constant": false,
      "inputs": [],
      "name": "lockDomainOwnershipTransfers",
      "outputs": [],
      "payable": false,
      "stateMutability": "nonpayable",
      "type": "function"
    },
    {
      "constant": false,
      "inputs": [
        {
          "internalType": "contract EnsRegistry",
          "name": "_registry",
          "type": "address"
        }
      ],
      "name": "updateRegistry",
      "outputs": [],
      "payable": false,
      "stateMutability": "nonpayable",
      "type": "function"
    },
    {
      "constant": false,
      "inputs": [
        {
          "internalType": "contract EnsResolver",
          "name": "_resolver",
          "type": "address"
        }
      ],
      "name": "updateResolver",
      "outputs": [],
      "payable": false,
      "stateMutability": "nonpayable",
      "type": "function"
    },
    {
      "constant": false,
      "inputs": [
        {
          "internalType": "address",
          "name": "_owner",
          "type": "address"
        }
      ],
      "name": "transferContractOwnership",
      "outputs": [],
      "payable": false,
      "stateMutability": "nonpayable",
      "type": "function"
    }
  ],
  "bytecode": "0x60806040526000801b60035534801561001757600080fd5b5060405161299c38038061299c8339818101604052604081101561003a57600080fd5b810190808051906020019092919080519060200190929190505050336000806101000a81548173ffffffffffffffffffffffffffffffffffffffff021916908373ffffffffffffffffffffffffffffffffffffffff16021790555081600160006101000a81548173ffffffffffffffffffffffffffffffffffffffff021916908373ffffffffffffffffffffffffffffffffffffffff16021790555080600260006101000a81548173ffffffffffffffffffffffffffffffffffffffff021916908373ffffffffffffffffffffffffffffffffffffffff1602179055506000600260146101000a81548160ff0219169083151502179055505050612859806101436000396000f3fe608060405234801561001057600080fd5b50600436106100cf5760003560e01c80637b1039991161008c578063a843c51f11610066578063a843c51f14610832578063beea7bfb14610876578063cf30901214610a9f578063e6fe39ed14610ac1576100cf565b80637b103999146107945780637dd45999146107de5780638da5cb5b146107e8576100cf565b806304f3bcec146100d45780630ab4c0651461011e5780631a5da6c8146103475780631dc9a3b91461038b57806357014fee146103d9578063661676631461056b575b600080fd5b6100dc610b05565b604051808273ffffffffffffffffffffffffffffffffffffffff1673ffffffffffffffffffffffffffffffffffffffff16815260200191505060405180910390f35b6103056004803603606081101561013457600080fd5b810190808035906020019064010000000081111561015157600080fd5b82018360208201111561016357600080fd5b8035906020019184600183028401116401000000008311171561018557600080fd5b91908080601f016020809104026020016040519081016040528093929190818152602001838380828437600081840152601f19601f820116905080830192505050505050509192919290803590602001906401000000008111156101e857600080fd5b8201836020820111156101fa57600080fd5b8035906020019184600183028401116401000000008311171561021c57600080fd5b91908080601f016020809104026020016040519081016040528093929190818152602001838380828437600081840152601f19601f8201169050808301925050505050505091929192908035906020019064010000000081111561027f57600080fd5b82018360208201111561029157600080fd5b803590602001918460018302840111640100000000831117156102b357600080fd5b91908080601f016020809104026020016040519081016040528093929190818152602001838380828437600081840152601f19601f820116905080830192505050505050509192919290505050610b2b565b604051808273ffffffffffffffffffffffffffffffffffffffff1673ffffffffffffffffffffffffffffffffffffffff16815260200191505060405180910390f35b6103896004803603602081101561035d57600080fd5b81019080803573ffffffffffffffffffffffffffffffffffffffff169060200190929190505050610dd4565b005b6103d7600480360360408110156103a157600080fd5b8101908080359060200190929190803573ffffffffffffffffffffffffffffffffffffffff169060200190929190505050610ffd565b005b610529600480360360408110156103ef57600080fd5b810190808035906020019064010000000081111561040c57600080fd5b82018360208201111561041e57600080fd5b8035906020019184600183028401116401000000008311171561044057600080fd5b91908080601f016020809104026020016040519081016040528093929190818152602001838380828437600081840152601f19601f820116905080830192505050505050509192919290803590602001906401000000008111156104a357600080fd5b8201836020820111156104b557600080fd5b803590602001918460018302840111640100000000831117156104d757600080fd5b91908080601f016020809104026020016040519081016040528093929190818152602001838380828437600081840152601f19601f820116905080830192505050505050509192919290505050611207565b604051808273ffffffffffffffffffffffffffffffffffffffff1673ffffffffffffffffffffffffffffffffffffffff16815260200191505060405180910390f35b6107526004803603606081101561058157600080fd5b810190808035906020019064010000000081111561059e57600080fd5b8201836020820111156105b057600080fd5b803590602001918460018302840111640100000000831117156105d257600080fd5b91908080601f016020809104026020016040519081016040528093929190818152602001838380828437600081840152601f19601f8201169050808301925050505050505091929192908035906020019064010000000081111561063557600080fd5b82018360208201111561064757600080fd5b8035906020019184600183028401116401000000008311171561066957600080fd5b91908080601f016020809104026020016040519081016040528093929190818152602001838380828437600081840152601f19601f820116905080830192505050505050509192919290803590602001906401000000008111156106cc57600080fd5b8201836020820111156106de57600080fd5b8035906020019184600183028401116401000000008311171561070057600080fd5b91908080601f016020809104026020016040519081016040528093929190818152602001838380828437600081840152601f19601f82011690508083019250505050505050919291929050505061140a565b604051808273ffffffffffffffffffffffffffffffffffffffff1673ffffffffffffffffffffffffffffffffffffffff16815260200191505060405180910390f35b61079c611744565b604051808273ffffffffffffffffffffffffffffffffffffffff1673ffffffffffffffffffffffffffffffffffffffff16815260200191505060405180910390f35b6107e661176a565b005b6107f06118f8565b604051808273ffffffffffffffffffffffffffffffffffffffff1673ffffffffffffffffffffffffffffffffffffffff16815260200191505060405180910390f35b6108746004803603602081101561084857600080fd5b81019080803573ffffffffffffffffffffffffffffffffffffffff16906020019092919050505061191d565b005b610a9d600480360360a081101561088c57600080fd5b81019080803590602001906401000000008111156108a957600080fd5b8201836020820111156108bb57600080fd5b803590602001918460018302840111640100000000831117156108dd57600080fd5b91908080601f016020809104026020016040519081016040528093929190818152602001838380828437600081840152601f19601f8201169050808301925050505050505091929192908035906020019064010000000081111561094057600080fd5b82018360208201111561095257600080fd5b8035906020019184600183028401116401000000008311171561097457600080fd5b91908080601f016020809104026020016040519081016040528093929190818152602001838380828437600081840152601f19601f820116905080830192505050505050509192919290803590602001906401000000008111156109d757600080fd5b8201836020820111156109e957600080fd5b80359060200191846001830284011164010000000083111715610a0b57600080fd5b91908080601f016020809104026020016040519081016040528093929190818152602001838380828437600081840152601f19601f820116905080830192505050505050509192919290803573ffffffffffffffffffffffffffffffffffffffff169060200190929190803573ffffffffffffffffffffffffffffffffffffffff169060200190929190505050611b40565b005b610aa7612573565b604051808215151515815260200191505060405180910390f35b610b0360048036036020811015610ad757600080fd5b81019080803573ffffffffffffffffffffffffffffffffffffffff169060200190929190505050612586565b005b600260009054906101000a900473ffffffffffffffffffffffffffffffffffffffff1681565b600080600354836040516020018082805190602001908083835b60208310610b685780518252602082019150602081019050602083039250610b45565b6001836020036101000a038019825116818451168082178552505050505050905001915050604051602081830303815290604052805190602001206040516020018083815260200182815260200192505050604051602081830303815290604052805190602001209050600081856040516020018082805190602001908083835b60208310610c0c5780518252602082019150602081019050602083039250610be9565b6001836020036101000a038019825116818451168082178552505050505050905001915050604051602081830303815290604052805190602001206040516020018083815260200182815260200192505050604051602081830303815290604052805190602001209050600081876040516020018082805190602001908083835b60208310610cb05780518252602082019150602081019050602083039250610c8d565b6001836020036101000a038019825116818451168082178552505050505050905001915050604051602081830303815290604052805190602001206040516020018083815260200182815260200192505050604051602081830303815290604052805190602001209050600160009054906101000a900473ffffffffffffffffffffffffffffffffffffffff1673ffffffffffffffffffffffffffffffffffffffff166302571be3826040518263ffffffff1660e01b81526004018082815260200191505060206040518083038186803b158015610d8d57600080fd5b505afa158015610da1573d6000803e3d6000fd5b505050506040513d6020811015610db757600080fd5b810190808051906020019092919050505093505050509392505050565b6000809054906101000a900473ffffffffffffffffffffffffffffffffffffffff1673ffffffffffffffffffffffffffffffffffffffff163373ffffffffffffffffffffffffffffffffffffffff1614610e96576040517f08c379a000000000000000000000000000000000000000000000000000000000815260040180806020018281038252600d8152602001807f6e6f7420746865206f776e65720000000000000000000000000000000000000081525060200191505060405180910390fd5b8073ffffffffffffffffffffffffffffffffffffffff16600160009054906101000a900473ffffffffffffffffffffffffffffffffffffffff1673ffffffffffffffffffffffffffffffffffffffff161415610f3d576040517f08c379a00000000000000000000000000000000000000000000000000000000081526004018080602001828103825260298152602001806127fc6029913960400191505060405180910390fd5b8073ffffffffffffffffffffffffffffffffffffffff16600160009054906101000a900473ffffffffffffffffffffffffffffffffffffffff1673ffffffffffffffffffffffffffffffffffffffff167f482b97c53e48ffa324a976e2738053e9aff6eee04d8aac63b10e19411d869b8260405160405180910390a380600160006101000a81548173ffffffffffffffffffffffffffffffffffffffff021916908373ffffffffffffffffffffffffffffffffffffffff16021790555050565b6000809054906101000a900473ffffffffffffffffffffffffffffffffffffffff1673ffffffffffffffffffffffffffffffffffffffff163373ffffffffffffffffffffffffffffffffffffffff16146110bf576040517f08c379a000000000000000000000000000000000000000000000000000000000815260040180806020018281038252600d8152602001807f6e6f7420746865206f776e65720000000000000000000000000000000000000081525060200191505060405180910390fd5b600260149054906101000a900460ff1615611142576040517f08c379a00000000000000000000000000000000000000000000000000000000081526004018080602001828103825260108152602001807f646f6d61696e206973206c6f636b65640000000000000000000000000000000081525060200191505060405180910390fd5b600160009054906101000a900473ffffffffffffffffffffffffffffffffffffffff1673ffffffffffffffffffffffffffffffffffffffff16635b0fc9c383836040518363ffffffff1660e01b8152600401808381526020018273ffffffffffffffffffffffffffffffffffffffff1673ffffffffffffffffffffffffffffffffffffffff16815260200192505050600060405180830381600087803b1580156111eb57600080fd5b505af11580156111ff573d6000803e3d6000fd5b505050505050565b600080600354836040516020018082805190602001908083835b602083106112445780518252602082019150602081019050602083039250611221565b6001836020036101000a038019825116818451168082178552505050505050905001915050604051602081830303815290604052805190602001206040516020018083815260200182815260200192505050604051602081830303815290604052805190602001209050600081856040516020018082805190602001908083835b602083106112e857805182526020820191506020810190506020830392506112c5565b6001836020036101000a038019825116818451168082178552505050505050905001915050604051602081830303815290604052805190602001206040516020018083815260200182815260200192505050604051602081830303815290604052805190602001209050600160009054906101000a900473ffffffffffffffffffffffffffffffffffffffff1673ffffffffffffffffffffffffffffffffffffffff166302571be3826040518263ffffffff1660e01b81526004018082815260200191505060206040518083038186803b1580156113c557600080fd5b505afa1580156113d9573d6000803e3d6000fd5b505050506040513d60208110156113ef57600080fd5b81019080805190602001909291905050509250505092915050565b600080600354836040516020018082805190602001908083835b602083106114475780518252602082019150602081019050602083039250611424565b6001836020036101000a038019825116818451168082178552505050505050905001915050604051602081830303815290604052805190602001206040516020018083815260200182815260200192505050604051602081830303815290604052805190602001209050600081856040516020018082805190602001908083835b602083106114eb57805182526020820191506020810190506020830392506114c8565b6001836020036101000a038019825116818451168082178552505050505050905001915050604051602081830303815290604052805190602001206040516020018083815260200182815260200192505050604051602081830303815290604052805190602001209050600081876040516020018082805190602001908083835b6020831061158f578051825260208201915060208101905060208303925061156c565b6001836020036101000a0380198251168184511680821785525050505050509050019150506040516020818303038152906040528051906020012060405160200180838152602001828152602001925050506040516020818303038152906040528051906020012090506000600160009054906101000a900473ffffffffffffffffffffffffffffffffffffffff1673ffffffffffffffffffffffffffffffffffffffff16630178b8bf836040518263ffffffff1660e01b81526004018082815260200191505060206040518083038186803b15801561166e57600080fd5b505afa158015611682573d6000803e3d6000fd5b505050506040513d602081101561169857600080fd5b810190808051906020019092919050505090508073ffffffffffffffffffffffffffffffffffffffff16633b3b57de836040518263ffffffff1660e01b81526004018082815260200191505060206040518083038186803b1580156116fc57600080fd5b505afa158015611710573d6000803e3d6000fd5b505050506040513d602081101561172657600080fd5b81019080805190602001909291905050509450505050509392505050565b600160009054906101000a900473ffffffffffffffffffffffffffffffffffffffff1681565b6000809054906101000a900473ffffffffffffffffffffffffffffffffffffffff1673ffffffffffffffffffffffffffffffffffffffff163373ffffffffffffffffffffffffffffffffffffffff161461182c576040517f08c379a000000000000000000000000000000000000000000000000000000000815260040180806020018281038252600d8152602001807f6e6f7420746865206f776e65720000000000000000000000000000000000000081525060200191505060405180910390fd5b600260149054906101000a900460ff16156118af576040517f08c379a00000000000000000000000000000000000000000000000000000000081526004018080602001828103825260108152602001807f646f6d61696e206973206c6f636b65640000000000000000000000000000000081525060200191505060405180910390fd5b6001600260146101000a81548160ff0219169083151502179055507fd68bbea4b8d77ea0826a260170e3b50080b57c9ed7420ef5920b1a58e613e17960405160405180910390a1565b6000809054906101000a900473ffffffffffffffffffffffffffffffffffffffff1681565b6000809054906101000a900473ffffffffffffffffffffffffffffffffffffffff1673ffffffffffffffffffffffffffffffffffffffff163373ffffffffffffffffffffffffffffffffffffffff16146119df576040517f08c379a000000000000000000000000000000000000000000000000000000000815260040180806020018281038252600d8152602001807f6e6f7420746865206f776e65720000000000000000000000000000000000000081525060200191505060405180910390fd5b600073ffffffffffffffffffffffffffffffffffffffff168173ffffffffffffffffffffffffffffffffffffffff161415611a82576040517f08c379a000000000000000000000000000000000000000000000000000000000815260040180806020018281038252601d8152602001807f63616e6e6f74207472616e7366657220746f206164647265737328302900000081525060200191505060405180910390fd5b8073ffffffffffffffffffffffffffffffffffffffff166000809054906101000a900473ffffffffffffffffffffffffffffffffffffffff1673ffffffffffffffffffffffffffffffffffffffff167f8be0079c531659141344cd1fd0a4f28419497f9722a3daafe3b4186f6b6457e060405160405180910390a3806000806101000a81548173ffffffffffffffffffffffffffffffffffffffff021916908373ffffffffffffffffffffffffffffffffffffffff16021790555050565b6000600354846040516020018082805190602001908083835b60208310611b7c5780518252602082019150602081019050602083039250611b59565b6001836020036101000a038019825116818451168082178552505050505050905001915050604051602081830303815290604052805190602001206040516020018083815260200182815260200192505050604051602081830303815290604052805190602001209050600081866040516020018082805190602001908083835b60208310611c205780518252602082019150602081019050602083039250611bfd565b6001836020036101000a0380198251168184511680821785525050505050509050019150506040516020818303038152906040528051906020012060405160200180838152602001828152602001925050506040516020818303038152906040528051906020012090503073ffffffffffffffffffffffffffffffffffffffff16600160009054906101000a900473ffffffffffffffffffffffffffffffffffffffff1673ffffffffffffffffffffffffffffffffffffffff166302571be3836040518263ffffffff1660e01b81526004018082815260200191505060206040518083038186803b158015611d1457600080fd5b505afa158015611d28573d6000803e3d6000fd5b505050506040513d6020811015611d3e57600080fd5b810190808051906020019092919050505073ffffffffffffffffffffffffffffffffffffffff1614611dbb576040517f08c379a00000000000000000000000000000000000000000000000000000000081526004018080602001828103825260238152602001806127d96023913960400191505060405180910390fd5b6000876040516020018082805190602001908083835b60208310611df45780518252602082019150602081019050602083039250611dd1565b6001836020036101000a038019825116818451168082178552505050505050905001915050604051602081830303815290604052805190602001209050600082826040516020018083815260200182815260200192505050604051602081830303815290604052805190602001209050600073ffffffffffffffffffffffffffffffffffffffff16600160009054906101000a900473ffffffffffffffffffffffffffffffffffffffff1673ffffffffffffffffffffffffffffffffffffffff166302571be3836040518263ffffffff1660e01b81526004018082815260200191505060206040518083038186803b158015611eef57600080fd5b505afa158015611f03573d6000803e3d6000fd5b505050506040513d6020811015611f1957600080fd5b810190808051906020019092919050505073ffffffffffffffffffffffffffffffffffffffff16148061202457503373ffffffffffffffffffffffffffffffffffffffff16600160009054906101000a900473ffffffffffffffffffffffffffffffffffffffff1673ffffffffffffffffffffffffffffffffffffffff166302571be3836040518263ffffffff1660e01b81526004018082815260200191505060206040518083038186803b158015611fd157600080fd5b505afa158015611fe5573d6000803e3d6000fd5b505050506040513d6020811015611ffb57600080fd5b810190808051906020019092919050505073ffffffffffffffffffffffffffffffffffffffff16145b612096576040517f08c379a00000000000000000000000000000000000000000000000000000000081526004018080602001828103825260188152602001807f73756220646f6d61696e20616c7265616479206f776e6564000000000000000081525060200191505060405180910390fd5b600160009054906101000a900473ffffffffffffffffffffffffffffffffffffffff1673ffffffffffffffffffffffffffffffffffffffff166306ab59238484306040518463ffffffff1660e01b8152600401808481526020018381526020018273ffffffffffffffffffffffffffffffffffffffff1673ffffffffffffffffffffffffffffffffffffffff1681526020019350505050600060405180830381600087803b15801561214757600080fd5b505af115801561215b573d6000803e3d6000fd5b50505050600160009054906101000a900473ffffffffffffffffffffffffffffffffffffffff1673ffffffffffffffffffffffffffffffffffffffff16631896f70a82600260009054906101000a900473ffffffffffffffffffffffffffffffffffffffff166040518363ffffffff1660e01b8152600401808381526020018273ffffffffffffffffffffffffffffffffffffffff1673ffffffffffffffffffffffffffffffffffffffff16815260200192505050600060405180830381600087803b15801561222a57600080fd5b505af115801561223e573d6000803e3d6000fd5b50505050600260009054906101000a900473ffffffffffffffffffffffffffffffffffffffff1673ffffffffffffffffffffffffffffffffffffffff1663d5fa2b0082876040518363ffffffff1660e01b8152600401808381526020018273ffffffffffffffffffffffffffffffffffffffff1673ffffffffffffffffffffffffffffffffffffffff16815260200192505050600060405180830381600087803b1580156122eb57600080fd5b505af11580156122ff573d6000803e3d6000fd5b50505050600160009054906101000a900473ffffffffffffffffffffffffffffffffffffffff1673ffffffffffffffffffffffffffffffffffffffff16635b0fc9c382886040518363ffffffff1660e01b8152600401808381526020018273ffffffffffffffffffffffffffffffffffffffff1673ffffffffffffffffffffffffffffffffffffffff16815260200192505050600060405180830381600087803b1580156123ac57600080fd5b505af11580156123c0573d6000803e3d6000fd5b505050508573ffffffffffffffffffffffffffffffffffffffff163373ffffffffffffffffffffffffffffffffffffffff167fbe172d0b7345b08856a54d791662df9f820be68a2a278f0ef50955f491eacde98b8b8b60405180806020018060200180602001848103845287818151815260200191508051906020019080838360005b8381101561245e578082015181840152602081019050612443565b50505050905090810190601f16801561248b5780820380516001836020036101000a031916815260200191505b50848103835286818151815260200191508051906020019080838360005b838110156124c45780820151818401526020810190506124a9565b50505050905090810190601f1680156124f15780820380516001836020036101000a031916815260200191505b50848103825285818151815260200191508051906020019080838360005b8381101561252a57808201518184015260208101905061250f565b50505050905090810190601f1680156125575780820380516001836020036101000a031916815260200191505b50965050505050505060405180910390a3505050505050505050565b600260149054906101000a900460ff1681565b6000809054906101000a900473ffffffffffffffffffffffffffffffffffffffff1673ffffffffffffffffffffffffffffffffffffffff163373ffffffffffffffffffffffffffffffffffffffff1614612648576040517f08c379a000000000000000000000000000000000000000000000000000000000815260040180806020018281038252600d8152602001807f6e6f7420746865206f776e65720000000000000000000000000000000000000081525060200191505060405180910390fd5b8073ffffffffffffffffffffffffffffffffffffffff16600260009054906101000a900473ffffffffffffffffffffffffffffffffffffffff1673ffffffffffffffffffffffffffffffffffffffff1614156126ef576040517f08c379a00000000000000000000000000000000000000000000000000000000081526004018080602001828103825260298152602001806127b06029913960400191505060405180910390fd5b8073ffffffffffffffffffffffffffffffffffffffff16600260009054906101000a900473ffffffffffffffffffffffffffffffffffffffff1673ffffffffffffffffffffffffffffffffffffffff167f84b83d2b66cac119ccaaca68b476b0dc5371d5f2fd27f697770a910175fd38b660405160405180910390a380600260006101000a81548173ffffffffffffffffffffffffffffffffffffffff021916908373ffffffffffffffffffffffffffffffffffffffff1602179055505056fe6e6577207265736f6c7665722073686f756c6420626520646966666572656e742066726f6d206f6c647468697320636f6e74726163742073686f756c64206f776e2074686520646f6d61696e6e65772072656769737472792073686f756c6420626520646966666572656e742066726f6d206f6c64a265627a7a72315820f8ab7d7d15d94db63382d98bc6f3c448fe5cdcbd81cb4286787e76bbbab19b9864736f6c634300050c0032",
  "source": "pragma solidity ^0.5.0;\n\nimport './EnsRegistry.sol';\nimport './EnsResolver.sol';\n\n// ---------------------------------------------------------------------------------------------------\n// EnsSubdomainFactory - allows creating and configuring custom ENS subdomains with one contract call.\n//\n// @author Radek Ostrowski / https://startonchain.com - MIT Licence.\n// Source: https://github.com/radek1st/ens-subdomain-factory\n// ---------------------------------------------------------------------------------------------------\n\n/**\n * @title EnsSubdomainFactory\n * @dev Allows to create and configure a subdomain for Ethereum ENS in one call.\n * After deploying this contract, change the owner of the domain you want to use\n * to this deployed contract address. For example, transfer the ownership of \"startonchain.eth\"\n * so anyone can create subdomains like \"radek.startonchain.eth\".\n */\ncontract EnsSubdomainFactory {\n\taddress public owner;\n\tEnsRegistry public registry;\n\tEnsResolver public resolver;\n\tbool public locked;\n  bytes32 emptyNamehash = 0x00;\n\n\tevent SubdomainCreated(address indexed creator, address indexed owner, string subdomain, string domain, string topdomain);\n\tevent OwnershipTransferred(address indexed previousOwner, address indexed newOwner);\n\tevent RegistryUpdated(address indexed previousRegistry, address indexed newRegistry);\n\tevent ResolverUpdated(address indexed previousResolver, address indexed newResolver);\n\tevent DomainTransfersLocked();\n\n\tconstructor(EnsRegistry _registry, EnsResolver _resolver) public {\n\t\towner = msg.sender;\n\t\tregistry = _registry;\n\t\tresolver = _resolver;\n\t\tlocked = false;\n\t}\n\n\t/**\n\t * @dev Throws if called by any account other than the owner.\n\t *\n\t */\n\tmodifier onlyOwner() {\n\t\trequire(msg.sender == owner, \"not the owner\");\n\t\t_;\n\t}\n\n\t/**\n\t * @dev Allows to create a subdomain (e.g. \"radek.startonchain.eth\"),\n\t * set its resolver and set its target address\n\t * @param _subdomain - sub domain name only e.g. \"radek\"\n\t * @param _domain - domain name e.g. \"startonchain\"\n\t * @param _topdomain - parent domain name e.g. \"eth\", \"xyz\"\n\t * @param _owner - address that will become owner of this new subdomain\n\t * @param _target - address that this new domain will resolve to\n\t */\n\tfunction newSubdomain(string memory _subdomain, string memory _domain, string memory _topdomain, address _owner, address _target) public {\n\t\t//create namehash for the topdomain\n\t\tbytes32 topdomainNamehash = keccak256(abi.encodePacked(emptyNamehash, keccak256(abi.encodePacked(_topdomain))));\n\t\t//create namehash for the domain\n\t\tbytes32 domainNamehash = keccak256(abi.encodePacked(topdomainNamehash, keccak256(abi.encodePacked(_domain))));\n\t\t//make sure this contract owns the domain\n\t\trequire(registry.owner(domainNamehash) == address(this), \"this contract should own the domain\");\n\t\t//create labelhash for the sub domain\n\t\tbytes32 subdomainLabelhash = keccak256(abi.encodePacked(_subdomain));\n\t\t//create namehash for the sub domain\n\t\tbytes32 subdomainNamehash = keccak256(abi.encodePacked(domainNamehash, subdomainLabelhash));\n\t\t//make sure it is free or owned by the sender\n\t\trequire(registry.owner(subdomainNamehash) == address(0) ||\n\t\t\tregistry.owner(subdomainNamehash) == msg.sender, \"sub domain already owned\");\n\t\t//create new subdomain, temporarily this smartcontract is the owner\n\t\tregistry.setSubnodeOwner(domainNamehash, subdomainLabelhash, address(this));\n\t\t//set public resolver for this domain\n\t\tregistry.setResolver(subdomainNamehash, address(resolver));\n\t\t//set the destination address\n\t\tresolver.setAddr(subdomainNamehash, _target);\n\t\t//change the ownership back to requested owner\n\t\tregistry.setOwner(subdomainNamehash, _owner);\n\n\t\temit SubdomainCreated(msg.sender, _owner, _subdomain, _domain, _topdomain);\n\t}\n\n\t/**\n\t * @dev Returns the owner of a domain (e.g. \"startonchain.eth\"),\n\t * @param _domain - domain name e.g. \"startonchain\"\n\t * @param _topdomain - parent domain name e.g. \"eth\" or \"xyz\"\n\t */\n\tfunction domainOwner(string memory _domain, string memory _topdomain) public view returns (address) {\n\t\tbytes32 topdomainNamehash = keccak256(abi.encodePacked(emptyNamehash, keccak256(abi.encodePacked(_topdomain))));\n\t\tbytes32 namehash = keccak256(abi.encodePacked(topdomainNamehash, keccak256(abi.encodePacked(_domain))));\n\t\treturn registry.owner(namehash);\n\t}\n\n\t/**\n\t * @dev Return the owner of a subdomain (e.g. \"radek.startonchain.eth\"),\n\t * @param _subdomain - sub domain name only e.g. \"radek\"\n\t * @param _domain - parent domain name e.g. \"startonchain\"\n\t * @param _topdomain - parent domain name e.g. \"eth\", \"xyz\"\n\t */\n\tfunction subdomainOwner(string memory _subdomain, string memory _domain, string memory _topdomain) public view returns (address) {\n\t\tbytes32 topdomainNamehash = keccak256(abi.encodePacked(emptyNamehash, keccak256(abi.encodePacked(_topdomain))));\n\t\tbytes32 domainNamehash = keccak256(abi.encodePacked(topdomainNamehash, keccak256(abi.encodePacked(_domain))));\n\t\tbytes32 subdomainNamehash = keccak256(abi.encodePacked(domainNamehash, keccak256(abi.encodePacked(_subdomain))));\n\t\treturn registry.owner(subdomainNamehash);\n\t}\n\n    /**\n    * @dev Return the target address where the subdomain is pointing to (e.g. \"0x12345...\"),\n    * @param _subdomain - sub domain name only e.g. \"radek\"\n    * @param _domain - parent domain name e.g. \"startonchain\"\n    * @param _topdomain - parent domain name e.g. \"eth\", \"xyz\"\n    */\n    function subdomainTarget(string memory _subdomain, string memory _domain, string memory _topdomain) public view returns (address) {\n        bytes32 topdomainNamehash = keccak256(abi.encodePacked(emptyNamehash, keccak256(abi.encodePacked(_topdomain))));\n        bytes32 domainNamehash = keccak256(abi.encodePacked(topdomainNamehash, keccak256(abi.encodePacked(_domain))));\n        bytes32 subdomainNamehash = keccak256(abi.encodePacked(domainNamehash, keccak256(abi.encodePacked(_subdomain))));\n        address currentResolver = registry.resolver(subdomainNamehash);\n        return EnsResolver(currentResolver).addr(subdomainNamehash);\n    }\n\n\t/**\n\t * @dev The contract owner can take away the ownership of any domain owned by this contract.\n\t * @param _node - namehash of the domain\n\t * @param _owner - new owner for the domain\n\t */\n\tfunction transferDomainOwnership(bytes32 _node, address _owner) public onlyOwner {\n\t\trequire(!locked, \"domain is locked\");\n\t\tregistry.setOwner(_node, _owner);\n\t}\n\n\t/**\n\t * @dev The contract owner can lock and prevent any future domain ownership transfers.\n\t */\n\tfunction lockDomainOwnershipTransfers() public onlyOwner {\n\t\trequire(!locked, \"domain is locked\");\n\t\tlocked = true;\n\t\temit DomainTransfersLocked();\n\t}\n\n\t/**\n\t * @dev Allows to update to new ENS registry.\n\t * @param _registry The address of new ENS registry to use.\n\t */\n\tfunction updateRegistry(EnsRegistry _registry) public onlyOwner {\n\t\trequire(registry != _registry, \"new registry should be different from old\");\n\t\temit RegistryUpdated(address(registry), address(_registry));\n\t\tregistry = _registry;\n\t}\n\n\t/**\n\t * @dev Allows to update to new ENS resolver.\n\t * @param _resolver The address of new ENS resolver to use.\n\t */\n\tfunction updateResolver(EnsResolver _resolver) public onlyOwner {\n\t\trequire(resolver != _resolver, \"new resolver should be different from old\");\n\t\temit ResolverUpdated(address(resolver), address(_resolver));\n\t\tresolver = _resolver;\n\t}\n\n\t/**\n\t * @dev Allows the current owner to transfer control of the contract to a new owner.\n\t * @param _owner The address to transfer ownership to.\n\t */\n\tfunction transferContractOwnership(address _owner) public onlyOwner {\n\t\trequire(_owner != address(0), \"cannot transfer to address(0)\");\n\t\temit OwnershipTransferred(owner, _owner);\n\t\towner = _owner;\n\t}\n}",
  "sourcePath": "/home/vitalpointai/projects/qualification-coin/src/contracts/EnsSubdomainFactory.sol",
  "compiler": {
    "name": "solc",
    "version": "0.5.12+commit.7709ece9.Emscripten.clang"
  },
  "schemaVersion": "3.0.19",
  "updatedAt": "2019-12-29T19:45:06.850Z",
  "devdoc": {
    "details": "Allows to create and configure a subdomain for Ethereum ENS in one call. After deploying this contract, change the owner of the domain you want to use to this deployed contract address. For example, transfer the ownership of \"startonchain.eth\" so anyone can create subdomains like \"radek.startonchain.eth\".",
    "methods": {
      "domainOwner(string,string)": {
        "details": "Returns the owner of a domain (e.g. \"startonchain.eth\"),",
        "params": {
          "_domain": "- domain name e.g. \"startonchain\"",
          "_topdomain": "- parent domain name e.g. \"eth\" or \"xyz\""
        }
      },
      "lockDomainOwnershipTransfers()": {
        "details": "The contract owner can lock and prevent any future domain ownership transfers."
      },
      "newSubdomain(string,string,string,address,address)": {
        "details": "Allows to create a subdomain (e.g. \"radek.startonchain.eth\"), set its resolver and set its target address",
        "params": {
          "_domain": "- domain name e.g. \"startonchain\"",
          "_owner": "- address that will become owner of this new subdomain",
          "_subdomain": "- sub domain name only e.g. \"radek\"",
          "_target": "- address that this new domain will resolve to",
          "_topdomain": "- parent domain name e.g. \"eth\", \"xyz\""
        }
      },
      "subdomainOwner(string,string,string)": {
        "details": "Return the owner of a subdomain (e.g. \"radek.startonchain.eth\"),",
        "params": {
          "_domain": "- parent domain name e.g. \"startonchain\"",
          "_subdomain": "- sub domain name only e.g. \"radek\"",
          "_topdomain": "- parent domain name e.g. \"eth\", \"xyz\""
        }
      },
      "subdomainTarget(string,string,string)": {
        "details": "Return the target address where the subdomain is pointing to (e.g. \"0x12345...\"),",
        "params": {
          "_domain": "- parent domain name e.g. \"startonchain\"",
          "_subdomain": "- sub domain name only e.g. \"radek\"",
          "_topdomain": "- parent domain name e.g. \"eth\", \"xyz\""
        }
      },
      "transferContractOwnership(address)": {
        "details": "Allows the current owner to transfer control of the contract to a new owner.",
        "params": {
          "_owner": "The address to transfer ownership to."
        }
      },
      "transferDomainOwnership(bytes32,address)": {
        "details": "The contract owner can take away the ownership of any domain owned by this contract.",
        "params": {
          "_node": "- namehash of the domain",
          "_owner": "- new owner for the domain"
        }
      },
      "updateRegistry(address)": {
        "details": "Allows to update to new ENS registry.",
        "params": {
          "_registry": "The address of new ENS registry to use."
        }
      },
      "updateResolver(address)": {
        "details": "Allows to update to new ENS resolver.",
        "params": {
          "_resolver": "The address of new ENS resolver to use."
        }
      }
    },
    "title": "EnsSubdomainFactory"
  },
  "userdoc": {
    "methods": {}
  }
}