{
  "contractName": "Metadata",
  "abi": [
    {
      "constant": true,
      "inputs": [
        {
          "internalType": "uint256",
          "name": "_tokenId",
          "type": "uint256"
        }
      ],
      "name": "tokenURI",
      "outputs": [
        {
          "internalType": "string",
          "name": "_infoUrl",
          "type": "string"
        }
      ],
      "payable": false,
      "stateMutability": "pure",
      "type": "function"
    },
    {
      "constant": true,
      "inputs": [
        {
          "internalType": "uint256",
          "name": "x",
          "type": "uint256"
        }
      ],
      "name": "toBytes",
      "outputs": [
        {
          "internalType": "bytes",
          "name": "b",
          "type": "bytes"
        }
      ],
      "payable": false,
      "stateMutability": "pure",
      "type": "function"
    }
  ],
  "bytecode": "0x608060405234801561001057600080fd5b506104ea806100206000396000f3fe608060405234801561001057600080fd5b50600436106100365760003560e01c8063775a8f5e1461003b578063c87b56dd146100e2575b600080fd5b6100676004803603602081101561005157600080fd5b8101908080359060200190929190505050610189565b6040518080602001828103825283818151815260200191508051906020019080838360005b838110156100a757808201518184015260208101905061008c565b50505050905090810190601f1680156100d45780820380516001836020036101000a031916815260200191505b509250505060405180910390f35b61010e600480360360208110156100f857600080fd5b81019080803590602001909291905050506101cd565b6040518080602001828103825283818151815260200191508051906020019080838360005b8381101561014e578082015181840152602081019050610133565b50505050905090810190601f16801561017b5780820380516001836020036101000a031916815260200191505b509250505060405180910390f35b606060206040519080825280601f01601f1916602001820160405280156101bf5781602001600182028038833980820191505090505b509050816020820152919050565b6060806040518060600160405280602f8152602001610487602f9139905060606101f684610224565b905061021b61020482610373565b61020d84610373565b6103a190919063ffffffff16565b92505050919050565b6060600082141561026c576040518060400160405280600181526020017f3000000000000000000000000000000000000000000000000000000000000000815250905061036e565b600082905060005b60008214610296578080600101915050600a828161028e57fe5b049150610274565b6060816040519080825280601f01601f1916602001820160405280156102cb5781602001600182028038833980820191505090505b50905060006001830390505b60008614610366576000600a87816102eb57fe5b0660300190506102fa81610189565b601f8151811061030657fe5b602001015160f81c60f81b8383806001900394508151811061032457fe5b60200101907effffffffffffffffffffffffffffffffffffffffffffffffffffffffffffff1916908160001a905350600a878161035d57fe5b049650506102d7565b819450505050505b919050565b61037b61046c565b600060208301905060405180604001604052808451815260200182815250915050919050565b60608082600001518460000151016040519080825280601f01601f1916602001820160405280156103e15781602001600182028038833980820191505090505b50905060006020820190506103ff8186602001518760000151610423565b6104188560000151820185602001518660000151610423565b819250505092915050565b5b602081106104475781518352602083019250602082019150602081039050610424565b60006001826020036101000a0390508019835116818551168181178652505050505050565b60405180604001604052806000815260200160008152509056fe68747470733a2f2f7175616c696669636174696f6e636f696e2e6e65746c6966792e636f6d2f6d657461646174612fa265627a7a7231582012219a0a1e98b5dedf2e19d679cce2d8db8059fdafc978ad83c9811bedc8e66164736f6c634300050c0032",
  "source": "pragma solidity ^0.5.0;\n\nimport \"./helpers/strings.sol\";\n\ncontract Metadata {\n    using strings for *;\n\n    function tokenURI(uint _tokenId) public pure returns (string memory _infoUrl) {\n    string memory base = \"https://qualificationcoin.netlify.com/metadata/\";\n    string memory id = uint2str(_tokenId);\n    return base.toSlice().concat(id.toSlice());\n    }\n\n    function uint2str(uint i) internal pure returns (string memory) {\n    if (i == 0) return \"0\";\n    uint j = i;\n    uint length;\n    while (j != 0) {\n        length++;\n        j /= 10;\n    }\n\n    bytes memory bstr = new bytes(length);\n    uint k = length - 1;\n    while (i != 0) {\n        uint _uint = 48 + i % 10;\n        bstr[k--] = toBytes(_uint)[31];\n        i /= 10;\n    }\n    return string(bstr);\n    }\n\n    function toBytes(uint256 x) public pure returns (bytes memory b) {\n        b = new bytes(32);\n        assembly { mstore(add(b, 32), x) }\n    }\n}",
  "sourcePath": "/home/vitalpointai/projects/qualification-coin/src/contracts/Metadata.sol",
  "compiler": {
    "name": "solc",
    "version": "0.5.12+commit.7709ece9.Emscripten.clang"
  },
  "schemaVersion": "3.0.19",
  "updatedAt": "2019-12-24T18:31:44.957Z",
  "networkType": "ethereum",
  "devdoc": {
    "methods": {}
  },
  "userdoc": {
    "methods": {}
  }
}