{
  "contractName": "QualificationHelper",
  "abi": [
    {
      "anonymous": false,
      "inputs": [
        {
          "indexed": false,
          "internalType": "address",
          "name": "soldierAddress",
          "type": "address"
        }
      ],
      "name": "JumpMasterAuthorized",
      "type": "event"
    },
    {
      "anonymous": false,
      "inputs": [
        {
          "indexed": false,
          "internalType": "uint256",
          "name": "qualificationId",
          "type": "uint256"
        },
        {
          "indexed": false,
          "internalType": "string",
          "name": "qualificationName",
          "type": "string"
        },
        {
          "indexed": false,
          "internalType": "string",
          "name": "qualificationCode",
          "type": "string"
        },
        {
          "indexed": false,
          "internalType": "address",
          "name": "trgEstablishment",
          "type": "address"
        },
        {
          "indexed": false,
          "internalType": "bool",
          "name": "qualStatus",
          "type": "bool"
        }
      ],
      "name": "NewQualificationCreated",
      "type": "event"
    },
    {
      "anonymous": false,
      "inputs": [
        {
          "indexed": true,
          "internalType": "address",
          "name": "previousOwner",
          "type": "address"
        },
        {
          "indexed": true,
          "internalType": "address",
          "name": "newOwner",
          "type": "address"
        }
      ],
      "name": "OwnershipTransferred",
      "type": "event"
    },
    {
      "anonymous": false,
      "inputs": [
        {
          "indexed": false,
          "internalType": "address",
          "name": "soldierAddress",
          "type": "address"
        }
      ],
      "name": "SoldierDelisted",
      "type": "event"
    },
    {
      "anonymous": false,
      "inputs": [
        {
          "indexed": false,
          "internalType": "uint256",
          "name": "soldierId",
          "type": "uint256"
        },
        {
          "indexed": false,
          "internalType": "address",
          "name": "soldierAddress",
          "type": "address"
        }
      ],
      "name": "SoldierEnlisted",
      "type": "event"
    },
    {
      "anonymous": false,
      "inputs": [
        {
          "indexed": false,
          "internalType": "uint256",
          "name": "establishmentId",
          "type": "uint256"
        },
        {
          "indexed": false,
          "internalType": "address",
          "name": "establishmentAddress",
          "type": "address"
        }
      ],
      "name": "TrainingEstablishmentIdentified",
      "type": "event"
    },
    {
      "anonymous": false,
      "inputs": [
        {
          "indexed": false,
          "internalType": "address",
          "name": "soldierAddress",
          "type": "address"
        }
      ],
      "name": "WingsIssued",
      "type": "event"
    },
    {
      "anonymous": false,
      "inputs": [
        {
          "indexed": false,
          "internalType": "address",
          "name": "soldierAddress",
          "type": "address"
        }
      ],
      "name": "WingsRevoked",
      "type": "event"
    },
    {
      "constant": false,
      "inputs": [
        {
          "internalType": "address",
          "name": "soldierAddress",
          "type": "address"
        }
      ],
      "name": "assignJumpMaster",
      "outputs": [],
      "payable": false,
      "stateMutability": "nonpayable",
      "type": "function"
    },
    {
      "constant": false,
      "inputs": [
        {
          "internalType": "address",
          "name": "_masterAddress",
          "type": "address"
        }
      ],
      "name": "assignMasterRole",
      "outputs": [],
      "payable": false,
      "stateMutability": "nonpayable",
      "type": "function"
    },
    {
      "constant": false,
      "inputs": [
        {
          "internalType": "string",
          "name": "_name",
          "type": "string"
        },
        {
          "internalType": "string",
          "name": "_qualCode",
          "type": "string"
        }
      ],
      "name": "createQualification",
      "outputs": [],
      "payable": false,
      "stateMutability": "nonpayable",
      "type": "function"
    },
    {
      "constant": false,
      "inputs": [
        {
          "internalType": "address",
          "name": "soldierAddress",
          "type": "address"
        }
      ],
      "name": "delistSoldier",
      "outputs": [],
      "payable": false,
      "stateMutability": "nonpayable",
      "type": "function"
    },
    {
      "constant": false,
      "inputs": [
        {
          "internalType": "address",
          "name": "soldierAddress",
          "type": "address"
        }
      ],
      "name": "enlistSoldier",
      "outputs": [],
      "payable": false,
      "stateMutability": "nonpayable",
      "type": "function"
    },
    {
      "constant": true,
      "inputs": [
        {
          "internalType": "address",
          "name": "",
          "type": "address"
        }
      ],
      "name": "enlisted",
      "outputs": [
        {
          "internalType": "bool",
          "name": "",
          "type": "bool"
        }
      ],
      "payable": false,
      "stateMutability": "view",
      "type": "function"
    },
    {
      "constant": false,
      "inputs": [
        {
          "internalType": "address",
          "name": "establishmentAddress",
          "type": "address"
        }
      ],
      "name": "identifyTrainingEstablishment",
      "outputs": [],
      "payable": false,
      "stateMutability": "nonpayable",
      "type": "function"
    },
    {
      "constant": true,
      "inputs": [
        {
          "internalType": "address",
          "name": "account",
          "type": "address"
        }
      ],
      "name": "isMaster",
      "outputs": [
        {
          "internalType": "bool",
          "name": "",
          "type": "bool"
        }
      ],
      "payable": false,
      "stateMutability": "view",
      "type": "function"
    },
    {
      "constant": true,
      "inputs": [],
      "name": "isOwner",
      "outputs": [
        {
          "internalType": "bool",
          "name": "",
          "type": "bool"
        }
      ],
      "payable": false,
      "stateMutability": "view",
      "type": "function"
    },
    {
      "constant": false,
      "inputs": [
        {
          "internalType": "address",
          "name": "soldierAddress",
          "type": "address"
        }
      ],
      "name": "issueWings",
      "outputs": [],
      "payable": false,
      "stateMutability": "nonpayable",
      "type": "function"
    },
    {
      "constant": true,
      "inputs": [
        {
          "internalType": "address",
          "name": "",
          "type": "address"
        }
      ],
      "name": "jumpMaster",
      "outputs": [
        {
          "internalType": "bool",
          "name": "",
          "type": "bool"
        }
      ],
      "payable": false,
      "stateMutability": "view",
      "type": "function"
    },
    {
      "constant": true,
      "inputs": [],
      "name": "owner",
      "outputs": [
        {
          "internalType": "address",
          "name": "",
          "type": "address"
        }
      ],
      "payable": false,
      "stateMutability": "view",
      "type": "function"
    },
    {
      "constant": true,
      "inputs": [
        {
          "internalType": "uint256",
          "name": "",
          "type": "uint256"
        }
      ],
      "name": "qualificationToTrgEstablishment",
      "outputs": [
        {
          "internalType": "address",
          "name": "",
          "type": "address"
        }
      ],
      "payable": false,
      "stateMutability": "view",
      "type": "function"
    },
    {
      "constant": true,
      "inputs": [
        {
          "internalType": "uint256",
          "name": "",
          "type": "uint256"
        }
      ],
      "name": "qualifications",
      "outputs": [
        {
          "internalType": "uint256",
          "name": "id",
          "type": "uint256"
        },
        {
          "internalType": "string",
          "name": "name",
          "type": "string"
        },
        {
          "internalType": "string",
          "name": "qualCode",
          "type": "string"
        },
        {
          "internalType": "address",
          "name": "trgEstablishment",
          "type": "address"
        },
        {
          "internalType": "uint32",
          "name": "created",
          "type": "uint32"
        },
        {
          "internalType": "bool",
          "name": "qualStatus",
          "type": "bool"
        }
      ],
      "payable": false,
      "stateMutability": "view",
      "type": "function"
    },
    {
      "constant": false,
      "inputs": [],
      "name": "renounceOwnership",
      "outputs": [],
      "payable": false,
      "stateMutability": "nonpayable",
      "type": "function"
    },
    {
      "constant": false,
      "inputs": [
        {
          "internalType": "address",
          "name": "soldierAddress",
          "type": "address"
        }
      ],
      "name": "revokeWings",
      "outputs": [],
      "payable": false,
      "stateMutability": "nonpayable",
      "type": "function"
    },
    {
      "constant": true,
      "inputs": [
        {
          "internalType": "uint256",
          "name": "",
          "type": "uint256"
        }
      ],
      "name": "soldiers",
      "outputs": [
        {
          "internalType": "uint256",
          "name": "soldierId",
          "type": "uint256"
        },
        {
          "internalType": "address",
          "name": "soldierAddress",
          "type": "address"
        }
      ],
      "payable": false,
      "stateMutability": "view",
      "type": "function"
    },
    {
      "constant": false,
      "inputs": [],
      "name": "terminateQualificationRoles",
      "outputs": [],
      "payable": false,
      "stateMutability": "nonpayable",
      "type": "function"
    },
    {
      "constant": true,
      "inputs": [
        {
          "internalType": "address",
          "name": "",
          "type": "address"
        }
      ],
      "name": "trainingEstablishment",
      "outputs": [
        {
          "internalType": "bool",
          "name": "",
          "type": "bool"
        }
      ],
      "payable": false,
      "stateMutability": "view",
      "type": "function"
    },
    {
      "constant": true,
      "inputs": [
        {
          "internalType": "uint256",
          "name": "",
          "type": "uint256"
        }
      ],
      "name": "trainingEstablishments",
      "outputs": [
        {
          "internalType": "uint256",
          "name": "establishmentId",
          "type": "uint256"
        },
        {
          "internalType": "address",
          "name": "establishmentAddress",
          "type": "address"
        }
      ],
      "payable": false,
      "stateMutability": "view",
      "type": "function"
    },
    {
      "constant": false,
      "inputs": [
        {
          "internalType": "address",
          "name": "newOwner",
          "type": "address"
        }
      ],
      "name": "transferOwnership",
      "outputs": [],
      "payable": false,
      "stateMutability": "nonpayable",
      "type": "function"
    },
    {
      "constant": true,
      "inputs": [
        {
          "internalType": "address",
          "name": "",
          "type": "address"
        }
      ],
      "name": "wings",
      "outputs": [
        {
          "internalType": "bool",
          "name": "",
          "type": "bool"
        }
      ],
      "payable": false,
      "stateMutability": "view",
      "type": "function"
    },
    {
      "constant": false,
      "inputs": [
        {
          "internalType": "uint256",
          "name": "_qualificationId",
          "type": "uint256"
        },
        {
          "internalType": "string",
          "name": "_newQualificationName",
          "type": "string"
        }
      ],
      "name": "changeQualificationName",
      "outputs": [],
      "payable": false,
      "stateMutability": "nonpayable",
      "type": "function"
    },
    {
      "constant": false,
      "inputs": [
        {
          "internalType": "uint256",
          "name": "_qualificationId",
          "type": "uint256"
        },
        {
          "internalType": "string",
          "name": "_newQualificationCode",
          "type": "string"
        }
      ],
      "name": "changeQualificationCode",
      "outputs": [],
      "payable": false,
      "stateMutability": "nonpayable",
      "type": "function"
    },
    {
      "constant": false,
      "inputs": [
        {
          "internalType": "uint256",
          "name": "_qualificationId",
          "type": "uint256"
        }
      ],
      "name": "changeQualificationStatus",
      "outputs": [],
      "payable": false,
      "stateMutability": "nonpayable",
      "type": "function"
    },
    {
      "constant": true,
      "inputs": [
        {
          "internalType": "address",
          "name": "_trgEstablishment",
          "type": "address"
        }
      ],
      "name": "getQualificationsByTrgEstablishment",
      "outputs": [
        {
          "internalType": "uint256[]",
          "name": "",
          "type": "uint256[]"
        }
      ],
      "payable": false,
      "stateMutability": "view",
      "type": "function"
    }
  ],
  "bytecode": "0x608060405260016005556100176100d760201b60201c565b6000806101000a81548173ffffffffffffffffffffffffffffffffffffffff021916908373ffffffffffffffffffffffffffffffffffffffff1602179055506000809054906101000a900473ffffffffffffffffffffffffffffffffffffffff1673ffffffffffffffffffffffffffffffffffffffff16600073ffffffffffffffffffffffffffffffffffffffff167f8be0079c531659141344cd1fd0a4f28419497f9722a3daafe3b4186f6b6457e060405160405180910390a36100df565b600033905090565b612b5a806100ee6000396000f3fe608060405234801561001057600080fd5b506004361061018e5760003560e01c80638da5cb5b116100de578063e078c69f11610097578063f2937ca011610071578063f2937ca014610a70578063f2fde38b14610ae5578063f611c26d14610b29578063f720f80b14610b855761018e565b8063e078c69f14610878578063e8cb3e5014610882578063e93001a0146109ed5761018e565b80638da5cb5b1461069b5780638f32d59b146106e55780639ad4149b14610707578063b8f1f04514610763578063b909b68e146107a7578063d0fd51391461081c5761018e565b8063424818961161014b578063715018a611610125578063715018a61461059957806371584006146105a357806382efe171146105ff578063871c6c5f1461062d5761018e565b8063424818961461048e57806348ef3744146104d2578063534d8760146105555761018e565b8063019f628d1461019357806316addad0146101d7578063211f19711461027057806326400dae146102b45780632de039e4146102f85780633ec4d2af1461033c575b600080fd5b6101d5600480360360208110156101a957600080fd5b81019080803573ffffffffffffffffffffffffffffffffffffffff169060200190929190505050610be1565b005b610219600480360360208110156101ed57600080fd5b81019080803573ffffffffffffffffffffffffffffffffffffffff169060200190929190505050610ca8565b6040518080602001828103825283818151815260200191508051906020019060200280838360005b8381101561025c578082015181840152602081019050610241565b505050509050019250505060405180910390f35b6102b26004803603602081101561028657600080fd5b81019080803573ffffffffffffffffffffffffffffffffffffffff169060200190929190505050610dd5565b005b6102f6600480360360208110156102ca57600080fd5b81019080803573ffffffffffffffffffffffffffffffffffffffff169060200190929190505050610fdf565b005b61033a6004803603602081101561030e57600080fd5b81019080803573ffffffffffffffffffffffffffffffffffffffff16906020019092919050505061116c565b005b61048c6004803603604081101561035257600080fd5b810190808035906020019064010000000081111561036f57600080fd5b82018360208201111561038157600080fd5b803590602001918460018302840111640100000000831117156103a357600080fd5b91908080601f016020809104026020016040519081016040528093929190818152602001838380828437600081840152601f19601f8201169050808301925050505050505091929192908035906020019064010000000081111561040657600080fd5b82018360208201111561041857600080fd5b8035906020019184600183028401116401000000008311171561043a57600080fd5b91908080601f016020809104026020016040519081016040528093929190818152602001838380828437600081840152601f19601f8201169050808301925050505050505091929192905050506111f2565b005b6104d0600480360360208110156104a457600080fd5b81019080803573ffffffffffffffffffffffffffffffffffffffff169060200190929190505050611200565b005b610553600480360360408110156104e857600080fd5b81019080803590602001909291908035906020019064010000000081111561050f57600080fd5b82018360208201111561052157600080fd5b8035906020019184600183028401116401000000008311171561054357600080fd5b909192939192939050505061144d565b005b6105976004803603602081101561056b57600080fd5b81019080803573ffffffffffffffffffffffffffffffffffffffff169060200190929190505050611556565b005b6105a1611761565b005b6105e5600480360360208110156105b957600080fd5b81019080803573ffffffffffffffffffffffffffffffffffffffff16906020019092919050505061189a565b604051808215151515815260200191505060405180910390f35b61062b6004803603602081101561061557600080fd5b81019080803590602001909291905050506118ba565b005b6106596004803603602081101561064357600080fd5b81019080803590602001909291905050506119f5565b604051808273ffffffffffffffffffffffffffffffffffffffff1673ffffffffffffffffffffffffffffffffffffffff16815260200191505060405180910390f35b6106a3611a28565b604051808273ffffffffffffffffffffffffffffffffffffffff1673ffffffffffffffffffffffffffffffffffffffff16815260200191505060405180910390f35b6106ed611a51565b604051808215151515815260200191505060405180910390f35b6107496004803603602081101561071d57600080fd5b81019080803573ffffffffffffffffffffffffffffffffffffffff169060200190929190505050611aaf565b604051808215151515815260200191505060405180910390f35b6107a56004803603602081101561077957600080fd5b81019080803573ffffffffffffffffffffffffffffffffffffffff169060200190929190505050611acf565b005b6107d3600480360360208110156107bd57600080fd5b8101908080359060200190929190505050611c55565b604051808381526020018273ffffffffffffffffffffffffffffffffffffffff1673ffffffffffffffffffffffffffffffffffffffff1681526020019250505060405180910390f35b61085e6004803603602081101561083257600080fd5b81019080803573ffffffffffffffffffffffffffffffffffffffff169060200190929190505050611ca6565b604051808215151515815260200191505060405180910390f35b610880611cc6565b005b6108ae6004803603602081101561089857600080fd5b8101908080359060200190929190505050611d59565b6040518087815260200180602001806020018673ffffffffffffffffffffffffffffffffffffffff1673ffffffffffffffffffffffffffffffffffffffff1681526020018563ffffffff1663ffffffff16815260200184151515158152602001838103835288818151815260200191508051906020019080838360005b8381101561094657808201518184015260208101905061092b565b50505050905090810190601f1680156109735780820380516001836020036101000a031916815260200191505b50838103825287818151815260200191508051906020019080838360005b838110156109ac578082015181840152602081019050610991565b50505050905090810190601f1680156109d95780820380516001836020036101000a031916815260200191505b509850505050505050505060405180910390f35b610a6e60048036036040811015610a0357600080fd5b810190808035906020019092919080359060200190640100000000811115610a2a57600080fd5b820183602082011115610a3c57600080fd5b80359060200191846001830284011164010000000083111715610a5e57600080fd5b9091929391929390505050611f0f565b005b610a9c60048036036020811015610a8657600080fd5b8101908080359060200190929190505050612018565b604051808381526020018273ffffffffffffffffffffffffffffffffffffffff1673ffffffffffffffffffffffffffffffffffffffff1681526020019250505060405180910390f35b610b2760048036036020811015610afb57600080fd5b81019080803573ffffffffffffffffffffffffffffffffffffffff169060200190929190505050612069565b005b610b6b60048036036020811015610b3f57600080fd5b81019080803573ffffffffffffffffffffffffffffffffffffffff1690602001909291905050506120ef565b604051808215151515815260200191505060405180910390f35b610bc760048036036020811015610b9b57600080fd5b81019080803573ffffffffffffffffffffffffffffffffffffffff16906020019092919050505061210f565b604051808215151515815260200191505060405180910390f35b610bea8161212c565b6001600960008373ffffffffffffffffffffffffffffffffffffffff1673ffffffffffffffffffffffffffffffffffffffff16815260200190815260200160002060006101000a81548160ff0219169083151502179055507fa1a0746f9ed69d855127a249ef8f15c32fdf2cc3519b22856eaf0af91d16603c81604051808273ffffffffffffffffffffffffffffffffffffffff1673ffffffffffffffffffffffffffffffffffffffff16815260200191505060405180910390a150565b606080600e60008473ffffffffffffffffffffffffffffffffffffffff1673ffffffffffffffffffffffffffffffffffffffff16815260200190815260200160002054604051908082528060200260200182016040528015610d195781602001602082028038833980820191505090505b509050600080905060008090505b600680549050811015610dca578473ffffffffffffffffffffffffffffffffffffffff16600d600083815260200190815260200160002060009054906101000a900473ffffffffffffffffffffffffffffffffffffffff1673ffffffffffffffffffffffffffffffffffffffff161415610dbd5780838381518110610da857fe5b60200260200101818152505081806001019250505b8080600101915050610d27565b508192505050919050565b60011515600b60008373ffffffffffffffffffffffffffffffffffffffff1673ffffffffffffffffffffffffffffffffffffffff16815260200190815260200160002060009054906101000a900460ff16151514610e9b576040517f08c379a00000000000000000000000000000000000000000000000000000000081526004018080602001828103825260138152602001807f446f6573204e6f7420486176652057696e67730000000000000000000000000081525060200191505060405180910390fd5b610eaf33600361214390919063ffffffff16565b610f21576040517f08c379a000000000000000000000000000000000000000000000000000000000815260040180806020018281038252601b8152602001807f49735f4e6f745f415f547261696e696e675f417574686f72697479000000000081525060200191505060405180910390fd5b6000600b60008373ffffffffffffffffffffffffffffffffffffffff1673ffffffffffffffffffffffffffffffffffffffff16815260200190815260200160002060006101000a81548160ff0219169083151502179055507f073d303ee4b04133b0e4a05c979be4b83a7038e3b342c45ac388ca7ef63200f781604051808273ffffffffffffffffffffffffffffffffffffffff1673ffffffffffffffffffffffffffffffffffffffff16815260200191505060405180910390a150565b60011515600a60008373ffffffffffffffffffffffffffffffffffffffff1673ffffffffffffffffffffffffffffffffffffffff16815260200190815260200160002060009054906101000a900460ff161515146110a5576040517f08c379a00000000000000000000000000000000000000000000000000000000081526004018080602001828103825260108152602001807f416c72656164792044656c69737465640000000000000000000000000000000081525060200191505060405180910390fd5b6110ae81612221565b6000600a60008373ffffffffffffffffffffffffffffffffffffffff1673ffffffffffffffffffffffffffffffffffffffff16815260200190815260200160002060006101000a81548160ff0219169083151502179055507f9d634a5e8fbd4f7a57bd5d54404e498fae6c54fa27c38ca4a0ab4071f0ca583c81604051808273ffffffffffffffffffffffffffffffffffffffff1673ffffffffffffffffffffffffffffffffffffffff16815260200191505060405180910390a150565b611174611a51565b6111e6576040517f08c379a00000000000000000000000000000000000000000000000000000000081526004018080602001828103825260208152602001807f4f776e61626c653a2063616c6c6572206973206e6f7420746865206f776e657281525060200191505060405180910390fd5b6111ef81612238565b50565b6111fc828261224f565b5050565b60011515600a60008373ffffffffffffffffffffffffffffffffffffffff1673ffffffffffffffffffffffffffffffffffffffff16815260200190815260200160002060009054906101000a900460ff16151514156112c7576040517f08c379a00000000000000000000000000000000000000000000000000000000081526004018080602001828103825260108152602001807f416c726561647920456e6c69737465640000000000000000000000000000000081525060200191505060405180910390fd5b60006007805490509050600760405180604001604052808381526020018473ffffffffffffffffffffffffffffffffffffffff16815250908060018154018082558091505090600182039060005260206000209060020201600090919290919091506000820151816000015560208201518160010160006101000a81548173ffffffffffffffffffffffffffffffffffffffff021916908373ffffffffffffffffffffffffffffffffffffffff160217905550505050611386826125fd565b6001600a60008473ffffffffffffffffffffffffffffffffffffffff1673ffffffffffffffffffffffffffffffffffffffff16815260200190815260200160002060006101000a81548160ff0219169083151502179055507f81389e9105d6ae0460e43f1a1f9e998cd61e342737a59111c8fcfc33dc5473598183604051808381526020018273ffffffffffffffffffffffffffffffffffffffff1673ffffffffffffffffffffffffffffffffffffffff1681526020019250505060405180910390a15050565b82600d600082815260200190815260200160002060009054906101000a900473ffffffffffffffffffffffffffffffffffffffff1673ffffffffffffffffffffffffffffffffffffffff163373ffffffffffffffffffffffffffffffffffffffff1614611522576040517f08c379a000000000000000000000000000000000000000000000000000000000815260040180806020018281038252601a8152602001807f646f6573206e6f74206f776e207175616c696669636174696f6e00000000000081525060200191505060405180910390fd5b82826006868154811061153157fe5b9060005260206000209060040201600201919061154f929190612997565b5050505050565b60011515600b60008373ffffffffffffffffffffffffffffffffffffffff1673ffffffffffffffffffffffffffffffffffffffff16815260200190815260200160002060009054906101000a900460ff161515141561161d576040517f08c379a00000000000000000000000000000000000000000000000000000000081526004018080602001828103825260198152602001807f416c7265616479204265656e204973737565642057696e67730000000000000081525060200191505060405180910390fd5b61163133600261214390919063ffffffff16565b6116a3576040517f08c379a00000000000000000000000000000000000000000000000000000000081526004018080602001828103825260138152602001807f49735f4e6f745f415f4a756d704d61737465720000000000000000000000000081525060200191505060405180910390fd5b6001600b60008373ffffffffffffffffffffffffffffffffffffffff1673ffffffffffffffffffffffffffffffffffffffff16815260200190815260200160002060006101000a81548160ff0219169083151502179055507f5fc561c2e0519e656008f1066305fa69d1b40502149698df2c864296840a7a9081604051808273ffffffffffffffffffffffffffffffffffffffff1673ffffffffffffffffffffffffffffffffffffffff16815260200191505060405180910390a150565b611769611a51565b6117db576040517f08c379a00000000000000000000000000000000000000000000000000000000081526004018080602001828103825260208152602001807f4f776e61626c653a2063616c6c6572206973206e6f7420746865206f776e657281525060200191505060405180910390fd5b600073ffffffffffffffffffffffffffffffffffffffff166000809054906101000a900473ffffffffffffffffffffffffffffffffffffffff1673ffffffffffffffffffffffffffffffffffffffff167f8be0079c531659141344cd1fd0a4f28419497f9722a3daafe3b4186f6b6457e060405160405180910390a360008060006101000a81548173ffffffffffffffffffffffffffffffffffffffff021916908373ffffffffffffffffffffffffffffffffffffffff160217905550565b600b6020528060005260406000206000915054906101000a900460ff1681565b80600d600082815260200190815260200160002060009054906101000a900473ffffffffffffffffffffffffffffffffffffffff1673ffffffffffffffffffffffffffffffffffffffff163373ffffffffffffffffffffffffffffffffffffffff161461198f576040517f08c379a000000000000000000000000000000000000000000000000000000000815260040180806020018281038252601a8152602001807f646f6573206e6f74206f776e207175616c696669636174696f6e00000000000081525060200191505060405180910390fd5b6006828154811061199c57fe5b906000526020600020906004020160030160189054906101000a900460ff1615600683815481106119c957fe5b906000526020600020906004020160030160186101000a81548160ff0219169083151502179055505050565b600d6020528060005260406000206000915054906101000a900473ffffffffffffffffffffffffffffffffffffffff1681565b60008060009054906101000a900473ffffffffffffffffffffffffffffffffffffffff16905090565b60008060009054906101000a900473ffffffffffffffffffffffffffffffffffffffff1673ffffffffffffffffffffffffffffffffffffffff16611a93612614565b73ffffffffffffffffffffffffffffffffffffffff1614905090565b600c6020528060005260406000206000915054906101000a900460ff1681565b60006008805490509050600860405180604001604052808381526020018473ffffffffffffffffffffffffffffffffffffffff16815250908060018154018082558091505090600182039060005260206000209060020201600090919290919091506000820151816000015560208201518160010160006101000a81548173ffffffffffffffffffffffffffffffffffffffff021916908373ffffffffffffffffffffffffffffffffffffffff160217905550505050611b8e8261261c565b6001600c60008473ffffffffffffffffffffffffffffffffffffffff1673ffffffffffffffffffffffffffffffffffffffff16815260200190815260200160002060006101000a81548160ff0219169083151502179055507f2dc1e067bcf1c76590d0b48a8e0d1669dce372cb6d9d53506f2177dc7674b1888183604051808381526020018273ffffffffffffffffffffffffffffffffffffffff1673ffffffffffffffffffffffffffffffffffffffff1681526020019250505060405180910390a15050565b60078181548110611c6257fe5b90600052602060002090600202016000915090508060000154908060010160009054906101000a900473ffffffffffffffffffffffffffffffffffffffff16905082565b600a6020528060005260406000206000915054906101000a900460ff1681565b611cce611a51565b611d40576040517f08c379a00000000000000000000000000000000000000000000000000000000081526004018080602001828103825260208152602001807f4f776e61626c653a2063616c6c6572206973206e6f7420746865206f776e657281525060200191505060405180910390fd5b3373ffffffffffffffffffffffffffffffffffffffff16ff5b60068181548110611d6657fe5b9060005260206000209060040201600091509050806000015490806001018054600181600116156101000203166002900480601f016020809104026020016040519081016040528092919081815260200182805460018160011615610100020316600290048015611e185780601f10611ded57610100808354040283529160200191611e18565b820191906000526020600020905b815481529060010190602001808311611dfb57829003601f168201915b505050505090806002018054600181600116156101000203166002900480601f016020809104026020016040519081016040528092919081815260200182805460018160011615610100020316600290048015611eb65780601f10611e8b57610100808354040283529160200191611eb6565b820191906000526020600020905b815481529060010190602001808311611e9957829003601f168201915b5050505050908060030160009054906101000a900473ffffffffffffffffffffffffffffffffffffffff16908060030160149054906101000a900463ffffffff16908060030160189054906101000a900460ff16905086565b82600d600082815260200190815260200160002060009054906101000a900473ffffffffffffffffffffffffffffffffffffffff1673ffffffffffffffffffffffffffffffffffffffff163373ffffffffffffffffffffffffffffffffffffffff1614611fe4576040517f08c379a000000000000000000000000000000000000000000000000000000000815260040180806020018281038252601a8152602001807f646f6573206e6f74206f776e207175616c696669636174696f6e00000000000081525060200191505060405180910390fd5b828260068681548110611ff357fe5b90600052602060002090600402016001019190612011929190612997565b5050505050565b6008818154811061202557fe5b90600052602060002090600202016000915090508060000154908060010160009054906101000a900473ffffffffffffffffffffffffffffffffffffffff16905082565b612071611a51565b6120e3576040517f08c379a00000000000000000000000000000000000000000000000000000000081526004018080602001828103825260208152602001807f4f776e61626c653a2063616c6c6572206973206e6f7420746865206f776e657281525060200191505060405180910390fd5b6120ec81612633565b50565b60096020528060005260406000206000915054906101000a900460ff1681565b600061212582600461214390919063ffffffff16565b9050919050565b61214081600261277790919063ffffffff16565b50565b60008073ffffffffffffffffffffffffffffffffffffffff168273ffffffffffffffffffffffffffffffffffffffff1614156121ca576040517f08c379a0000000000000000000000000000000000000000000000000000000008152600401808060200182810382526022815260200180612b046022913960400191505060405180910390fd5b8260000160008373ffffffffffffffffffffffffffffffffffffffff1673ffffffffffffffffffffffffffffffffffffffff16815260200190815260200160002060009054906101000a900460ff16905092915050565b61223581600161285290919063ffffffff16565b50565b61224c81600461277790919063ffffffff16565b50565b60066040518060c0016040528060055481526020018481526020018381526020013373ffffffffffffffffffffffffffffffffffffffff1681526020014263ffffffff16815260200160011515815250908060018154018082558091505090600182039060005260206000209060040201600090919290919091506000820151816000015560208201518160010190805190602001906122f0929190612a17565b50604082015181600201908051906020019061230d929190612a17565b5060608201518160030160006101000a81548173ffffffffffffffffffffffffffffffffffffffff021916908373ffffffffffffffffffffffffffffffffffffffff16021790555060808201518160030160146101000a81548163ffffffff021916908363ffffffff16021790555060a08201518160030160186101000a81548160ff02191690831515021790555050505033600d6000600554815260200190815260200160002060006101000a81548173ffffffffffffffffffffffffffffffffffffffff021916908373ffffffffffffffffffffffffffffffffffffffff1602179055506124466001600e60003373ffffffffffffffffffffffffffffffffffffffff1673ffffffffffffffffffffffffffffffffffffffff1681526020019081526020016000205461290f90919063ffffffff16565b600e60003373ffffffffffffffffffffffffffffffffffffffff1673ffffffffffffffffffffffffffffffffffffffff168152602001908152602001600020819055507fdbac541c0b28f6e1e1769938e1acdcf3c00c8a02fe029d9cde00ba2e02c6ade460055483833360016040518086815260200180602001806020018573ffffffffffffffffffffffffffffffffffffffff1673ffffffffffffffffffffffffffffffffffffffff16815260200184151515158152602001838103835287818151815260200191508051906020019080838360005b8381101561253857808201518184015260208101905061251d565b50505050905090810190601f1680156125655780820380516001836020036101000a031916815260200191505b50838103825286818151815260200191508051906020019080838360005b8381101561259e578082015181840152602081019050612583565b50505050905090810190601f1680156125cb5780820380516001836020036101000a031916815260200191505b5097505050505050505060405180910390a16125f3600160055461290f90919063ffffffff16565b6005819055505050565b61261181600161277790919063ffffffff16565b50565b600033905090565b61263081600361277790919063ffffffff16565b50565b600073ffffffffffffffffffffffffffffffffffffffff168173ffffffffffffffffffffffffffffffffffffffff1614156126b9576040517f08c379a0000000000000000000000000000000000000000000000000000000008152600401808060200182810382526026815260200180612abd6026913960400191505060405180910390fd5b8073ffffffffffffffffffffffffffffffffffffffff166000809054906101000a900473ffffffffffffffffffffffffffffffffffffffff1673ffffffffffffffffffffffffffffffffffffffff167f8be0079c531659141344cd1fd0a4f28419497f9722a3daafe3b4186f6b6457e060405160405180910390a3806000806101000a81548173ffffffffffffffffffffffffffffffffffffffff021916908373ffffffffffffffffffffffffffffffffffffffff16021790555050565b6127818282612143565b156127f4576040517f08c379a000000000000000000000000000000000000000000000000000000000815260040180806020018281038252601f8152602001807f526f6c65733a206163636f756e7420616c72656164792068617320726f6c650081525060200191505060405180910390fd5b60018260000160008373ffffffffffffffffffffffffffffffffffffffff1673ffffffffffffffffffffffffffffffffffffffff16815260200190815260200160002060006101000a81548160ff0219169083151502179055505050565b61285c8282612143565b6128b1576040517f08c379a0000000000000000000000000000000000000000000000000000000008152600401808060200182810382526021815260200180612ae36021913960400191505060405180910390fd5b60008260000160008373ffffffffffffffffffffffffffffffffffffffff1673ffffffffffffffffffffffffffffffffffffffff16815260200190815260200160002060006101000a81548160ff0219169083151502179055505050565b60008082840190508381101561298d576040517f08c379a000000000000000000000000000000000000000000000000000000000815260040180806020018281038252601b8152602001807f536166654d6174683a206164646974696f6e206f766572666c6f77000000000081525060200191505060405180910390fd5b8091505092915050565b828054600181600116156101000203166002900490600052602060002090601f016020900481019282601f106129d857803560ff1916838001178555612a06565b82800160010185558215612a06579182015b82811115612a055782358255916020019190600101906129ea565b5b509050612a139190612a97565b5090565b828054600181600116156101000203166002900490600052602060002090601f016020900481019282601f10612a5857805160ff1916838001178555612a86565b82800160010185558215612a86579182015b82811115612a85578251825591602001919060010190612a6a565b5b509050612a939190612a97565b5090565b612ab991905b80821115612ab5576000816000905550600101612a9d565b5090565b9056fe4f776e61626c653a206e6577206f776e657220697320746865207a65726f2061646472657373526f6c65733a206163636f756e7420646f6573206e6f74206861766520726f6c65526f6c65733a206163636f756e7420697320746865207a65726f2061646472657373a265627a7a7231582078a8b58fc78dbf074957521cdadd10ecc1de93778a598c0220533861daa65f7864736f6c634300050c0032",
  "source": "pragma solidity >=0.5.0 <0.6.0;\n\nimport \"./QualificationFactory.sol\";\n\ncontract QualificationHelper is QualificationFactory {\n\n  modifier onlyOwnerOf(uint _qualificationId) {\n    require(msg.sender == qualificationToTrgEstablishment[_qualificationId], \"does not own qualification\");\n    _;\n  }\n\n  function changeQualificationName(uint _qualificationId, string calldata _newQualificationName) external onlyOwnerOf(_qualificationId) {\n    qualifications[_qualificationId].name = _newQualificationName;\n  }\n\n  function changeQualificationCode(uint _qualificationId, string calldata _newQualificationCode) external onlyOwnerOf(_qualificationId) {\n    qualifications[_qualificationId].qualCode = _newQualificationCode;\n  }\n\n  function changeQualificationStatus(uint _qualificationId) external onlyOwnerOf(_qualificationId) {\n    qualifications[_qualificationId].qualStatus = !qualifications[_qualificationId].qualStatus;\n  }\n\n  function getQualificationsByTrgEstablishment(address _trgEstablishment) external view returns(uint[] memory) {\n    uint[] memory result = new uint[](trgEstablishmentQualificationCount[_trgEstablishment]);\n    uint counter = 0;\n    for (uint i = 0; i < qualifications.length; i++) {\n      if (qualificationToTrgEstablishment[i] == _trgEstablishment) {\n        result[counter] = i;\n        counter++;\n      }\n    }\n    return result;\n  }\n\n}",
  "sourcePath": "/home/vitalpointai/projects/qualification-coin/src/contracts/QualificationHelper.sol",
  "compiler": {
    "name": "solc",
    "version": "0.5.12+commit.7709ece9.Emscripten.clang"
  },
  "schemaVersion": "3.0.19",
  "updatedAt": "2019-12-30T23:51:28.014Z",
  "networkType": "ethereum",
  "devdoc": {
    "methods": {
      "isOwner()": {
        "details": "Returns true if the caller is the current owner."
      },
      "owner()": {
        "details": "Returns the address of the current owner."
      },
      "renounceOwnership()": {
        "details": "Leaves the contract without owner. It will not be possible to call `onlyOwner` functions anymore. Can only be called by the current owner.     * NOTE: Renouncing ownership will leave the contract without an owner, thereby removing any functionality that is only available to the owner."
      },
      "transferOwnership(address)": {
        "details": "Transfers ownership of the contract to a new account (`newOwner`). Can only be called by the current owner."
      }
    }
  },
  "userdoc": {
    "methods": {}
  }
}