{
  "contractName": "QualificationFactory",
  "abi": [
    {
      "anonymous": false,
      "inputs": [
        {
          "indexed": false,
          "internalType": "address",
          "name": "soldierAddress",
          "type": "address"
        }
      ],
      "name": "JumpMasterAuthorized",
      "type": "event"
    },
    {
      "anonymous": false,
      "inputs": [
        {
          "indexed": false,
          "internalType": "uint256",
          "name": "qualificationId",
          "type": "uint256"
        },
        {
          "indexed": false,
          "internalType": "string",
          "name": "qualificationName",
          "type": "string"
        },
        {
          "indexed": false,
          "internalType": "string",
          "name": "qualificationCode",
          "type": "string"
        },
        {
          "indexed": false,
          "internalType": "address",
          "name": "trgEstablishment",
          "type": "address"
        },
        {
          "indexed": false,
          "internalType": "bool",
          "name": "qualStatus",
          "type": "bool"
        },
        {
          "indexed": false,
          "internalType": "string",
          "name": "imageFileName",
          "type": "string"
        }
      ],
      "name": "NewQualificationCreated",
      "type": "event"
    },
    {
      "anonymous": false,
      "inputs": [
        {
          "indexed": true,
          "internalType": "address",
          "name": "previousOwner",
          "type": "address"
        },
        {
          "indexed": true,
          "internalType": "address",
          "name": "newOwner",
          "type": "address"
        }
      ],
      "name": "OwnershipTransferred",
      "type": "event"
    },
    {
      "anonymous": false,
      "inputs": [
        {
          "indexed": false,
          "internalType": "address",
          "name": "soldierAddress",
          "type": "address"
        }
      ],
      "name": "SoldierDelisted",
      "type": "event"
    },
    {
      "anonymous": false,
      "inputs": [
        {
          "indexed": false,
          "internalType": "uint256",
          "name": "soldierId",
          "type": "uint256"
        },
        {
          "indexed": false,
          "internalType": "address",
          "name": "soldierAddress",
          "type": "address"
        }
      ],
      "name": "SoldierEnlisted",
      "type": "event"
    },
    {
      "anonymous": false,
      "inputs": [
        {
          "indexed": false,
          "internalType": "uint256",
          "name": "establishmentId",
          "type": "uint256"
        },
        {
          "indexed": false,
          "internalType": "address",
          "name": "establishmentAddress",
          "type": "address"
        }
      ],
      "name": "TrainingEstablishmentIdentified",
      "type": "event"
    },
    {
      "anonymous": false,
      "inputs": [
        {
          "indexed": false,
          "internalType": "address",
          "name": "soldierAddress",
          "type": "address"
        }
      ],
      "name": "WingsIssued",
      "type": "event"
    },
    {
      "anonymous": false,
      "inputs": [
        {
          "indexed": false,
          "internalType": "address",
          "name": "soldierAddress",
          "type": "address"
        }
      ],
      "name": "WingsRevoked",
      "type": "event"
    },
    {
      "constant": true,
      "inputs": [
        {
          "internalType": "address",
          "name": "",
          "type": "address"
        }
      ],
      "name": "enlisted",
      "outputs": [
        {
          "internalType": "bool",
          "name": "",
          "type": "bool"
        }
      ],
      "payable": false,
      "stateMutability": "view",
      "type": "function"
    },
    {
      "constant": true,
      "inputs": [],
      "name": "isOwner",
      "outputs": [
        {
          "internalType": "bool",
          "name": "",
          "type": "bool"
        }
      ],
      "payable": false,
      "stateMutability": "view",
      "type": "function"
    },
    {
      "constant": true,
      "inputs": [
        {
          "internalType": "address",
          "name": "",
          "type": "address"
        }
      ],
      "name": "jumpMaster",
      "outputs": [
        {
          "internalType": "bool",
          "name": "",
          "type": "bool"
        }
      ],
      "payable": false,
      "stateMutability": "view",
      "type": "function"
    },
    {
      "constant": true,
      "inputs": [],
      "name": "owner",
      "outputs": [
        {
          "internalType": "address",
          "name": "",
          "type": "address"
        }
      ],
      "payable": false,
      "stateMutability": "view",
      "type": "function"
    },
    {
      "constant": true,
      "inputs": [
        {
          "internalType": "uint256",
          "name": "",
          "type": "uint256"
        }
      ],
      "name": "qualificationToTrgEstablishment",
      "outputs": [
        {
          "internalType": "address",
          "name": "",
          "type": "address"
        }
      ],
      "payable": false,
      "stateMutability": "view",
      "type": "function"
    },
    {
      "constant": true,
      "inputs": [
        {
          "internalType": "uint256",
          "name": "",
          "type": "uint256"
        }
      ],
      "name": "qualifications",
      "outputs": [
        {
          "internalType": "uint256",
          "name": "id",
          "type": "uint256"
        },
        {
          "internalType": "string",
          "name": "name",
          "type": "string"
        },
        {
          "internalType": "string",
          "name": "qualCode",
          "type": "string"
        },
        {
          "internalType": "address",
          "name": "trgEstablishment",
          "type": "address"
        },
        {
          "internalType": "uint32",
          "name": "created",
          "type": "uint32"
        },
        {
          "internalType": "bool",
          "name": "qualStatus",
          "type": "bool"
        },
        {
          "internalType": "string",
          "name": "imageFileName",
          "type": "string"
        }
      ],
      "payable": false,
      "stateMutability": "view",
      "type": "function"
    },
    {
      "constant": false,
      "inputs": [],
      "name": "renounceOwnership",
      "outputs": [],
      "payable": false,
      "stateMutability": "nonpayable",
      "type": "function"
    },
    {
      "constant": true,
      "inputs": [
        {
          "internalType": "uint256",
          "name": "",
          "type": "uint256"
        }
      ],
      "name": "soldiers",
      "outputs": [
        {
          "internalType": "uint256",
          "name": "soldierId",
          "type": "uint256"
        },
        {
          "internalType": "address",
          "name": "soldierAddress",
          "type": "address"
        }
      ],
      "payable": false,
      "stateMutability": "view",
      "type": "function"
    },
    {
      "constant": true,
      "inputs": [
        {
          "internalType": "address",
          "name": "",
          "type": "address"
        }
      ],
      "name": "trainingEstablishment",
      "outputs": [
        {
          "internalType": "bool",
          "name": "",
          "type": "bool"
        }
      ],
      "payable": false,
      "stateMutability": "view",
      "type": "function"
    },
    {
      "constant": true,
      "inputs": [
        {
          "internalType": "uint256",
          "name": "",
          "type": "uint256"
        }
      ],
      "name": "trainingEstablishments",
      "outputs": [
        {
          "internalType": "uint256",
          "name": "establishmentId",
          "type": "uint256"
        },
        {
          "internalType": "address",
          "name": "establishmentAddress",
          "type": "address"
        }
      ],
      "payable": false,
      "stateMutability": "view",
      "type": "function"
    },
    {
      "constant": false,
      "inputs": [
        {
          "internalType": "address",
          "name": "newOwner",
          "type": "address"
        }
      ],
      "name": "transferOwnership",
      "outputs": [],
      "payable": false,
      "stateMutability": "nonpayable",
      "type": "function"
    },
    {
      "constant": true,
      "inputs": [
        {
          "internalType": "address",
          "name": "",
          "type": "address"
        }
      ],
      "name": "wings",
      "outputs": [
        {
          "internalType": "bool",
          "name": "",
          "type": "bool"
        }
      ],
      "payable": false,
      "stateMutability": "view",
      "type": "function"
    },
    {
      "constant": false,
      "inputs": [
        {
          "internalType": "string",
          "name": "_name",
          "type": "string"
        },
        {
          "internalType": "string",
          "name": "_qualCode",
          "type": "string"
        },
        {
          "internalType": "string",
          "name": "_imageFileName",
          "type": "string"
        }
      ],
      "name": "createQualification",
      "outputs": [],
      "payable": false,
      "stateMutability": "nonpayable",
      "type": "function"
    },
    {
      "constant": false,
      "inputs": [
        {
          "internalType": "address",
          "name": "_masterAddress",
          "type": "address"
        }
      ],
      "name": "assignMasterRole",
      "outputs": [],
      "payable": false,
      "stateMutability": "nonpayable",
      "type": "function"
    },
    {
      "constant": true,
      "inputs": [
        {
          "internalType": "address",
          "name": "account",
          "type": "address"
        }
      ],
      "name": "isMaster",
      "outputs": [
        {
          "internalType": "bool",
          "name": "",
          "type": "bool"
        }
      ],
      "payable": false,
      "stateMutability": "view",
      "type": "function"
    },
    {
      "constant": false,
      "inputs": [],
      "name": "terminateQualificationRoles",
      "outputs": [],
      "payable": false,
      "stateMutability": "nonpayable",
      "type": "function"
    },
    {
      "constant": false,
      "inputs": [
        {
          "internalType": "address",
          "name": "soldierAddress",
          "type": "address"
        }
      ],
      "name": "enlistSoldier",
      "outputs": [],
      "payable": false,
      "stateMutability": "nonpayable",
      "type": "function"
    },
    {
      "constant": false,
      "inputs": [
        {
          "internalType": "address",
          "name": "soldierAddress",
          "type": "address"
        }
      ],
      "name": "delistSoldier",
      "outputs": [],
      "payable": false,
      "stateMutability": "nonpayable",
      "type": "function"
    },
    {
      "constant": false,
      "inputs": [
        {
          "internalType": "address",
          "name": "soldierAddress",
          "type": "address"
        }
      ],
      "name": "issueWings",
      "outputs": [],
      "payable": false,
      "stateMutability": "nonpayable",
      "type": "function"
    },
    {
      "constant": false,
      "inputs": [
        {
          "internalType": "address",
          "name": "soldierAddress",
          "type": "address"
        }
      ],
      "name": "revokeWings",
      "outputs": [],
      "payable": false,
      "stateMutability": "nonpayable",
      "type": "function"
    },
    {
      "constant": false,
      "inputs": [
        {
          "internalType": "address",
          "name": "establishmentAddress",
          "type": "address"
        }
      ],
      "name": "identifyTrainingEstablishment",
      "outputs": [],
      "payable": false,
      "stateMutability": "nonpayable",
      "type": "function"
    },
    {
      "constant": false,
      "inputs": [
        {
          "internalType": "address",
          "name": "soldierAddress",
          "type": "address"
        }
      ],
      "name": "assignJumpMaster",
      "outputs": [],
      "payable": false,
      "stateMutability": "nonpayable",
      "type": "function"
    }
  ],
  "bytecode": "0x608060405260016005556100176100d760201b60201c565b6000806101000a81548173ffffffffffffffffffffffffffffffffffffffff021916908373ffffffffffffffffffffffffffffffffffffffff1602179055506000809054906101000a900473ffffffffffffffffffffffffffffffffffffffff1673ffffffffffffffffffffffffffffffffffffffff16600073ffffffffffffffffffffffffffffffffffffffff167f8be0079c531659141344cd1fd0a4f28419497f9722a3daafe3b4186f6b6457e060405160405180910390a36100df565b600033905090565b61267b806100ee6000396000f3fe608060405234801561001057600080fd5b50600436106101425760003560e01c80638f32d59b116100b8578063e078c69f1161007c578063e078c69f14610779578063e8cb3e5014610783578063f2937ca01461095a578063f2fde38b146109cf578063f611c26d14610a13578063f720f80b14610a6f57610142565b80638f32d59b146105e65780639ad4149b14610608578063b8f1f04514610664578063b909b68e146106a8578063d0fd51391461071d57610142565b8063534d87601161010a578063534d87601461029b578063715018a6146102df57806371584006146102e957806375c4f78714610345578063871c6c5f1461052e5780638da5cb5b1461059c57610142565b8063019f628d14610147578063211f19711461018b57806326400dae146101cf5780632de039e4146102135780634248189614610257575b600080fd5b6101896004803603602081101561015d57600080fd5b81019080803573ffffffffffffffffffffffffffffffffffffffff169060200190929190505050610acb565b005b6101cd600480360360208110156101a157600080fd5b81019080803573ffffffffffffffffffffffffffffffffffffffff169060200190929190505050610b92565b005b610211600480360360208110156101e557600080fd5b81019080803573ffffffffffffffffffffffffffffffffffffffff169060200190929190505050610d9c565b005b6102556004803603602081101561022957600080fd5b81019080803573ffffffffffffffffffffffffffffffffffffffff169060200190929190505050610f29565b005b6102996004803603602081101561026d57600080fd5b81019080803573ffffffffffffffffffffffffffffffffffffffff169060200190929190505050610faf565b005b6102dd600480360360208110156102b157600080fd5b81019080803573ffffffffffffffffffffffffffffffffffffffff1690602001909291905050506111fc565b005b6102e7611407565b005b61032b600480360360208110156102ff57600080fd5b81019080803573ffffffffffffffffffffffffffffffffffffffff169060200190929190505050611540565b604051808215151515815260200191505060405180910390f35b61052c6004803603606081101561035b57600080fd5b810190808035906020019064010000000081111561037857600080fd5b82018360208201111561038a57600080fd5b803590602001918460018302840111640100000000831117156103ac57600080fd5b91908080601f016020809104026020016040519081016040528093929190818152602001838380828437600081840152601f19601f8201169050808301925050505050505091929192908035906020019064010000000081111561040f57600080fd5b82018360208201111561042157600080fd5b8035906020019184600183028401116401000000008311171561044357600080fd5b91908080601f016020809104026020016040519081016040528093929190818152602001838380828437600081840152601f19601f820116905080830192505050505050509192919290803590602001906401000000008111156104a657600080fd5b8201836020820111156104b857600080fd5b803590602001918460018302840111640100000000831117156104da57600080fd5b91908080601f016020809104026020016040519081016040528093929190818152602001838380828437600081840152601f19601f820116905080830192505050505050509192919290505050611560565b005b61055a6004803603602081101561054457600080fd5b8101908080359060200190929190505050611570565b604051808273ffffffffffffffffffffffffffffffffffffffff1673ffffffffffffffffffffffffffffffffffffffff16815260200191505060405180910390f35b6105a46115a3565b604051808273ffffffffffffffffffffffffffffffffffffffff1673ffffffffffffffffffffffffffffffffffffffff16815260200191505060405180910390f35b6105ee6115cc565b604051808215151515815260200191505060405180910390f35b61064a6004803603602081101561061e57600080fd5b81019080803573ffffffffffffffffffffffffffffffffffffffff16906020019092919050505061162a565b604051808215151515815260200191505060405180910390f35b6106a66004803603602081101561067a57600080fd5b81019080803573ffffffffffffffffffffffffffffffffffffffff16906020019092919050505061164a565b005b6106d4600480360360208110156106be57600080fd5b81019080803590602001909291905050506117d0565b604051808381526020018273ffffffffffffffffffffffffffffffffffffffff1673ffffffffffffffffffffffffffffffffffffffff1681526020019250505060405180910390f35b61075f6004803603602081101561073357600080fd5b81019080803573ffffffffffffffffffffffffffffffffffffffff169060200190929190505050611821565b604051808215151515815260200191505060405180910390f35b610781611841565b005b6107af6004803603602081101561079957600080fd5b81019080803590602001909291905050506118d4565b6040518088815260200180602001806020018773ffffffffffffffffffffffffffffffffffffffff1673ffffffffffffffffffffffffffffffffffffffff1681526020018663ffffffff1663ffffffff168152602001851515151581526020018060200184810384528a818151815260200191508051906020019080838360005b8381101561084b578082015181840152602081019050610830565b50505050905090810190601f1680156108785780820380516001836020036101000a031916815260200191505b50848103835289818151815260200191508051906020019080838360005b838110156108b1578082015181840152602081019050610896565b50505050905090810190601f1680156108de5780820380516001836020036101000a031916815260200191505b50848103825285818151815260200191508051906020019080838360005b838110156109175780820151818401526020810190506108fc565b50505050905090810190601f1680156109445780820380516001836020036101000a031916815260200191505b509a505050505050505050505060405180910390f35b6109866004803603602081101561097057600080fd5b8101908080359060200190929190505050611b28565b604051808381526020018273ffffffffffffffffffffffffffffffffffffffff1673ffffffffffffffffffffffffffffffffffffffff1681526020019250505060405180910390f35b610a11600480360360208110156109e557600080fd5b81019080803573ffffffffffffffffffffffffffffffffffffffff169060200190929190505050611b79565b005b610a5560048036036020811015610a2957600080fd5b81019080803573ffffffffffffffffffffffffffffffffffffffff169060200190929190505050611bff565b604051808215151515815260200191505060405180910390f35b610ab160048036036020811015610a8557600080fd5b81019080803573ffffffffffffffffffffffffffffffffffffffff169060200190929190505050611c1f565b604051808215151515815260200191505060405180910390f35b610ad481611c3c565b6001600960008373ffffffffffffffffffffffffffffffffffffffff1673ffffffffffffffffffffffffffffffffffffffff16815260200190815260200160002060006101000a81548160ff0219169083151502179055507fa1a0746f9ed69d855127a249ef8f15c32fdf2cc3519b22856eaf0af91d16603c81604051808273ffffffffffffffffffffffffffffffffffffffff1673ffffffffffffffffffffffffffffffffffffffff16815260200191505060405180910390a150565b60011515600b60008373ffffffffffffffffffffffffffffffffffffffff1673ffffffffffffffffffffffffffffffffffffffff16815260200190815260200160002060009054906101000a900460ff16151514610c58576040517f08c379a00000000000000000000000000000000000000000000000000000000081526004018080602001828103825260138152602001807f446f6573204e6f7420486176652057696e67730000000000000000000000000081525060200191505060405180910390fd5b610c6c336003611c5390919063ffffffff16565b610cde576040517f08c379a000000000000000000000000000000000000000000000000000000000815260040180806020018281038252601b8152602001807f49735f4e6f745f415f547261696e696e675f417574686f72697479000000000081525060200191505060405180910390fd5b6000600b60008373ffffffffffffffffffffffffffffffffffffffff1673ffffffffffffffffffffffffffffffffffffffff16815260200190815260200160002060006101000a81548160ff0219169083151502179055507f073d303ee4b04133b0e4a05c979be4b83a7038e3b342c45ac388ca7ef63200f781604051808273ffffffffffffffffffffffffffffffffffffffff1673ffffffffffffffffffffffffffffffffffffffff16815260200191505060405180910390a150565b60011515600a60008373ffffffffffffffffffffffffffffffffffffffff1673ffffffffffffffffffffffffffffffffffffffff16815260200190815260200160002060009054906101000a900460ff16151514610e62576040517f08c379a00000000000000000000000000000000000000000000000000000000081526004018080602001828103825260108152602001807f416c72656164792044656c69737465640000000000000000000000000000000081525060200191505060405180910390fd5b610e6b81611d31565b6000600a60008373ffffffffffffffffffffffffffffffffffffffff1673ffffffffffffffffffffffffffffffffffffffff16815260200190815260200160002060006101000a81548160ff0219169083151502179055507f9d634a5e8fbd4f7a57bd5d54404e498fae6c54fa27c38ca4a0ab4071f0ca583c81604051808273ffffffffffffffffffffffffffffffffffffffff1673ffffffffffffffffffffffffffffffffffffffff16815260200191505060405180910390a150565b610f316115cc565b610fa3576040517f08c379a00000000000000000000000000000000000000000000000000000000081526004018080602001828103825260208152602001807f4f776e61626c653a2063616c6c6572206973206e6f7420746865206f776e657281525060200191505060405180910390fd5b610fac81611d48565b50565b60011515600a60008373ffffffffffffffffffffffffffffffffffffffff1673ffffffffffffffffffffffffffffffffffffffff16815260200190815260200160002060009054906101000a900460ff1615151415611076576040517f08c379a00000000000000000000000000000000000000000000000000000000081526004018080602001828103825260108152602001807f416c726561647920456e6c69737465640000000000000000000000000000000081525060200191505060405180910390fd5b60006007805490509050600760405180604001604052808381526020018473ffffffffffffffffffffffffffffffffffffffff16815250908060018154018082558091505090600182039060005260206000209060020201600090919290919091506000820151816000015560208201518160010160006101000a81548173ffffffffffffffffffffffffffffffffffffffff021916908373ffffffffffffffffffffffffffffffffffffffff16021790555050505061113582611d5f565b6001600a60008473ffffffffffffffffffffffffffffffffffffffff1673ffffffffffffffffffffffffffffffffffffffff16815260200190815260200160002060006101000a81548160ff0219169083151502179055507f81389e9105d6ae0460e43f1a1f9e998cd61e342737a59111c8fcfc33dc5473598183604051808381526020018273ffffffffffffffffffffffffffffffffffffffff1673ffffffffffffffffffffffffffffffffffffffff1681526020019250505060405180910390a15050565b60011515600b60008373ffffffffffffffffffffffffffffffffffffffff1673ffffffffffffffffffffffffffffffffffffffff16815260200190815260200160002060009054906101000a900460ff16151514156112c3576040517f08c379a00000000000000000000000000000000000000000000000000000000081526004018080602001828103825260198152602001807f416c7265616479204265656e204973737565642057696e67730000000000000081525060200191505060405180910390fd5b6112d7336002611c5390919063ffffffff16565b611349576040517f08c379a00000000000000000000000000000000000000000000000000000000081526004018080602001828103825260138152602001807f49735f4e6f745f415f4a756d704d61737465720000000000000000000000000081525060200191505060405180910390fd5b6001600b60008373ffffffffffffffffffffffffffffffffffffffff1673ffffffffffffffffffffffffffffffffffffffff16815260200190815260200160002060006101000a81548160ff0219169083151502179055507f5fc561c2e0519e656008f1066305fa69d1b40502149698df2c864296840a7a9081604051808273ffffffffffffffffffffffffffffffffffffffff1673ffffffffffffffffffffffffffffffffffffffff16815260200191505060405180910390a150565b61140f6115cc565b611481576040517f08c379a00000000000000000000000000000000000000000000000000000000081526004018080602001828103825260208152602001807f4f776e61626c653a2063616c6c6572206973206e6f7420746865206f776e657281525060200191505060405180910390fd5b600073ffffffffffffffffffffffffffffffffffffffff166000809054906101000a900473ffffffffffffffffffffffffffffffffffffffff1673ffffffffffffffffffffffffffffffffffffffff167f8be0079c531659141344cd1fd0a4f28419497f9722a3daafe3b4186f6b6457e060405160405180910390a360008060006101000a81548173ffffffffffffffffffffffffffffffffffffffff021916908373ffffffffffffffffffffffffffffffffffffffff160217905550565b600b6020528060005260406000206000915054906101000a900460ff1681565b61156b838383611d76565b505050565b600d6020528060005260406000206000915054906101000a900473ffffffffffffffffffffffffffffffffffffffff1681565b60008060009054906101000a900473ffffffffffffffffffffffffffffffffffffffff16905090565b60008060009054906101000a900473ffffffffffffffffffffffffffffffffffffffff1673ffffffffffffffffffffffffffffffffffffffff1661160e6121b5565b73ffffffffffffffffffffffffffffffffffffffff1614905090565b600c6020528060005260406000206000915054906101000a900460ff1681565b60006008805490509050600860405180604001604052808381526020018473ffffffffffffffffffffffffffffffffffffffff16815250908060018154018082558091505090600182039060005260206000209060020201600090919290919091506000820151816000015560208201518160010160006101000a81548173ffffffffffffffffffffffffffffffffffffffff021916908373ffffffffffffffffffffffffffffffffffffffff160217905550505050611709826121bd565b6001600c60008473ffffffffffffffffffffffffffffffffffffffff1673ffffffffffffffffffffffffffffffffffffffff16815260200190815260200160002060006101000a81548160ff0219169083151502179055507f2dc1e067bcf1c76590d0b48a8e0d1669dce372cb6d9d53506f2177dc7674b1888183604051808381526020018273ffffffffffffffffffffffffffffffffffffffff1673ffffffffffffffffffffffffffffffffffffffff1681526020019250505060405180910390a15050565b600781815481106117dd57fe5b90600052602060002090600202016000915090508060000154908060010160009054906101000a900473ffffffffffffffffffffffffffffffffffffffff16905082565b600a6020528060005260406000206000915054906101000a900460ff1681565b6118496115cc565b6118bb576040517f08c379a00000000000000000000000000000000000000000000000000000000081526004018080602001828103825260208152602001807f4f776e61626c653a2063616c6c6572206973206e6f7420746865206f776e657281525060200191505060405180910390fd5b3373ffffffffffffffffffffffffffffffffffffffff16ff5b600681815481106118e157fe5b9060005260206000209060050201600091509050806000015490806001018054600181600116156101000203166002900480601f0160208091040260200160405190810160405280929190818152602001828054600181600116156101000203166002900480156119935780601f1061196857610100808354040283529160200191611993565b820191906000526020600020905b81548152906001019060200180831161197657829003601f168201915b505050505090806002018054600181600116156101000203166002900480601f016020809104026020016040519081016040528092919081815260200182805460018160011615610100020316600290048015611a315780601f10611a0657610100808354040283529160200191611a31565b820191906000526020600020905b815481529060010190602001808311611a1457829003601f168201915b5050505050908060030160009054906101000a900473ffffffffffffffffffffffffffffffffffffffff16908060030160149054906101000a900463ffffffff16908060030160189054906101000a900460ff1690806004018054600181600116156101000203166002900480601f016020809104026020016040519081016040528092919081815260200182805460018160011615610100020316600290048015611b1e5780601f10611af357610100808354040283529160200191611b1e565b820191906000526020600020905b815481529060010190602001808311611b0157829003601f168201915b5050505050905087565b60088181548110611b3557fe5b90600052602060002090600202016000915090508060000154908060010160009054906101000a900473ffffffffffffffffffffffffffffffffffffffff16905082565b611b816115cc565b611bf3576040517f08c379a00000000000000000000000000000000000000000000000000000000081526004018080602001828103825260208152602001807f4f776e61626c653a2063616c6c6572206973206e6f7420746865206f776e657281525060200191505060405180910390fd5b611bfc816121d4565b50565b60096020528060005260406000206000915054906101000a900460ff1681565b6000611c35826004611c5390919063ffffffff16565b9050919050565b611c5081600261231890919063ffffffff16565b50565b60008073ffffffffffffffffffffffffffffffffffffffff168273ffffffffffffffffffffffffffffffffffffffff161415611cda576040517f08c379a00000000000000000000000000000000000000000000000000000000081526004018080602001828103825260228152602001806126256022913960400191505060405180910390fd5b8260000160008373ffffffffffffffffffffffffffffffffffffffff1673ffffffffffffffffffffffffffffffffffffffff16815260200190815260200160002060009054906101000a900460ff16905092915050565b611d458160016123f390919063ffffffff16565b50565b611d5c81600461231890919063ffffffff16565b50565b611d7381600161231890919063ffffffff16565b50565b60066040518060e0016040528060055481526020018581526020018481526020013373ffffffffffffffffffffffffffffffffffffffff1681526020014263ffffffff1681526020016001151581526020018381525090806001815401808255809150509060018203906000526020600020906005020160009091929091909150600082015181600001556020820151816001019080519060200190611e1d929190612538565b506040820151816002019080519060200190611e3a929190612538565b5060608201518160030160006101000a81548173ffffffffffffffffffffffffffffffffffffffff021916908373ffffffffffffffffffffffffffffffffffffffff16021790555060808201518160030160146101000a81548163ffffffff021916908363ffffffff16021790555060a08201518160030160186101000a81548160ff02191690831515021790555060c0820151816004019080519060200190611ee5929190612538565b5050505033600d6000600554815260200190815260200160002060006101000a81548173ffffffffffffffffffffffffffffffffffffffff021916908373ffffffffffffffffffffffffffffffffffffffff160217905550611f906001600e60003373ffffffffffffffffffffffffffffffffffffffff1673ffffffffffffffffffffffffffffffffffffffff168152602001908152602001600020546124b090919063ffffffff16565b600e60003373ffffffffffffffffffffffffffffffffffffffff1673ffffffffffffffffffffffffffffffffffffffff168152602001908152602001600020819055507f48c588947f4a56998435d33de791de0a516d28680940aae122762e8d257b7dea6005548484336001866040518087815260200180602001806020018673ffffffffffffffffffffffffffffffffffffffff1673ffffffffffffffffffffffffffffffffffffffff1681526020018515151515815260200180602001848103845289818151815260200191508051906020019080838360005b8381101561208757808201518184015260208101905061206c565b50505050905090810190601f1680156120b45780820380516001836020036101000a031916815260200191505b50848103835288818151815260200191508051906020019080838360005b838110156120ed5780820151818401526020810190506120d2565b50505050905090810190601f16801561211a5780820380516001836020036101000a031916815260200191505b50848103825285818151815260200191508051906020019080838360005b83811015612153578082015181840152602081019050612138565b50505050905090810190601f1680156121805780820380516001836020036101000a031916815260200191505b50995050505050505050505060405180910390a16121aa60016005546124b090919063ffffffff16565b600581905550505050565b600033905090565b6121d181600361231890919063ffffffff16565b50565b600073ffffffffffffffffffffffffffffffffffffffff168173ffffffffffffffffffffffffffffffffffffffff16141561225a576040517f08c379a00000000000000000000000000000000000000000000000000000000081526004018080602001828103825260268152602001806125de6026913960400191505060405180910390fd5b8073ffffffffffffffffffffffffffffffffffffffff166000809054906101000a900473ffffffffffffffffffffffffffffffffffffffff1673ffffffffffffffffffffffffffffffffffffffff167f8be0079c531659141344cd1fd0a4f28419497f9722a3daafe3b4186f6b6457e060405160405180910390a3806000806101000a81548173ffffffffffffffffffffffffffffffffffffffff021916908373ffffffffffffffffffffffffffffffffffffffff16021790555050565b6123228282611c53565b15612395576040517f08c379a000000000000000000000000000000000000000000000000000000000815260040180806020018281038252601f8152602001807f526f6c65733a206163636f756e7420616c72656164792068617320726f6c650081525060200191505060405180910390fd5b60018260000160008373ffffffffffffffffffffffffffffffffffffffff1673ffffffffffffffffffffffffffffffffffffffff16815260200190815260200160002060006101000a81548160ff0219169083151502179055505050565b6123fd8282611c53565b612452576040517f08c379a00000000000000000000000000000000000000000000000000000000081526004018080602001828103825260218152602001806126046021913960400191505060405180910390fd5b60008260000160008373ffffffffffffffffffffffffffffffffffffffff1673ffffffffffffffffffffffffffffffffffffffff16815260200190815260200160002060006101000a81548160ff0219169083151502179055505050565b60008082840190508381101561252e576040517f08c379a000000000000000000000000000000000000000000000000000000000815260040180806020018281038252601b8152602001807f536166654d6174683a206164646974696f6e206f766572666c6f77000000000081525060200191505060405180910390fd5b8091505092915050565b828054600181600116156101000203166002900490600052602060002090601f016020900481019282601f1061257957805160ff19168380011785556125a7565b828001600101855582156125a7579182015b828111156125a657825182559160200191906001019061258b565b5b5090506125b491906125b8565b5090565b6125da91905b808211156125d65760008160009055506001016125be565b5090565b9056fe4f776e61626c653a206e6577206f776e657220697320746865207a65726f2061646472657373526f6c65733a206163636f756e7420646f6573206e6f74206861766520726f6c65526f6c65733a206163636f756e7420697320746865207a65726f2061646472657373a265627a7a72315820af0d304c73f25a886b638567a93b0096efe970c273ee2fcca2cd1300caee5e4264736f6c634300050c0032",
  "source": "pragma solidity ^0.5.0;\n\nimport \"@openzeppelin/contracts/ownership/Ownable.sol\";\nimport \"@openzeppelin/contracts/math/SafeMath.sol\";\nimport \"@openzeppelin/contracts/access/Roles.sol\";\nimport \"./helpers/safemath.sol\";\n\ncontract QualificationFactory is Ownable {\n\n    using Roles for Roles.Role;\n    using SafeMath for uint256;\n    using SafeMath32 for uint32;\n    using SafeMath16 for uint16;\n\n    Roles.Role private _soldier;\n    Roles.Role private _jumpMaster;\n    Roles.Role private _trainingEstablishment;\n    Roles.Role private _master;\n  \n    // Events\n    event SoldierEnlisted(uint soldierId, address soldierAddress);\n    event SoldierDelisted(address soldierAddress);\n    event JumpMasterAuthorized(address soldierAddress);\n    event TrainingEstablishmentIdentified(uint establishmentId, address establishmentAddress);\n    event WingsIssued(address soldierAddress);\n    event WingsRevoked(address soldierAddress);\n    event NewQualificationCreated(\n        uint qualificationId,\n        string qualificationName,\n        string qualificationCode,\n        address trgEstablishment,\n        bool qualStatus,\n        string imageFileName);\n    \n  struct Soldier {\n      uint soldierId;\n      address soldierAddress;\n  }\n\n  struct TrainingEstablishment {\n      uint establishmentId;\n      address establishmentAddress;\n  }\n  \n  struct Qualification {\n    uint id;\n    string name;\n    string qualCode;\n    address trgEstablishment;\n    uint32 created;\n    bool qualStatus;\n    string imageFileName;\n  }\n\n  uint nextId = 1;\n\n  Qualification[] public qualifications;\n  Soldier[] public soldiers;\n  TrainingEstablishment[] public trainingEstablishments;\n\n  mapping(address=>bool) public jumpMaster;\n  mapping(address=>bool) public enlisted;\n  mapping(address=>bool) public wings;\n  mapping(address=>bool) public trainingEstablishment;\n\n  mapping (uint => address) public qualificationToTrgEstablishment;\n  mapping (address => uint) trgEstablishmentQualificationCount;\n\n  function _createQualification(\n      string memory _name,\n      string memory _qualCode,\n      string memory _imageFileName\n      ) internal {\n    qualifications.push(Qualification(nextId, _name, _qualCode, msg.sender, uint32(now), true, _imageFileName));\n    qualificationToTrgEstablishment[nextId] = msg.sender;\n    trgEstablishmentQualificationCount[msg.sender] = trgEstablishmentQualificationCount[msg.sender].add(1);\n    emit NewQualificationCreated(nextId, _name, _qualCode, msg.sender, true, _imageFileName);\n    nextId = nextId.add(1);\n  }\n\n  function createQualification(\n      string memory _name,\n      string memory _qualCode,\n      string memory _imageFileName\n  ) public {\n   // require(_master.has(msg.sender), \"DOES_NOT_HAVE_TRAINING_ESTABLISHMENT_OR_MASTER_ROLE\");\n    _createQualification(_name, _qualCode, _imageFileName);\n  }\n\n    function assignMasterRole(address _masterAddress) public onlyOwner {\n        _assignMasterRole(_masterAddress);\n    }\n\n    function isMaster(address account) public view returns (bool) {\n        return _master.has(account);\n    }\n\n\n     // kill the contract\n    function terminateQualificationRoles() public onlyOwner {\n        selfdestruct(msg.sender);\n    }\n\n     // Enlist Soldier\n    function enlistSoldier(address soldierAddress) public {\n        require(enlisted[soldierAddress] != true, \"Already Enlisted\");\n        uint256 soldierId = soldiers.length; // generates unique soldierId\n        soldiers.push(Soldier(soldierId, soldierAddress));\n        _assignSoldierRole(soldierAddress);\n        enlisted[soldierAddress] = true;\n        emit SoldierEnlisted(soldierId, soldierAddress);\n    }\n\n    // Delist Soldier\n    function delistSoldier(address soldierAddress) public {\n        require(enlisted[soldierAddress] == true, \"Already Delisted\");\n        _removeSoldierRole(soldierAddress);\n        enlisted[soldierAddress] = false;\n        emit SoldierDelisted(soldierAddress);\n    }\n\n    function issueWings(address soldierAddress) public {\n        require(wings[soldierAddress] != true, 'Already Been Issued Wings');\n        require(_jumpMaster.has(msg.sender), \"Is_Not_A_JumpMaster\");\n        wings[soldierAddress] = true;\n        emit WingsIssued(soldierAddress);\n    }\n\n    function revokeWings(address soldierAddress) public {\n        require(wings[soldierAddress] == true, 'Does Not Have Wings');\n        require(_trainingEstablishment.has(msg.sender), \"Is_Not_A_Training_Authority\");\n        wings[soldierAddress] = false;\n        emit WingsRevoked(soldierAddress);\n    }\n\n    // Identify Training Establisment\n    function identifyTrainingEstablishment(address establishmentAddress) public {\n     //   require((!_master.has(msg.sender)), \"DOES_NOT_HAVE_MASTER_ROLE\");\n        uint256 establishmentId = trainingEstablishments.length; // generates unique establishmentId\n        trainingEstablishments.push(TrainingEstablishment(establishmentId, establishmentAddress));\n        _assignTrainingEstablishmentRole(establishmentAddress);\n        trainingEstablishment[establishmentAddress] = true;\n        emit TrainingEstablishmentIdentified(establishmentId, establishmentAddress);\n    }\n\n    function assignJumpMaster(address soldierAddress) public {\n     //   require((!_trainingEstablishment.has(msg.sender)), \"DOES_NOT_HAVE_TRAINING_ESTABLISHMENT_ROLE\");\n        _assignJumpMasterRole(soldierAddress);\n        jumpMaster[soldierAddress] = true;\n        emit JumpMasterAuthorized(soldierAddress);\n    }\n\n    // Roles Setup\n    \n\n    function _assignMasterRole(address masterAddress) internal {\n        _master.add(masterAddress);\n    }\n    \n    function _assignSoldierRole(address soldierAddress) internal {\n                _soldier.add(soldierAddress);\n    }\n\n    function _removeSoldierRole(address soldierAddress) internal {\n                _soldier.remove(soldierAddress);\n    }\n\n    // assign training establishment role\n    function _assignTrainingEstablishmentRole(address establishmentAddress) internal {\n                _trainingEstablishment.add(establishmentAddress);\n    }\n\n    function _removeTrainingEstablishmentRole(address establishmentAddress) internal {\n                _trainingEstablishment.remove(establishmentAddress);\n    }\n\n    // assign jump master role\n    function _assignJumpMasterRole(address soldierAddress) internal {\n                _jumpMaster.add(soldierAddress);\n    }\n\n    function _removeJumpMasterRole(address soldierAddress) internal {\n                _jumpMaster.remove(soldierAddress);\n    }\n}",
  "sourcePath": "/home/vitalpointai/projects/qualification-coin/src/contracts/QualificationFactory.sol",
  "compiler": {
    "name": "solc",
    "version": "0.5.12+commit.7709ece9.Emscripten.clang"
  },
  "schemaVersion": "3.0.19",
  "updatedAt": "2020-01-02T22:36:49.318Z",
  "networkType": "ethereum",
  "devdoc": {
    "methods": {
      "isOwner()": {
        "details": "Returns true if the caller is the current owner."
      },
      "owner()": {
        "details": "Returns the address of the current owner."
      },
      "renounceOwnership()": {
        "details": "Leaves the contract without owner. It will not be possible to call `onlyOwner` functions anymore. Can only be called by the current owner.     * NOTE: Renouncing ownership will leave the contract without an owner, thereby removing any functionality that is only available to the owner."
      },
      "transferOwnership(address)": {
        "details": "Transfers ownership of the contract to a new account (`newOwner`). Can only be called by the current owner."
      }
    }
  },
  "userdoc": {
    "methods": {}
  }
}