{
  "contractName": "QualificationHelper",
  "abi": [
    {
      "anonymous": false,
      "inputs": [
        {
          "indexed": false,
          "internalType": "uint256",
          "name": "qualificationId",
          "type": "uint256"
        },
        {
          "indexed": false,
          "internalType": "string",
          "name": "qualificationName",
          "type": "string"
        },
        {
          "indexed": false,
          "internalType": "string",
          "name": "qualificationCode",
          "type": "string"
        },
        {
          "indexed": false,
          "internalType": "address",
          "name": "trgEstablishment",
          "type": "address"
        },
        {
          "indexed": false,
          "internalType": "enum QualificationFactory.Category",
          "name": "category",
          "type": "uint8"
        },
        {
          "indexed": false,
          "internalType": "uint32",
          "name": "expiryDays",
          "type": "uint32"
        },
        {
          "indexed": false,
          "internalType": "bool",
          "name": "qualStatus",
          "type": "bool"
        }
      ],
      "name": "NewQualificationCreated",
      "type": "event"
    },
    {
      "anonymous": false,
      "inputs": [
        {
          "indexed": true,
          "internalType": "address",
          "name": "previousOwner",
          "type": "address"
        },
        {
          "indexed": true,
          "internalType": "address",
          "name": "newOwner",
          "type": "address"
        }
      ],
      "name": "OwnershipTransferred",
      "type": "event"
    },
    {
      "constant": false,
      "inputs": [
        {
          "internalType": "string",
          "name": "_name",
          "type": "string"
        },
        {
          "internalType": "string",
          "name": "_qualCode",
          "type": "string"
        },
        {
          "internalType": "enum QualificationFactory.Category",
          "name": "_category",
          "type": "uint8"
        },
        {
          "internalType": "uint32",
          "name": "_expiryDays",
          "type": "uint32"
        }
      ],
      "name": "createQualification",
      "outputs": [],
      "payable": false,
      "stateMutability": "nonpayable",
      "type": "function"
    },
    {
      "constant": true,
      "inputs": [],
      "name": "isOwner",
      "outputs": [
        {
          "internalType": "bool",
          "name": "",
          "type": "bool"
        }
      ],
      "payable": false,
      "stateMutability": "view",
      "type": "function"
    },
    {
      "constant": true,
      "inputs": [],
      "name": "owner",
      "outputs": [
        {
          "internalType": "address",
          "name": "",
          "type": "address"
        }
      ],
      "payable": false,
      "stateMutability": "view",
      "type": "function"
    },
    {
      "constant": true,
      "inputs": [
        {
          "internalType": "uint256",
          "name": "",
          "type": "uint256"
        }
      ],
      "name": "qualificationToTrgEstablishment",
      "outputs": [
        {
          "internalType": "address",
          "name": "",
          "type": "address"
        }
      ],
      "payable": false,
      "stateMutability": "view",
      "type": "function"
    },
    {
      "constant": true,
      "inputs": [
        {
          "internalType": "uint256",
          "name": "",
          "type": "uint256"
        }
      ],
      "name": "qualifications",
      "outputs": [
        {
          "internalType": "uint256",
          "name": "id",
          "type": "uint256"
        },
        {
          "internalType": "string",
          "name": "name",
          "type": "string"
        },
        {
          "internalType": "string",
          "name": "qualCode",
          "type": "string"
        },
        {
          "internalType": "address",
          "name": "trgEstablishment",
          "type": "address"
        },
        {
          "internalType": "enum QualificationFactory.Category",
          "name": "category",
          "type": "uint8"
        },
        {
          "internalType": "uint32",
          "name": "expiryDays",
          "type": "uint32"
        },
        {
          "internalType": "uint32",
          "name": "created",
          "type": "uint32"
        },
        {
          "internalType": "bool",
          "name": "qualStatus",
          "type": "bool"
        }
      ],
      "payable": false,
      "stateMutability": "view",
      "type": "function"
    },
    {
      "constant": false,
      "inputs": [],
      "name": "renounceOwnership",
      "outputs": [],
      "payable": false,
      "stateMutability": "nonpayable",
      "type": "function"
    },
    {
      "constant": false,
      "inputs": [
        {
          "internalType": "address",
          "name": "newOwner",
          "type": "address"
        }
      ],
      "name": "transferOwnership",
      "outputs": [],
      "payable": false,
      "stateMutability": "nonpayable",
      "type": "function"
    },
    {
      "constant": false,
      "inputs": [
        {
          "internalType": "uint256",
          "name": "_qualificationId",
          "type": "uint256"
        },
        {
          "internalType": "string",
          "name": "_newQualificationName",
          "type": "string"
        }
      ],
      "name": "changeQualificationName",
      "outputs": [],
      "payable": false,
      "stateMutability": "nonpayable",
      "type": "function"
    },
    {
      "constant": false,
      "inputs": [
        {
          "internalType": "uint256",
          "name": "_qualificationId",
          "type": "uint256"
        },
        {
          "internalType": "string",
          "name": "_newQualificationCode",
          "type": "string"
        }
      ],
      "name": "changeQualificationCode",
      "outputs": [],
      "payable": false,
      "stateMutability": "nonpayable",
      "type": "function"
    },
    {
      "constant": false,
      "inputs": [
        {
          "internalType": "uint256",
          "name": "_qualificationId",
          "type": "uint256"
        },
        {
          "internalType": "enum QualificationFactory.Category",
          "name": "_newQualificationCategory",
          "type": "uint8"
        }
      ],
      "name": "changeQualificationCategory",
      "outputs": [],
      "payable": false,
      "stateMutability": "nonpayable",
      "type": "function"
    },
    {
      "constant": false,
      "inputs": [
        {
          "internalType": "uint256",
          "name": "_qualificationId",
          "type": "uint256"
        },
        {
          "internalType": "uint32",
          "name": "_newQualificationExpiry",
          "type": "uint32"
        }
      ],
      "name": "changeQualificationExpiry",
      "outputs": [],
      "payable": false,
      "stateMutability": "nonpayable",
      "type": "function"
    },
    {
      "constant": false,
      "inputs": [
        {
          "internalType": "uint256",
          "name": "_qualificationId",
          "type": "uint256"
        }
      ],
      "name": "changeQualificationStatus",
      "outputs": [],
      "payable": false,
      "stateMutability": "nonpayable",
      "type": "function"
    },
    {
      "constant": true,
      "inputs": [
        {
          "internalType": "address",
          "name": "_owner",
          "type": "address"
        }
      ],
      "name": "getQualificationsByTrgEstablishment",
      "outputs": [
        {
          "internalType": "uint256[]",
          "name": "",
          "type": "uint256[]"
        }
      ],
      "payable": false,
      "stateMutability": "view",
      "type": "function"
    }
  ],
  "bytecode": "0x6080604052600180556100166100d660201b60201c565b6000806101000a81548173ffffffffffffffffffffffffffffffffffffffff021916908373ffffffffffffffffffffffffffffffffffffffff1602179055506000809054906101000a900473ffffffffffffffffffffffffffffffffffffffff1673ffffffffffffffffffffffffffffffffffffffff16600073ffffffffffffffffffffffffffffffffffffffff167f8be0079c531659141344cd1fd0a4f28419497f9722a3daafe3b4186f6b6457e060405160405180910390a36100de565b600033905090565b611ee3806100ed6000396000f3fe608060405234801561001057600080fd5b50600436106100cf5760003560e01c80638da5cb5b1161008c578063bb75390411610066578063bb753904146104ac578063e8cb3e50146104ea578063e93001a01461067d578063f2fde38b14610700576100cf565b80638da5cb5b146102d15780638f32d59b1461031b578063931331b81461033d576100cf565b806316addad0146100d45780632baeca841461016d57806348ef3744146101a8578063715018a61461022b57806382efe17114610235578063871c6c5f14610263575b600080fd5b610116600480360360208110156100ea57600080fd5b81019080803573ffffffffffffffffffffffffffffffffffffffff169060200190929190505050610744565b6040518080602001828103825283818151815260200191508051906020019060200280838360005b8381101561015957808201518184015260208101905061013e565b505050509050019250505060405180910390f35b6101a66004803603604081101561018357600080fd5b8101908080359060200190929190803560ff169060200190929190505050610871565b005b610229600480360360408110156101be57600080fd5b8101908080359060200190929190803590602001906401000000008111156101e557600080fd5b8201836020820111156101f757600080fd5b8035906020019184600183028401116401000000008311171561021957600080fd5b909192939192939050505061098a565b005b610233610bba565b005b6102616004803603602081101561024b57600080fd5b8101908080359060200190929190505050610cf3565b005b61028f6004803603602081101561027957600080fd5b8101908080359060200190929190505050610e2e565b604051808273ffffffffffffffffffffffffffffffffffffffff1673ffffffffffffffffffffffffffffffffffffffff16815260200191505060405180910390f35b6102d9610e61565b604051808273ffffffffffffffffffffffffffffffffffffffff1673ffffffffffffffffffffffffffffffffffffffff16815260200191505060405180910390f35b610323610e8a565b604051808215151515815260200191505060405180910390f35b6104aa6004803603608081101561035357600080fd5b810190808035906020019064010000000081111561037057600080fd5b82018360208201111561038257600080fd5b803590602001918460018302840111640100000000831117156103a457600080fd5b91908080601f016020809104026020016040519081016040528093929190818152602001838380828437600081840152601f19601f8201169050808301925050505050505091929192908035906020019064010000000081111561040757600080fd5b82018360208201111561041957600080fd5b8035906020019184600183028401116401000000008311171561043b57600080fd5b91908080601f016020809104026020016040519081016040528093929190818152602001838380828437600081840152601f19601f820116905080830192505050505050509192919290803560ff169060200190929190803563ffffffff169060200190929190505050610ee8565b005b6104e8600480360360408110156104c257600080fd5b8101908080359060200190929190803563ffffffff169060200190929190505050610efa565b005b6105166004803603602081101561050057600080fd5b8101908080359060200190929190505050611011565b6040518089815260200180602001806020018873ffffffffffffffffffffffffffffffffffffffff1673ffffffffffffffffffffffffffffffffffffffff16815260200187600081111561056657fe5b60ff1681526020018663ffffffff1663ffffffff1681526020018563ffffffff1663ffffffff1681526020018415151515815260200183810383528a818151815260200191508051906020019080838360005b838110156105d45780820151818401526020810190506105b9565b50505050905090810190601f1680156106015780820380516001836020036101000a031916815260200191505b50838103825289818151815260200191508051906020019080838360005b8381101561063a57808201518184015260208101905061061f565b50505050905090810190601f1680156106675780820380516001836020036101000a031916815260200191505b509a505050505050505050505060405180910390f35b6106fe6004803603604081101561069357600080fd5b8101908080359060200190929190803590602001906401000000008111156106ba57600080fd5b8201836020820111156106cc57600080fd5b803590602001918460018302840111640100000000831117156106ee57600080fd5b90919293919293905050506111f0565b005b6107426004803603602081101561071657600080fd5b81019080803573ffffffffffffffffffffffffffffffffffffffff169060200190929190505050611420565b005b606080600460008473ffffffffffffffffffffffffffffffffffffffff1673ffffffffffffffffffffffffffffffffffffffff168152602001908152602001600020546040519080825280602002602001820160405280156107b55781602001602082028038833980820191505090505b509050600080905060008090505b600280549050811015610866578473ffffffffffffffffffffffffffffffffffffffff166003600083815260200190815260200160002060009054906101000a900473ffffffffffffffffffffffffffffffffffffffff1673ffffffffffffffffffffffffffffffffffffffff161415610859578083838151811061084457fe5b60200260200101818152505081806001019250505b80806001019150506107c3565b508192505050919050565b816003600082815260200190815260200160002060009054906101000a900473ffffffffffffffffffffffffffffffffffffffff1673ffffffffffffffffffffffffffffffffffffffff163373ffffffffffffffffffffffffffffffffffffffff1614610946576040517f08c379a000000000000000000000000000000000000000000000000000000000815260040180806020018281038252601a8152602001807f646f6573206e6f74206f776e207175616c696669636174696f6e00000000000081525060200191505060405180910390fd5b816002848154811061095457fe5b906000526020600020906004020160030160146101000a81548160ff0219169083600081111561098057fe5b0217905550505050565b826003600082815260200190815260200160002060009054906101000a900473ffffffffffffffffffffffffffffffffffffffff1673ffffffffffffffffffffffffffffffffffffffff163373ffffffffffffffffffffffffffffffffffffffff1614610a5f576040517f08c379a000000000000000000000000000000000000000000000000000000000815260040180806020018281038252601a8152602001807f646f6573206e6f74206f776e207175616c696669636174696f6e00000000000081525060200191505060405180910390fd5b6000600560028681548110610a7057fe5b90600052602060002090600402016002016040518082805460018160011615610100020316600290048015610adc5780601f10610aba576101008083540402835291820191610adc565b820191906000526020600020905b815481529060010190602001808311610ac8575b5050915050908152602001604051809103902081905550828260028681548110610b0257fe5b90600052602060002090600402016002019190610b20929190611d42565b5083600560028681548110610b3157fe5b90600052602060002090600402016002016040518082805460018160011615610100020316600290048015610b9d5780601f10610b7b576101008083540402835291820191610b9d565b820191906000526020600020905b815481529060010190602001808311610b89575b505091505090815260200160405180910390208190555050505050565b610bc2610e8a565b610c34576040517f08c379a00000000000000000000000000000000000000000000000000000000081526004018080602001828103825260208152602001807f4f776e61626c653a2063616c6c6572206973206e6f7420746865206f776e657281525060200191505060405180910390fd5b600073ffffffffffffffffffffffffffffffffffffffff166000809054906101000a900473ffffffffffffffffffffffffffffffffffffffff1673ffffffffffffffffffffffffffffffffffffffff167f8be0079c531659141344cd1fd0a4f28419497f9722a3daafe3b4186f6b6457e060405160405180910390a360008060006101000a81548173ffffffffffffffffffffffffffffffffffffffff021916908373ffffffffffffffffffffffffffffffffffffffff160217905550565b806003600082815260200190815260200160002060009054906101000a900473ffffffffffffffffffffffffffffffffffffffff1673ffffffffffffffffffffffffffffffffffffffff163373ffffffffffffffffffffffffffffffffffffffff1614610dc8576040517f08c379a000000000000000000000000000000000000000000000000000000000815260040180806020018281038252601a8152602001807f646f6573206e6f74206f776e207175616c696669636174696f6e00000000000081525060200191505060405180910390fd5b60028281548110610dd557fe5b9060005260206000209060040201600301601d9054906101000a900460ff161560028381548110610e0257fe5b9060005260206000209060040201600301601d6101000a81548160ff0219169083151502179055505050565b60036020528060005260406000206000915054906101000a900473ffffffffffffffffffffffffffffffffffffffff1681565b60008060009054906101000a900473ffffffffffffffffffffffffffffffffffffffff16905090565b60008060009054906101000a900473ffffffffffffffffffffffffffffffffffffffff1673ffffffffffffffffffffffffffffffffffffffff16610ecc6114a6565b73ffffffffffffffffffffffffffffffffffffffff1614905090565b610ef4848484846114ae565b50505050565b816003600082815260200190815260200160002060009054906101000a900473ffffffffffffffffffffffffffffffffffffffff1673ffffffffffffffffffffffffffffffffffffffff163373ffffffffffffffffffffffffffffffffffffffff1614610fcf576040517f08c379a000000000000000000000000000000000000000000000000000000000815260040180806020018281038252601a8152602001807f646f6573206e6f74206f776e207175616c696669636174696f6e00000000000081525060200191505060405180910390fd5b8160028481548110610fdd57fe5b906000526020600020906004020160030160156101000a81548163ffffffff021916908363ffffffff160217905550505050565b6002818154811061101e57fe5b9060005260206000209060040201600091509050806000015490806001018054600181600116156101000203166002900480601f0160208091040260200160405190810160405280929190818152602001828054600181600116156101000203166002900480156110d05780601f106110a5576101008083540402835291602001916110d0565b820191906000526020600020905b8154815290600101906020018083116110b357829003601f168201915b505050505090806002018054600181600116156101000203166002900480601f01602080910402602001604051908101604052809291908181526020018280546001816001161561010002031660029004801561116e5780601f106111435761010080835404028352916020019161116e565b820191906000526020600020905b81548152906001019060200180831161115157829003601f168201915b5050505050908060030160009054906101000a900473ffffffffffffffffffffffffffffffffffffffff16908060030160149054906101000a900460ff16908060030160159054906101000a900463ffffffff16908060030160199054906101000a900463ffffffff169080600301601d9054906101000a900460ff16905088565b826003600082815260200190815260200160002060009054906101000a900473ffffffffffffffffffffffffffffffffffffffff1673ffffffffffffffffffffffffffffffffffffffff163373ffffffffffffffffffffffffffffffffffffffff16146112c5576040517f08c379a000000000000000000000000000000000000000000000000000000000815260040180806020018281038252601a8152602001807f646f6573206e6f74206f776e207175616c696669636174696f6e00000000000081525060200191505060405180910390fd5b60006006600286815481106112d657fe5b906000526020600020906004020160010160405180828054600181600116156101000203166002900480156113425780601f10611320576101008083540402835291820191611342565b820191906000526020600020905b81548152906001019060200180831161132e575b505091505090815260200160405180910390208190555082826002868154811061136857fe5b90600052602060002090600402016001019190611386929190611d42565b508360066002868154811061139757fe5b906000526020600020906004020160010160405180828054600181600116156101000203166002900480156114035780601f106113e1576101008083540402835291820191611403565b820191906000526020600020905b8154815290600101906020018083116113ef575b505091505090815260200160405180910390208190555050505050565b611428610e8a565b61149a576040517f08c379a00000000000000000000000000000000000000000000000000000000081526004018080602001828103825260208152602001807f4f776e61626c653a2063616c6c6572206973206e6f7420746865206f776e657281525060200191505060405180910390fd5b6114a381611b76565b50565b600033905090565b60006005846040518082805190602001908083835b602083106114e657805182526020820191506020810190506020830392506114c3565b6001836020036101000a03801982511681845116808217855250505050505090500191505090815260200160405180910390205414611570576040517f08c379a0000000000000000000000000000000000000000000000000000000008152600401808060200182810382526021815260200180611e8e6021913960400191505060405180910390fd5b60006006856040518082805190602001908083835b602083106115a85780518252602082019150602081019050602083039250611585565b6001836020036101000a0380198251168184511680821785525050505050509050019150509081526020016040518091039020541461164f576040517f08c379a00000000000000000000000000000000000000000000000000000000081526004018080602001828103825260138152602001807f6e616d6520616c7265616479206578697374730000000000000000000000000081525060200191505060405180910390fd5b600260405180610100016040528060015481526020018681526020018581526020013373ffffffffffffffffffffffffffffffffffffffff16815260200184600081111561169957fe5b81526020018363ffffffff1681526020014263ffffffff168152602001600115158152509080600181540180825580915050906001820390600052602060002090600402016000909192909190915060008201518160000155602082015181600101908051906020019061170e929190611dc2565b50604082015181600201908051906020019061172b929190611dc2565b5060608201518160030160006101000a81548173ffffffffffffffffffffffffffffffffffffffff021916908373ffffffffffffffffffffffffffffffffffffffff16021790555060808201518160030160146101000a81548160ff0219169083600081111561179757fe5b021790555060a08201518160030160156101000a81548163ffffffff021916908363ffffffff16021790555060c08201518160030160196101000a81548163ffffffff021916908363ffffffff16021790555060e082015181600301601d6101000a81548160ff0219169083151502179055505050506001546005846040518082805190602001908083835b602083106118465780518252602082019150602081019050602083039250611823565b6001836020036101000a0380198251168184511680821785525050505050509050019150509081526020016040518091039020819055506001546006856040518082805190602001908083835b602083106118b65780518252602082019150602081019050602083039250611893565b6001836020036101000a0380198251168184511680821785525050505050509050019150509081526020016040518091039020819055503360036000600154815260200190815260200160002060006101000a81548173ffffffffffffffffffffffffffffffffffffffff021916908373ffffffffffffffffffffffffffffffffffffffff1602179055506119946001600460003373ffffffffffffffffffffffffffffffffffffffff1673ffffffffffffffffffffffffffffffffffffffff16815260200190815260200160002054611cba90919063ffffffff16565b600460003373ffffffffffffffffffffffffffffffffffffffff1673ffffffffffffffffffffffffffffffffffffffff168152602001908152602001600020819055507f39de3ec7c1120e10274ac1011d7a3b257bc6421ae427d78bac363712fb9d4e13600154858533868660016040518088815260200180602001806020018773ffffffffffffffffffffffffffffffffffffffff1673ffffffffffffffffffffffffffffffffffffffff168152602001866000811115611a5257fe5b60ff1681526020018563ffffffff1663ffffffff16815260200184151515158152602001838103835289818151815260200191508051906020019080838360005b83811015611aae578082015181840152602081019050611a93565b50505050905090810190601f168015611adb5780820380516001836020036101000a031916815260200191505b50838103825288818151815260200191508051906020019080838360005b83811015611b14578082015181840152602081019050611af9565b50505050905090810190601f168015611b415780820380516001836020036101000a031916815260200191505b50995050505050505050505060405180910390a1611b6a60018054611cba90919063ffffffff16565b60018190555050505050565b600073ffffffffffffffffffffffffffffffffffffffff168173ffffffffffffffffffffffffffffffffffffffff161415611bfc576040517f08c379a0000000000000000000000000000000000000000000000000000000008152600401808060200182810382526026815260200180611e686026913960400191505060405180910390fd5b8073ffffffffffffffffffffffffffffffffffffffff166000809054906101000a900473ffffffffffffffffffffffffffffffffffffffff1673ffffffffffffffffffffffffffffffffffffffff167f8be0079c531659141344cd1fd0a4f28419497f9722a3daafe3b4186f6b6457e060405160405180910390a3806000806101000a81548173ffffffffffffffffffffffffffffffffffffffff021916908373ffffffffffffffffffffffffffffffffffffffff16021790555050565b600080828401905083811015611d38576040517f08c379a000000000000000000000000000000000000000000000000000000000815260040180806020018281038252601b8152602001807f536166654d6174683a206164646974696f6e206f766572666c6f77000000000081525060200191505060405180910390fd5b8091505092915050565b828054600181600116156101000203166002900490600052602060002090601f016020900481019282601f10611d8357803560ff1916838001178555611db1565b82800160010185558215611db1579182015b82811115611db0578235825591602001919060010190611d95565b5b509050611dbe9190611e42565b5090565b828054600181600116156101000203166002900490600052602060002090601f016020900481019282601f10611e0357805160ff1916838001178555611e31565b82800160010185558215611e31579182015b82811115611e30578251825591602001919060010190611e15565b5b509050611e3e9190611e42565b5090565b611e6491905b80821115611e60576000816000905550600101611e48565b5090565b9056fe4f776e61626c653a206e6577206f776e657220697320746865207a65726f20616464726573737175616c696669636174696f6e20636f646520616c726561647920657869737473a265627a7a72315820a6c418298cca34c9a593a48578ae6da1e9e1abd84680d402930aca037a9cc2e064736f6c634300050c0032",
  "source": "pragma solidity >=0.5.0 <0.6.0;\n\nimport \"./QualificationFactory.sol\";\n\ncontract QualificationHelper is QualificationFactory {\n\n  modifier onlyOwnerOf(uint _qualificationId) {\n    require(msg.sender == qualificationToTrgEstablishment[_qualificationId], \"does not own qualification\");\n    _;\n  }\n\n  function changeQualificationName(uint _qualificationId, string calldata _newQualificationName) external onlyOwnerOf(_qualificationId) {\n    nameToQualId[qualifications[_qualificationId].name] = 0;\n    qualifications[_qualificationId].name = _newQualificationName;\n    nameToQualId[qualifications[_qualificationId].name] = _qualificationId;\n    \n  }\n\n  function changeQualificationCode(uint _qualificationId, string calldata _newQualificationCode) external onlyOwnerOf(_qualificationId) {\n    codeToQualId[qualifications[_qualificationId].qualCode] = 0;\n    qualifications[_qualificationId].qualCode = _newQualificationCode;\n    codeToQualId[qualifications[_qualificationId].qualCode] = _qualificationId;\n  }\n\n  function changeQualificationCategory(uint _qualificationId, Category _newQualificationCategory) external onlyOwnerOf(_qualificationId) {\n    qualifications[_qualificationId].category = _newQualificationCategory;\n  }\n\n  function changeQualificationExpiry(uint _qualificationId, uint32 _newQualificationExpiry) external onlyOwnerOf(_qualificationId) {\n    qualifications[_qualificationId].expiryDays = _newQualificationExpiry;\n  }\n\n  function changeQualificationStatus(uint _qualificationId) external onlyOwnerOf(_qualificationId) {\n    qualifications[_qualificationId].qualStatus = !qualifications[_qualificationId].qualStatus;\n  }\n\n  function getQualificationsByTrgEstablishment(address _owner) external view returns(uint[] memory) {\n    uint[] memory result = new uint[](trgEstablishmentQualificationCount[_owner]);\n    uint counter = 0;\n    for (uint i = 0; i < qualifications.length; i++) {\n      if (qualificationToTrgEstablishment[i] == _owner) {\n        result[counter] = i;\n        counter++;\n      }\n    }\n    return result;\n  }\n\n}",
  "sourcePath": "/home/vitalpointai/projects/qualification-coin/src/contracts/QualificationHelper.sol",
  "compiler": {
    "name": "solc",
    "version": "0.5.12+commit.7709ece9.Emscripten.clang"
  },
  "schemaVersion": "3.0.19",
  "updatedAt": "2019-12-26T16:08:06.421Z",
  "networkType": "ethereum",
  "devdoc": {
    "methods": {
      "isOwner()": {
        "details": "Returns true if the caller is the current owner."
      },
      "owner()": {
        "details": "Returns the address of the current owner."
      },
      "renounceOwnership()": {
        "details": "Leaves the contract without owner. It will not be possible to call `onlyOwner` functions anymore. Can only be called by the current owner.     * NOTE: Renouncing ownership will leave the contract without an owner, thereby removing any functionality that is only available to the owner."
      },
      "transferOwnership(address)": {
        "details": "Transfers ownership of the contract to a new account (`newOwner`). Can only be called by the current owner."
      }
    }
  },
  "userdoc": {
    "methods": {}
  }
}