{
  "contractName": "QualificationFactory",
  "abi": [
    {
      "anonymous": false,
      "inputs": [
        {
          "indexed": false,
          "internalType": "uint256",
          "name": "qualificationId",
          "type": "uint256"
        },
        {
          "indexed": false,
          "internalType": "string",
          "name": "qualificationName",
          "type": "string"
        },
        {
          "indexed": false,
          "internalType": "string",
          "name": "qualificationCode",
          "type": "string"
        },
        {
          "indexed": false,
          "internalType": "address",
          "name": "trgEstablishment",
          "type": "address"
        },
        {
          "indexed": false,
          "internalType": "enum QualificationFactory.Category",
          "name": "category",
          "type": "uint8"
        },
        {
          "indexed": false,
          "internalType": "uint32",
          "name": "expiryDays",
          "type": "uint32"
        },
        {
          "indexed": false,
          "internalType": "bool",
          "name": "qualStatus",
          "type": "bool"
        }
      ],
      "name": "NewQualificationCreated",
      "type": "event"
    },
    {
      "anonymous": false,
      "inputs": [
        {
          "indexed": true,
          "internalType": "address",
          "name": "previousOwner",
          "type": "address"
        },
        {
          "indexed": true,
          "internalType": "address",
          "name": "newOwner",
          "type": "address"
        }
      ],
      "name": "OwnershipTransferred",
      "type": "event"
    },
    {
      "constant": true,
      "inputs": [],
      "name": "isOwner",
      "outputs": [
        {
          "internalType": "bool",
          "name": "",
          "type": "bool"
        }
      ],
      "payable": false,
      "stateMutability": "view",
      "type": "function"
    },
    {
      "constant": true,
      "inputs": [],
      "name": "owner",
      "outputs": [
        {
          "internalType": "address",
          "name": "",
          "type": "address"
        }
      ],
      "payable": false,
      "stateMutability": "view",
      "type": "function"
    },
    {
      "constant": true,
      "inputs": [
        {
          "internalType": "uint256",
          "name": "",
          "type": "uint256"
        }
      ],
      "name": "qualificationToTrgEstablishment",
      "outputs": [
        {
          "internalType": "address",
          "name": "",
          "type": "address"
        }
      ],
      "payable": false,
      "stateMutability": "view",
      "type": "function"
    },
    {
      "constant": true,
      "inputs": [
        {
          "internalType": "uint256",
          "name": "",
          "type": "uint256"
        }
      ],
      "name": "qualifications",
      "outputs": [
        {
          "internalType": "uint256",
          "name": "id",
          "type": "uint256"
        },
        {
          "internalType": "string",
          "name": "name",
          "type": "string"
        },
        {
          "internalType": "string",
          "name": "qualCode",
          "type": "string"
        },
        {
          "internalType": "address",
          "name": "trgEstablishment",
          "type": "address"
        },
        {
          "internalType": "enum QualificationFactory.Category",
          "name": "category",
          "type": "uint8"
        },
        {
          "internalType": "uint32",
          "name": "expiryDays",
          "type": "uint32"
        },
        {
          "internalType": "uint32",
          "name": "created",
          "type": "uint32"
        },
        {
          "internalType": "bool",
          "name": "qualStatus",
          "type": "bool"
        }
      ],
      "payable": false,
      "stateMutability": "view",
      "type": "function"
    },
    {
      "constant": false,
      "inputs": [],
      "name": "renounceOwnership",
      "outputs": [],
      "payable": false,
      "stateMutability": "nonpayable",
      "type": "function"
    },
    {
      "constant": false,
      "inputs": [
        {
          "internalType": "address",
          "name": "newOwner",
          "type": "address"
        }
      ],
      "name": "transferOwnership",
      "outputs": [],
      "payable": false,
      "stateMutability": "nonpayable",
      "type": "function"
    },
    {
      "constant": false,
      "inputs": [
        {
          "internalType": "string",
          "name": "_name",
          "type": "string"
        },
        {
          "internalType": "string",
          "name": "_qualCode",
          "type": "string"
        },
        {
          "internalType": "enum QualificationFactory.Category",
          "name": "_category",
          "type": "uint8"
        },
        {
          "internalType": "uint32",
          "name": "_expiryDays",
          "type": "uint32"
        }
      ],
      "name": "createQualification",
      "outputs": [],
      "payable": false,
      "stateMutability": "nonpayable",
      "type": "function"
    }
  ],
  "bytecode": "0x6080604052600180556100166100d660201b60201c565b6000806101000a81548173ffffffffffffffffffffffffffffffffffffffff021916908373ffffffffffffffffffffffffffffffffffffffff1602179055506000809054906101000a900473ffffffffffffffffffffffffffffffffffffffff1673ffffffffffffffffffffffffffffffffffffffff16600073ffffffffffffffffffffffffffffffffffffffff167f8be0079c531659141344cd1fd0a4f28419497f9722a3daafe3b4186f6b6457e060405160405180910390a36100de565b600033905090565b6112d3806100ed6000396000f3fe608060405234801561001057600080fd5b506004361061007d5760003560e01c80638f32d59b1161005b5780638f32d59b14610144578063931331b814610166578063e8cb3e50146102d5578063f2fde38b146104685761007d565b8063715018a614610082578063871c6c5f1461008c5780638da5cb5b146100fa575b600080fd5b61008a6104ac565b005b6100b8600480360360208110156100a257600080fd5b81019080803590602001909291905050506105e5565b604051808273ffffffffffffffffffffffffffffffffffffffff1673ffffffffffffffffffffffffffffffffffffffff16815260200191505060405180910390f35b610102610618565b604051808273ffffffffffffffffffffffffffffffffffffffff1673ffffffffffffffffffffffffffffffffffffffff16815260200191505060405180910390f35b61014c610641565b604051808215151515815260200191505060405180910390f35b6102d36004803603608081101561017c57600080fd5b810190808035906020019064010000000081111561019957600080fd5b8201836020820111156101ab57600080fd5b803590602001918460018302840111640100000000831117156101cd57600080fd5b91908080601f016020809104026020016040519081016040528093929190818152602001838380828437600081840152601f19601f8201169050808301925050505050505091929192908035906020019064010000000081111561023057600080fd5b82018360208201111561024257600080fd5b8035906020019184600183028401116401000000008311171561026457600080fd5b91908080601f016020809104026020016040519081016040528093929190818152602001838380828437600081840152601f19601f820116905080830192505050505050509192919290803560ff169060200190929190803563ffffffff16906020019092919050505061069f565b005b610301600480360360208110156102eb57600080fd5b81019080803590602001909291905050506106b1565b6040518089815260200180602001806020018873ffffffffffffffffffffffffffffffffffffffff1673ffffffffffffffffffffffffffffffffffffffff16815260200187600081111561035157fe5b60ff1681526020018663ffffffff1663ffffffff1681526020018563ffffffff1663ffffffff1681526020018415151515815260200183810383528a818151815260200191508051906020019080838360005b838110156103bf5780820151818401526020810190506103a4565b50505050905090810190601f1680156103ec5780820380516001836020036101000a031916815260200191505b50838103825289818151815260200191508051906020019080838360005b8381101561042557808201518184015260208101905061040a565b50505050905090810190601f1680156104525780820380516001836020036101000a031916815260200191505b509a505050505050505050505060405180910390f35b6104aa6004803603602081101561047e57600080fd5b81019080803573ffffffffffffffffffffffffffffffffffffffff169060200190929190505050610890565b005b6104b4610641565b610526576040517f08c379a00000000000000000000000000000000000000000000000000000000081526004018080602001828103825260208152602001807f4f776e61626c653a2063616c6c6572206973206e6f7420746865206f776e657281525060200191505060405180910390fd5b600073ffffffffffffffffffffffffffffffffffffffff166000809054906101000a900473ffffffffffffffffffffffffffffffffffffffff1673ffffffffffffffffffffffffffffffffffffffff167f8be0079c531659141344cd1fd0a4f28419497f9722a3daafe3b4186f6b6457e060405160405180910390a360008060006101000a81548173ffffffffffffffffffffffffffffffffffffffff021916908373ffffffffffffffffffffffffffffffffffffffff160217905550565b60036020528060005260406000206000915054906101000a900473ffffffffffffffffffffffffffffffffffffffff1681565b60008060009054906101000a900473ffffffffffffffffffffffffffffffffffffffff16905090565b60008060009054906101000a900473ffffffffffffffffffffffffffffffffffffffff1673ffffffffffffffffffffffffffffffffffffffff16610683610916565b73ffffffffffffffffffffffffffffffffffffffff1614905090565b6106ab8484848461091e565b50505050565b600281815481106106be57fe5b9060005260206000209060040201600091509050806000015490806001018054600181600116156101000203166002900480601f0160208091040260200160405190810160405280929190818152602001828054600181600116156101000203166002900480156107705780601f1061074557610100808354040283529160200191610770565b820191906000526020600020905b81548152906001019060200180831161075357829003601f168201915b505050505090806002018054600181600116156101000203166002900480601f01602080910402602001604051908101604052809291908181526020018280546001816001161561010002031660029004801561080e5780601f106107e35761010080835404028352916020019161080e565b820191906000526020600020905b8154815290600101906020018083116107f157829003601f168201915b5050505050908060030160009054906101000a900473ffffffffffffffffffffffffffffffffffffffff16908060030160149054906101000a900460ff16908060030160159054906101000a900463ffffffff16908060030160199054906101000a900463ffffffff169080600301601d9054906101000a900460ff16905088565b610898610641565b61090a576040517f08c379a00000000000000000000000000000000000000000000000000000000081526004018080602001828103825260208152602001807f4f776e61626c653a2063616c6c6572206973206e6f7420746865206f776e657281525060200191505060405180910390fd5b61091381610fe6565b50565b600033905090565b60006005846040518082805190602001908083835b602083106109565780518252602082019150602081019050602083039250610933565b6001836020036101000a038019825116818451168082178552505050505050905001915050908152602001604051809103902054146109e0576040517f08c379a000000000000000000000000000000000000000000000000000000000815260040180806020018281038252602181526020018061127e6021913960400191505060405180910390fd5b60006006856040518082805190602001908083835b60208310610a1857805182526020820191506020810190506020830392506109f5565b6001836020036101000a03801982511681845116808217855250505050505090500191505090815260200160405180910390205414610abf576040517f08c379a00000000000000000000000000000000000000000000000000000000081526004018080602001828103825260138152602001807f6e616d6520616c7265616479206578697374730000000000000000000000000081525060200191505060405180910390fd5b600260405180610100016040528060015481526020018681526020018581526020013373ffffffffffffffffffffffffffffffffffffffff168152602001846000811115610b0957fe5b81526020018363ffffffff1681526020014263ffffffff1681526020016001151581525090806001815401808255809150509060018203906000526020600020906004020160009091929091909150600082015181600001556020820151816001019080519060200190610b7e9291906111b2565b506040820151816002019080519060200190610b9b9291906111b2565b5060608201518160030160006101000a81548173ffffffffffffffffffffffffffffffffffffffff021916908373ffffffffffffffffffffffffffffffffffffffff16021790555060808201518160030160146101000a81548160ff02191690836000811115610c0757fe5b021790555060a08201518160030160156101000a81548163ffffffff021916908363ffffffff16021790555060c08201518160030160196101000a81548163ffffffff021916908363ffffffff16021790555060e082015181600301601d6101000a81548160ff0219169083151502179055505050506001546005846040518082805190602001908083835b60208310610cb65780518252602082019150602081019050602083039250610c93565b6001836020036101000a0380198251168184511680821785525050505050509050019150509081526020016040518091039020819055506001546006856040518082805190602001908083835b60208310610d265780518252602082019150602081019050602083039250610d03565b6001836020036101000a0380198251168184511680821785525050505050509050019150509081526020016040518091039020819055503360036000600154815260200190815260200160002060006101000a81548173ffffffffffffffffffffffffffffffffffffffff021916908373ffffffffffffffffffffffffffffffffffffffff160217905550610e046001600460003373ffffffffffffffffffffffffffffffffffffffff1673ffffffffffffffffffffffffffffffffffffffff1681526020019081526020016000205461112a90919063ffffffff16565b600460003373ffffffffffffffffffffffffffffffffffffffff1673ffffffffffffffffffffffffffffffffffffffff168152602001908152602001600020819055507f39de3ec7c1120e10274ac1011d7a3b257bc6421ae427d78bac363712fb9d4e13600154858533868660016040518088815260200180602001806020018773ffffffffffffffffffffffffffffffffffffffff1673ffffffffffffffffffffffffffffffffffffffff168152602001866000811115610ec257fe5b60ff1681526020018563ffffffff1663ffffffff16815260200184151515158152602001838103835289818151815260200191508051906020019080838360005b83811015610f1e578082015181840152602081019050610f03565b50505050905090810190601f168015610f4b5780820380516001836020036101000a031916815260200191505b50838103825288818151815260200191508051906020019080838360005b83811015610f84578082015181840152602081019050610f69565b50505050905090810190601f168015610fb15780820380516001836020036101000a031916815260200191505b50995050505050505050505060405180910390a1610fda6001805461112a90919063ffffffff16565b60018190555050505050565b600073ffffffffffffffffffffffffffffffffffffffff168173ffffffffffffffffffffffffffffffffffffffff16141561106c576040517f08c379a00000000000000000000000000000000000000000000000000000000081526004018080602001828103825260268152602001806112586026913960400191505060405180910390fd5b8073ffffffffffffffffffffffffffffffffffffffff166000809054906101000a900473ffffffffffffffffffffffffffffffffffffffff1673ffffffffffffffffffffffffffffffffffffffff167f8be0079c531659141344cd1fd0a4f28419497f9722a3daafe3b4186f6b6457e060405160405180910390a3806000806101000a81548173ffffffffffffffffffffffffffffffffffffffff021916908373ffffffffffffffffffffffffffffffffffffffff16021790555050565b6000808284019050838110156111a8576040517f08c379a000000000000000000000000000000000000000000000000000000000815260040180806020018281038252601b8152602001807f536166654d6174683a206164646974696f6e206f766572666c6f77000000000081525060200191505060405180910390fd5b8091505092915050565b828054600181600116156101000203166002900490600052602060002090601f016020900481019282601f106111f357805160ff1916838001178555611221565b82800160010185558215611221579182015b82811115611220578251825591602001919060010190611205565b5b50905061122e9190611232565b5090565b61125491905b80821115611250576000816000905550600101611238565b5090565b9056fe4f776e61626c653a206e6577206f776e657220697320746865207a65726f20616464726573737175616c696669636174696f6e20636f646520616c726561647920657869737473a265627a7a7231582009bd9ba13f4bd0a33281ef29abbe7696cbf64922c31648d71c6c824191e8aee964736f6c634300050c0032",
  "source": "pragma solidity ^0.5.0;\n\nimport \"@openzeppelin/contracts/ownership/Ownable.sol\";\nimport \"@openzeppelin/contracts/math/SafeMath.sol\";\nimport \"./helpers/safemath.sol\";\n\ncontract QualificationFactory is Ownable {\n\n  using SafeMath for uint256;\n  using SafeMath32 for uint32;\n  using SafeMath16 for uint16;\n\n  event NewQualificationCreated(\n      uint qualificationId,\n      string qualificationName,\n      string qualificationCode,\n      address trgEstablishment,\n      Category category,\n      uint32 expiryDays,\n      bool qualStatus);\n\n  enum Category { Parachuting }\n\n  struct Qualification {\n    uint id;\n    string name;\n    string qualCode;\n    address trgEstablishment;\n    Category category;\n    uint32 expiryDays;\n    uint32 created;\n    bool qualStatus;\n  }\n\n  uint nextId = 1;\n\n  Qualification[] public qualifications;\n\n  mapping (uint => address) public qualificationToTrgEstablishment;\n  mapping (address => uint) trgEstablishmentQualificationCount;\n  mapping (string => uint) codeToQualId;\n  mapping (string => uint) nameToQualId;\n\n  function _createQualification(\n      string memory _name,\n      string memory _qualCode,\n      Category _category,\n      uint32 _expiryDays\n      ) internal {\n    require(codeToQualId[_qualCode]==0, \"qualification code already exists\");\n    require(nameToQualId[_name]==0, \"name already exists\");\n    qualifications.push(Qualification(nextId, _name, _qualCode, msg.sender, _category, _expiryDays, uint32(now), true));\n    codeToQualId[_qualCode] = nextId;\n    nameToQualId[_name] = nextId;\n    qualificationToTrgEstablishment[nextId] = msg.sender;\n    trgEstablishmentQualificationCount[msg.sender] = trgEstablishmentQualificationCount[msg.sender].add(1);\n    emit NewQualificationCreated(nextId, _name, _qualCode, msg.sender, _category, _expiryDays, true);\n    nextId = nextId.add(1);\n  }\n\n  function createQualification(\n      string memory _name,\n      string memory _qualCode,\n      Category _category,\n      uint32 _expiryDays\n  ) public {\n    _createQualification(_name, _qualCode, _category, _expiryDays);\n  }\n\n}",
  "sourcePath": "/home/vitalpointai/projects/qualification-coin/src/contracts/QualificationFactory.sol",
  "compiler": {
    "name": "solc",
    "version": "0.5.12+commit.7709ece9.Emscripten.clang"
  },
  "schemaVersion": "3.0.19",
  "updatedAt": "2019-12-26T16:08:06.413Z",
  "networkType": "ethereum",
  "devdoc": {
    "methods": {
      "isOwner()": {
        "details": "Returns true if the caller is the current owner."
      },
      "owner()": {
        "details": "Returns the address of the current owner."
      },
      "renounceOwnership()": {
        "details": "Leaves the contract without owner. It will not be possible to call `onlyOwner` functions anymore. Can only be called by the current owner.     * NOTE: Renouncing ownership will leave the contract without an owner, thereby removing any functionality that is only available to the owner."
      },
      "transferOwnership(address)": {
        "details": "Transfers ownership of the contract to a new account (`newOwner`). Can only be called by the current owner."
      }
    }
  },
  "userdoc": {
    "methods": {}
  }
}