{
  "contractName": "QualificationOwnership",
  "abi": [
    {
      "inputs": [
        {
          "internalType": "string",
          "name": "_qualName",
          "type": "string"
        },
        {
          "internalType": "string",
          "name": "_qualCode",
          "type": "string"
        },
        {
          "internalType": "address",
          "name": "_metadata",
          "type": "address"
        }
      ],
      "payable": false,
      "stateMutability": "nonpayable",
      "type": "constructor"
    },
    {
      "anonymous": false,
      "inputs": [
        {
          "indexed": true,
          "internalType": "address",
          "name": "owner",
          "type": "address"
        },
        {
          "indexed": true,
          "internalType": "address",
          "name": "approved",
          "type": "address"
        },
        {
          "indexed": true,
          "internalType": "uint256",
          "name": "tokenId",
          "type": "uint256"
        }
      ],
      "name": "Approval",
      "type": "event"
    },
    {
      "anonymous": false,
      "inputs": [
        {
          "indexed": true,
          "internalType": "address",
          "name": "owner",
          "type": "address"
        },
        {
          "indexed": true,
          "internalType": "address",
          "name": "operator",
          "type": "address"
        },
        {
          "indexed": false,
          "internalType": "bool",
          "name": "approved",
          "type": "bool"
        }
      ],
      "name": "ApprovalForAll",
      "type": "event"
    },
    {
      "anonymous": false,
      "inputs": [
        {
          "indexed": false,
          "internalType": "address",
          "name": "soldierAddress",
          "type": "address"
        }
      ],
      "name": "JumpMasterAuthorized",
      "type": "event"
    },
    {
      "anonymous": false,
      "inputs": [
        {
          "indexed": false,
          "internalType": "uint256",
          "name": "qualificationId",
          "type": "uint256"
        },
        {
          "indexed": false,
          "internalType": "string",
          "name": "qualificationName",
          "type": "string"
        },
        {
          "indexed": false,
          "internalType": "string",
          "name": "qualificationCode",
          "type": "string"
        },
        {
          "indexed": false,
          "internalType": "address",
          "name": "trgEstablishment",
          "type": "address"
        },
        {
          "indexed": false,
          "internalType": "bool",
          "name": "qualStatus",
          "type": "bool"
        }
      ],
      "name": "NewQualificationCreated",
      "type": "event"
    },
    {
      "anonymous": false,
      "inputs": [
        {
          "indexed": true,
          "internalType": "address",
          "name": "previousOwner",
          "type": "address"
        },
        {
          "indexed": true,
          "internalType": "address",
          "name": "newOwner",
          "type": "address"
        }
      ],
      "name": "OwnershipTransferred",
      "type": "event"
    },
    {
      "anonymous": false,
      "inputs": [
        {
          "indexed": false,
          "internalType": "address",
          "name": "soldierAddress",
          "type": "address"
        }
      ],
      "name": "SoldierDelisted",
      "type": "event"
    },
    {
      "anonymous": false,
      "inputs": [
        {
          "indexed": false,
          "internalType": "uint256",
          "name": "soldierId",
          "type": "uint256"
        },
        {
          "indexed": false,
          "internalType": "address",
          "name": "soldierAddress",
          "type": "address"
        }
      ],
      "name": "SoldierEnlisted",
      "type": "event"
    },
    {
      "anonymous": false,
      "inputs": [
        {
          "indexed": false,
          "internalType": "uint256",
          "name": "establishmentId",
          "type": "uint256"
        },
        {
          "indexed": false,
          "internalType": "address",
          "name": "establishmentAddress",
          "type": "address"
        }
      ],
      "name": "TrainingEstablishmentIdentified",
      "type": "event"
    },
    {
      "anonymous": false,
      "inputs": [
        {
          "indexed": true,
          "internalType": "address",
          "name": "from",
          "type": "address"
        },
        {
          "indexed": true,
          "internalType": "address",
          "name": "to",
          "type": "address"
        },
        {
          "indexed": true,
          "internalType": "uint256",
          "name": "tokenId",
          "type": "uint256"
        }
      ],
      "name": "Transfer",
      "type": "event"
    },
    {
      "anonymous": false,
      "inputs": [
        {
          "indexed": false,
          "internalType": "address",
          "name": "soldierAddress",
          "type": "address"
        }
      ],
      "name": "WingsIssued",
      "type": "event"
    },
    {
      "anonymous": false,
      "inputs": [
        {
          "indexed": false,
          "internalType": "address",
          "name": "soldierAddress",
          "type": "address"
        }
      ],
      "name": "WingsRevoked",
      "type": "event"
    },
    {
      "constant": false,
      "inputs": [
        {
          "internalType": "address",
          "name": "soldierAddress",
          "type": "address"
        }
      ],
      "name": "assignJumpMaster",
      "outputs": [],
      "payable": false,
      "stateMutability": "nonpayable",
      "type": "function"
    },
    {
      "constant": false,
      "inputs": [
        {
          "internalType": "address",
          "name": "_masterAddress",
          "type": "address"
        }
      ],
      "name": "assignMasterRole",
      "outputs": [],
      "payable": false,
      "stateMutability": "nonpayable",
      "type": "function"
    },
    {
      "constant": false,
      "inputs": [
        {
          "internalType": "uint256",
          "name": "_qualificationId",
          "type": "uint256"
        },
        {
          "internalType": "string",
          "name": "_newQualificationCode",
          "type": "string"
        }
      ],
      "name": "changeQualificationCode",
      "outputs": [],
      "payable": false,
      "stateMutability": "nonpayable",
      "type": "function"
    },
    {
      "constant": false,
      "inputs": [
        {
          "internalType": "uint256",
          "name": "_qualificationId",
          "type": "uint256"
        },
        {
          "internalType": "string",
          "name": "_newQualificationName",
          "type": "string"
        }
      ],
      "name": "changeQualificationName",
      "outputs": [],
      "payable": false,
      "stateMutability": "nonpayable",
      "type": "function"
    },
    {
      "constant": false,
      "inputs": [
        {
          "internalType": "uint256",
          "name": "_qualificationId",
          "type": "uint256"
        }
      ],
      "name": "changeQualificationStatus",
      "outputs": [],
      "payable": false,
      "stateMutability": "nonpayable",
      "type": "function"
    },
    {
      "constant": false,
      "inputs": [
        {
          "internalType": "string",
          "name": "_name",
          "type": "string"
        },
        {
          "internalType": "string",
          "name": "_qualCode",
          "type": "string"
        }
      ],
      "name": "createQualification",
      "outputs": [],
      "payable": false,
      "stateMutability": "nonpayable",
      "type": "function"
    },
    {
      "constant": false,
      "inputs": [
        {
          "internalType": "address",
          "name": "soldierAddress",
          "type": "address"
        }
      ],
      "name": "delistSoldier",
      "outputs": [],
      "payable": false,
      "stateMutability": "nonpayable",
      "type": "function"
    },
    {
      "constant": false,
      "inputs": [
        {
          "internalType": "address",
          "name": "soldierAddress",
          "type": "address"
        }
      ],
      "name": "enlistSoldier",
      "outputs": [],
      "payable": false,
      "stateMutability": "nonpayable",
      "type": "function"
    },
    {
      "constant": true,
      "inputs": [
        {
          "internalType": "address",
          "name": "",
          "type": "address"
        }
      ],
      "name": "enlisted",
      "outputs": [
        {
          "internalType": "bool",
          "name": "",
          "type": "bool"
        }
      ],
      "payable": false,
      "stateMutability": "view",
      "type": "function"
    },
    {
      "constant": true,
      "inputs": [
        {
          "internalType": "uint256",
          "name": "tokenId",
          "type": "uint256"
        }
      ],
      "name": "getApproved",
      "outputs": [
        {
          "internalType": "address",
          "name": "",
          "type": "address"
        }
      ],
      "payable": false,
      "stateMutability": "view",
      "type": "function"
    },
    {
      "constant": true,
      "inputs": [
        {
          "internalType": "address",
          "name": "_trgEstablishment",
          "type": "address"
        }
      ],
      "name": "getQualificationsByTrgEstablishment",
      "outputs": [
        {
          "internalType": "uint256[]",
          "name": "",
          "type": "uint256[]"
        }
      ],
      "payable": false,
      "stateMutability": "view",
      "type": "function"
    },
    {
      "constant": false,
      "inputs": [
        {
          "internalType": "address",
          "name": "establishmentAddress",
          "type": "address"
        }
      ],
      "name": "identifyTrainingEstablishment",
      "outputs": [],
      "payable": false,
      "stateMutability": "nonpayable",
      "type": "function"
    },
    {
      "constant": true,
      "inputs": [
        {
          "internalType": "address",
          "name": "owner",
          "type": "address"
        },
        {
          "internalType": "address",
          "name": "operator",
          "type": "address"
        }
      ],
      "name": "isApprovedForAll",
      "outputs": [
        {
          "internalType": "bool",
          "name": "",
          "type": "bool"
        }
      ],
      "payable": false,
      "stateMutability": "view",
      "type": "function"
    },
    {
      "constant": true,
      "inputs": [
        {
          "internalType": "address",
          "name": "account",
          "type": "address"
        }
      ],
      "name": "isMaster",
      "outputs": [
        {
          "internalType": "bool",
          "name": "",
          "type": "bool"
        }
      ],
      "payable": false,
      "stateMutability": "view",
      "type": "function"
    },
    {
      "constant": true,
      "inputs": [],
      "name": "isOwner",
      "outputs": [
        {
          "internalType": "bool",
          "name": "",
          "type": "bool"
        }
      ],
      "payable": false,
      "stateMutability": "view",
      "type": "function"
    },
    {
      "constant": false,
      "inputs": [
        {
          "internalType": "address",
          "name": "soldierAddress",
          "type": "address"
        }
      ],
      "name": "issueWings",
      "outputs": [],
      "payable": false,
      "stateMutability": "nonpayable",
      "type": "function"
    },
    {
      "constant": true,
      "inputs": [
        {
          "internalType": "address",
          "name": "",
          "type": "address"
        }
      ],
      "name": "jumpMaster",
      "outputs": [
        {
          "internalType": "bool",
          "name": "",
          "type": "bool"
        }
      ],
      "payable": false,
      "stateMutability": "view",
      "type": "function"
    },
    {
      "constant": true,
      "inputs": [],
      "name": "metadata",
      "outputs": [
        {
          "internalType": "address",
          "name": "",
          "type": "address"
        }
      ],
      "payable": false,
      "stateMutability": "view",
      "type": "function"
    },
    {
      "constant": true,
      "inputs": [],
      "name": "name",
      "outputs": [
        {
          "internalType": "string",
          "name": "",
          "type": "string"
        }
      ],
      "payable": false,
      "stateMutability": "view",
      "type": "function"
    },
    {
      "constant": true,
      "inputs": [],
      "name": "owner",
      "outputs": [
        {
          "internalType": "address",
          "name": "",
          "type": "address"
        }
      ],
      "payable": false,
      "stateMutability": "view",
      "type": "function"
    },
    {
      "constant": true,
      "inputs": [
        {
          "internalType": "uint256",
          "name": "tokenId",
          "type": "uint256"
        }
      ],
      "name": "ownerOf",
      "outputs": [
        {
          "internalType": "address",
          "name": "",
          "type": "address"
        }
      ],
      "payable": false,
      "stateMutability": "view",
      "type": "function"
    },
    {
      "constant": true,
      "inputs": [
        {
          "internalType": "uint256",
          "name": "",
          "type": "uint256"
        }
      ],
      "name": "qualificationToTrgEstablishment",
      "outputs": [
        {
          "internalType": "address",
          "name": "",
          "type": "address"
        }
      ],
      "payable": false,
      "stateMutability": "view",
      "type": "function"
    },
    {
      "constant": true,
      "inputs": [
        {
          "internalType": "uint256",
          "name": "",
          "type": "uint256"
        }
      ],
      "name": "qualifications",
      "outputs": [
        {
          "internalType": "uint256",
          "name": "id",
          "type": "uint256"
        },
        {
          "internalType": "string",
          "name": "name",
          "type": "string"
        },
        {
          "internalType": "string",
          "name": "qualCode",
          "type": "string"
        },
        {
          "internalType": "address",
          "name": "trgEstablishment",
          "type": "address"
        },
        {
          "internalType": "uint32",
          "name": "created",
          "type": "uint32"
        },
        {
          "internalType": "bool",
          "name": "qualStatus",
          "type": "bool"
        }
      ],
      "payable": false,
      "stateMutability": "view",
      "type": "function"
    },
    {
      "constant": false,
      "inputs": [],
      "name": "renounceOwnership",
      "outputs": [],
      "payable": false,
      "stateMutability": "nonpayable",
      "type": "function"
    },
    {
      "constant": false,
      "inputs": [
        {
          "internalType": "address",
          "name": "soldierAddress",
          "type": "address"
        }
      ],
      "name": "revokeWings",
      "outputs": [],
      "payable": false,
      "stateMutability": "nonpayable",
      "type": "function"
    },
    {
      "constant": false,
      "inputs": [
        {
          "internalType": "address",
          "name": "from",
          "type": "address"
        },
        {
          "internalType": "address",
          "name": "to",
          "type": "address"
        },
        {
          "internalType": "uint256",
          "name": "tokenId",
          "type": "uint256"
        }
      ],
      "name": "safeTransferFrom",
      "outputs": [],
      "payable": false,
      "stateMutability": "nonpayable",
      "type": "function"
    },
    {
      "constant": false,
      "inputs": [
        {
          "internalType": "address",
          "name": "from",
          "type": "address"
        },
        {
          "internalType": "address",
          "name": "to",
          "type": "address"
        },
        {
          "internalType": "uint256",
          "name": "tokenId",
          "type": "uint256"
        },
        {
          "internalType": "bytes",
          "name": "_data",
          "type": "bytes"
        }
      ],
      "name": "safeTransferFrom",
      "outputs": [],
      "payable": false,
      "stateMutability": "nonpayable",
      "type": "function"
    },
    {
      "constant": false,
      "inputs": [
        {
          "internalType": "address",
          "name": "to",
          "type": "address"
        },
        {
          "internalType": "bool",
          "name": "approved",
          "type": "bool"
        }
      ],
      "name": "setApprovalForAll",
      "outputs": [],
      "payable": false,
      "stateMutability": "nonpayable",
      "type": "function"
    },
    {
      "constant": true,
      "inputs": [
        {
          "internalType": "uint256",
          "name": "",
          "type": "uint256"
        }
      ],
      "name": "soldiers",
      "outputs": [
        {
          "internalType": "uint256",
          "name": "soldierId",
          "type": "uint256"
        },
        {
          "internalType": "address",
          "name": "soldierAddress",
          "type": "address"
        }
      ],
      "payable": false,
      "stateMutability": "view",
      "type": "function"
    },
    {
      "constant": true,
      "inputs": [
        {
          "internalType": "bytes4",
          "name": "interfaceId",
          "type": "bytes4"
        }
      ],
      "name": "supportsInterface",
      "outputs": [
        {
          "internalType": "bool",
          "name": "",
          "type": "bool"
        }
      ],
      "payable": false,
      "stateMutability": "view",
      "type": "function"
    },
    {
      "constant": true,
      "inputs": [],
      "name": "symbol",
      "outputs": [
        {
          "internalType": "string",
          "name": "",
          "type": "string"
        }
      ],
      "payable": false,
      "stateMutability": "view",
      "type": "function"
    },
    {
      "constant": false,
      "inputs": [],
      "name": "terminateQualificationRoles",
      "outputs": [],
      "payable": false,
      "stateMutability": "nonpayable",
      "type": "function"
    },
    {
      "constant": true,
      "inputs": [
        {
          "internalType": "uint256",
          "name": "index",
          "type": "uint256"
        }
      ],
      "name": "tokenByIndex",
      "outputs": [
        {
          "internalType": "uint256",
          "name": "",
          "type": "uint256"
        }
      ],
      "payable": false,
      "stateMutability": "view",
      "type": "function"
    },
    {
      "constant": true,
      "inputs": [
        {
          "internalType": "address",
          "name": "owner",
          "type": "address"
        },
        {
          "internalType": "uint256",
          "name": "index",
          "type": "uint256"
        }
      ],
      "name": "tokenOfOwnerByIndex",
      "outputs": [
        {
          "internalType": "uint256",
          "name": "",
          "type": "uint256"
        }
      ],
      "payable": false,
      "stateMutability": "view",
      "type": "function"
    },
    {
      "constant": true,
      "inputs": [],
      "name": "totalSupply",
      "outputs": [
        {
          "internalType": "uint256",
          "name": "",
          "type": "uint256"
        }
      ],
      "payable": false,
      "stateMutability": "view",
      "type": "function"
    },
    {
      "constant": true,
      "inputs": [
        {
          "internalType": "address",
          "name": "",
          "type": "address"
        }
      ],
      "name": "trainingEstablishment",
      "outputs": [
        {
          "internalType": "bool",
          "name": "",
          "type": "bool"
        }
      ],
      "payable": false,
      "stateMutability": "view",
      "type": "function"
    },
    {
      "constant": true,
      "inputs": [
        {
          "internalType": "uint256",
          "name": "",
          "type": "uint256"
        }
      ],
      "name": "trainingEstablishments",
      "outputs": [
        {
          "internalType": "uint256",
          "name": "establishmentId",
          "type": "uint256"
        },
        {
          "internalType": "address",
          "name": "establishmentAddress",
          "type": "address"
        }
      ],
      "payable": false,
      "stateMutability": "view",
      "type": "function"
    },
    {
      "constant": false,
      "inputs": [
        {
          "internalType": "address",
          "name": "newOwner",
          "type": "address"
        }
      ],
      "name": "transferOwnership",
      "outputs": [],
      "payable": false,
      "stateMutability": "nonpayable",
      "type": "function"
    },
    {
      "constant": true,
      "inputs": [
        {
          "internalType": "address",
          "name": "",
          "type": "address"
        }
      ],
      "name": "wings",
      "outputs": [
        {
          "internalType": "bool",
          "name": "",
          "type": "bool"
        }
      ],
      "payable": false,
      "stateMutability": "view",
      "type": "function"
    },
    {
      "constant": false,
      "inputs": [
        {
          "internalType": "address",
          "name": "recipient",
          "type": "address"
        },
        {
          "internalType": "uint256",
          "name": "qualId",
          "type": "uint256"
        }
      ],
      "name": "mint",
      "outputs": [],
      "payable": false,
      "stateMutability": "nonpayable",
      "type": "function"
    },
    {
      "constant": false,
      "inputs": [
        {
          "internalType": "address",
          "name": "_metadata",
          "type": "address"
        }
      ],
      "name": "updateMetadata",
      "outputs": [],
      "payable": false,
      "stateMutability": "nonpayable",
      "type": "function"
    },
    {
      "constant": true,
      "inputs": [
        {
          "internalType": "uint256",
          "name": "_tokenId",
          "type": "uint256"
        }
      ],
      "name": "tokenURI",
      "outputs": [
        {
          "internalType": "string",
          "name": "_infoUrl",
          "type": "string"
        }
      ],
      "payable": false,
      "stateMutability": "view",
      "type": "function"
    },
    {
      "constant": true,
      "inputs": [
        {
          "internalType": "address",
          "name": "_owner",
          "type": "address"
        }
      ],
      "name": "balanceOf",
      "outputs": [
        {
          "internalType": "uint256",
          "name": "",
          "type": "uint256"
        }
      ],
      "payable": false,
      "stateMutability": "view",
      "type": "function"
    },
    {
      "constant": false,
      "inputs": [
        {
          "internalType": "address",
          "name": "_from",
          "type": "address"
        },
        {
          "internalType": "address",
          "name": "_to",
          "type": "address"
        },
        {
          "internalType": "uint256",
          "name": "_tokenId",
          "type": "uint256"
        }
      ],
      "name": "transferFrom",
      "outputs": [],
      "payable": false,
      "stateMutability": "nonpayable",
      "type": "function"
    },
    {
      "constant": false,
      "inputs": [
        {
          "internalType": "address",
          "name": "_approved",
          "type": "address"
        },
        {
          "internalType": "uint256",
          "name": "_tokenId",
          "type": "uint256"
        }
      ],
      "name": "approve",
      "outputs": [],
      "payable": false,
      "stateMutability": "nonpayable",
      "type": "function"
    }
  ],
  "bytecode": "0x608060405260016005553480156200001657600080fd5b506040516200574338038062005743833981810160405260608110156200003c57600080fd5b81019080805160405193929190846401000000008211156200005d57600080fd5b838201915060208201858111156200007457600080fd5b82518660018202830111640100000000821117156200009257600080fd5b8083526020830192505050908051906020019080838360005b83811015620000c8578082015181840152602081019050620000ab565b50505050905090810190601f168015620000f65780820380516001836020036101000a031916815260200191505b50604052602001805160405193929190846401000000008211156200011a57600080fd5b838201915060208201858111156200013157600080fd5b82518660018202830111640100000000821117156200014f57600080fd5b8083526020830192505050908051906020019080838360005b838110156200018557808201518184015260208101905062000168565b50505050905090810190601f168015620001b35780820380516001836020036101000a031916815260200191505b506040526020018051906020019092919050505082828181620001db6200037660201b60201c565b6000806101000a81548173ffffffffffffffffffffffffffffffffffffffff021916908373ffffffffffffffffffffffffffffffffffffffff1602179055506000809054906101000a900473ffffffffffffffffffffffffffffffffffffffff1673ffffffffffffffffffffffffffffffffffffffff16600073ffffffffffffffffffffffffffffffffffffffff167f8be0079c531659141344cd1fd0a4f28419497f9722a3daafe3b4186f6b6457e060405160405180910390a3620002ae6301ffc9a760e01b6200037e60201b60201c565b620002c66380ac58cd60e01b6200037e60201b60201c565b620002de63780e9d6360e01b6200037e60201b60201c565b8160189080519060200190620002f692919062000488565b5080601990805190602001906200030f92919062000488565b5062000328635b5e139f60e01b6200037e60201b60201c565b5050505080601b60006101000a81548173ffffffffffffffffffffffffffffffffffffffff021916908373ffffffffffffffffffffffffffffffffffffffff16021790555050505062000537565b600033905090565b63ffffffff60e01b817bffffffffffffffffffffffffffffffffffffffffffffffffffffffff191614156200041b576040517f08c379a000000000000000000000000000000000000000000000000000000000815260040180806020018281038252601c8152602001807f4552433136353a20696e76616c696420696e746572666163652069640000000081525060200191505060405180910390fd5b6001600f6000837bffffffffffffffffffffffffffffffffffffffffffffffffffffffff19167bffffffffffffffffffffffffffffffffffffffffffffffffffffffff1916815260200190815260200160002060006101000a81548160ff02191690831515021790555050565b828054600181600116156101000203166002900490600052602060002090601f016020900481019282601f10620004cb57805160ff1916838001178555620004fc565b82800160010185558215620004fc579182015b82811115620004fb578251825591602001919060010190620004de565b5b5090506200050b91906200050f565b5090565b6200053491905b808211156200053057600081600090555060010162000516565b5090565b90565b6151fc80620005476000396000f3fe608060405234801561001057600080fd5b506004361061027f5760003560e01c8063715018a61161015c578063b909b68e116100ce578063e93001a011610087578063e93001a014611241578063e985e9c5146112c4578063f2937ca014611340578063f2fde38b146113b5578063f611c26d146113f9578063f720f80b146114555761027f565b8063b909b68e14610f10578063c5e2a7db14610f85578063c87b56dd14610fc9578063d0fd513914611070578063e078c69f146110cc578063e8cb3e50146110d65761027f565b80638f32d59b116101205780638f32d59b14610c7657806395d89b4114610c985780639ad4149b14610d1b578063a22cb46514610d77578063b88d4fde14610dc7578063b8f1f04514610ecc5761027f565b8063715018a614610b2a5780637158400614610b3457806382efe17114610b90578063871c6c5f14610bbe5780638da5cb5b14610c2c5761027f565b80632f745c59116101f557806342842e0e116101b957806342842e0e146108ed57806348ef37441461095b5780634f6ccce7146109de578063534d876014610a205780636352211e14610a6457806370a0823114610ad25761027f565b80632f745c591461065d578063392f37e9146106bf5780633ec4d2af1461070957806340c10f191461085b57806342481896146108a95761027f565b806316addad01161024757806316addad01461046c57806318160ddd14610505578063211f19711461052357806323b872dd1461056757806326400dae146105d55780632de039e4146106195761027f565b8063019f628d1461028457806301ffc9a7146102c857806306fdde031461032d578063081812fc146103b0578063095ea7b31461041e575b600080fd5b6102c66004803603602081101561029a57600080fd5b81019080803573ffffffffffffffffffffffffffffffffffffffff1690602001909291905050506114b1565b005b610313600480360360208110156102de57600080fd5b8101908080357bffffffffffffffffffffffffffffffffffffffffffffffffffffffff19169060200190929190505050611578565b604051808215151515815260200191505060405180910390f35b6103356115e0565b6040518080602001828103825283818151815260200191508051906020019080838360005b8381101561037557808201518184015260208101905061035a565b50505050905090810190601f1680156103a25780820380516001836020036101000a031916815260200191505b509250505060405180910390f35b6103dc600480360360208110156103c657600080fd5b8101908080359060200190929190505050611682565b604051808273ffffffffffffffffffffffffffffffffffffffff1673ffffffffffffffffffffffffffffffffffffffff16815260200191505060405180910390f35b61046a6004803603604081101561043457600080fd5b81019080803573ffffffffffffffffffffffffffffffffffffffff1690602001909291908035906020019092919050505061171d565b005b6104ae6004803603602081101561048257600080fd5b81019080803573ffffffffffffffffffffffffffffffffffffffff1690602001909291905050506118a4565b6040518080602001828103825283818151815260200191508051906020019060200280838360005b838110156104f15780820151818401526020810190506104d6565b505050509050019250505060405180910390f35b61050d6119d1565b6040518082815260200191505060405180910390f35b6105656004803603602081101561053957600080fd5b81019080803573ffffffffffffffffffffffffffffffffffffffff1690602001909291905050506119de565b005b6105d36004803603606081101561057d57600080fd5b81019080803573ffffffffffffffffffffffffffffffffffffffff169060200190929190803573ffffffffffffffffffffffffffffffffffffffff16906020019092919080359060200190929190505050611be8565b005b610617600480360360208110156105eb57600080fd5b81019080803573ffffffffffffffffffffffffffffffffffffffff169060200190929190505050611d35565b005b61065b6004803603602081101561062f57600080fd5b81019080803573ffffffffffffffffffffffffffffffffffffffff169060200190929190505050611ec2565b005b6106a96004803603604081101561067357600080fd5b81019080803573ffffffffffffffffffffffffffffffffffffffff16906020019092919080359060200190929190505050611f48565b6040518082815260200191505060405180910390f35b6106c7612007565b604051808273ffffffffffffffffffffffffffffffffffffffff1673ffffffffffffffffffffffffffffffffffffffff16815260200191505060405180910390f35b6108596004803603604081101561071f57600080fd5b810190808035906020019064010000000081111561073c57600080fd5b82018360208201111561074e57600080fd5b8035906020019184600183028401116401000000008311171561077057600080fd5b91908080601f016020809104026020016040519081016040528093929190818152602001838380828437600081840152601f19601f820116905080830192505050505050509192919290803590602001906401000000008111156107d357600080fd5b8201836020820111156107e557600080fd5b8035906020019184600183028401116401000000008311171561080757600080fd5b91908080601f016020809104026020016040519081016040528093929190818152602001838380828437600081840152601f19601f82011690508083019250505050505050919291929050505061202d565b005b6108a76004803603604081101561087157600080fd5b81019080803573ffffffffffffffffffffffffffffffffffffffff1690602001909291908035906020019092919050505061203b565b005b6108eb600480360360208110156108bf57600080fd5b81019080803573ffffffffffffffffffffffffffffffffffffffff169060200190929190505050612049565b005b6109596004803603606081101561090357600080fd5b81019080803573ffffffffffffffffffffffffffffffffffffffff169060200190929190803573ffffffffffffffffffffffffffffffffffffffff16906020019092919080359060200190929190505050612296565b005b6109dc6004803603604081101561097157600080fd5b81019080803590602001909291908035906020019064010000000081111561099857600080fd5b8201836020820111156109aa57600080fd5b803590602001918460018302840111640100000000831117156109cc57600080fd5b90919293919293905050506122b6565b005b610a0a600480360360208110156109f457600080fd5b81019080803590602001909291905050506123bf565b6040518082815260200191505060405180910390f35b610a6260048036036020811015610a3657600080fd5b81019080803573ffffffffffffffffffffffffffffffffffffffff16906020019092919050505061243f565b005b610a9060048036036020811015610a7a57600080fd5b810190808035906020019092919050505061264a565b604051808273ffffffffffffffffffffffffffffffffffffffff1673ffffffffffffffffffffffffffffffffffffffff16815260200191505060405180910390f35b610b1460048036036020811015610ae857600080fd5b81019080803573ffffffffffffffffffffffffffffffffffffffff169060200190929190505050612712565b6040518082815260200191505060405180910390f35b610b3261275b565b005b610b7660048036036020811015610b4a57600080fd5b81019080803573ffffffffffffffffffffffffffffffffffffffff169060200190929190505050612894565b604051808215151515815260200191505060405180910390f35b610bbc60048036036020811015610ba657600080fd5b81019080803590602001909291905050506128b4565b005b610bea60048036036020811015610bd457600080fd5b81019080803590602001909291905050506129ef565b604051808273ffffffffffffffffffffffffffffffffffffffff1673ffffffffffffffffffffffffffffffffffffffff16815260200191505060405180910390f35b610c34612a22565b604051808273ffffffffffffffffffffffffffffffffffffffff1673ffffffffffffffffffffffffffffffffffffffff16815260200191505060405180910390f35b610c7e612a4b565b604051808215151515815260200191505060405180910390f35b610ca0612aa9565b6040518080602001828103825283818151815260200191508051906020019080838360005b83811015610ce0578082015181840152602081019050610cc5565b50505050905090810190601f168015610d0d5780820380516001836020036101000a031916815260200191505b509250505060405180910390f35b610d5d60048036036020811015610d3157600080fd5b81019080803573ffffffffffffffffffffffffffffffffffffffff169060200190929190505050612b4b565b604051808215151515815260200191505060405180910390f35b610dc560048036036040811015610d8d57600080fd5b81019080803573ffffffffffffffffffffffffffffffffffffffff169060200190929190803515159060200190929190505050612b6b565b005b610eca60048036036080811015610ddd57600080fd5b81019080803573ffffffffffffffffffffffffffffffffffffffff169060200190929190803573ffffffffffffffffffffffffffffffffffffffff1690602001909291908035906020019092919080359060200190640100000000811115610e4457600080fd5b820183602082011115610e5657600080fd5b80359060200191846001830284011164010000000083111715610e7857600080fd5b91908080601f016020809104026020016040519081016040528093929190818152602001838380828437600081840152601f19601f820116905080830192505050505050509192919290505050612d23565b005b610f0e60048036036020811015610ee257600080fd5b81019080803573ffffffffffffffffffffffffffffffffffffffff169060200190929190505050612d9b565b005b610f3c60048036036020811015610f2657600080fd5b8101908080359060200190929190505050612f21565b604051808381526020018273ffffffffffffffffffffffffffffffffffffffff1673ffffffffffffffffffffffffffffffffffffffff1681526020019250505060405180910390f35b610fc760048036036020811015610f9b57600080fd5b81019080803573ffffffffffffffffffffffffffffffffffffffff169060200190929190505050612f72565b005b610ff560048036036020811015610fdf57600080fd5b8101908080359060200190929190505050613030565b6040518080602001828103825283818151815260200191508051906020019080838360005b8381101561103557808201518184015260208101905061101a565b50505050905090810190601f1680156110625780820380516001836020036101000a031916815260200191505b509250505060405180910390f35b6110b26004803603602081101561108657600080fd5b81019080803573ffffffffffffffffffffffffffffffffffffffff1690602001909291905050506131a5565b604051808215151515815260200191505060405180910390f35b6110d46131c5565b005b611102600480360360208110156110ec57600080fd5b8101908080359060200190929190505050613258565b6040518087815260200180602001806020018673ffffffffffffffffffffffffffffffffffffffff1673ffffffffffffffffffffffffffffffffffffffff1681526020018563ffffffff1663ffffffff16815260200184151515158152602001838103835288818151815260200191508051906020019080838360005b8381101561119a57808201518184015260208101905061117f565b50505050905090810190601f1680156111c75780820380516001836020036101000a031916815260200191505b50838103825287818151815260200191508051906020019080838360005b838110156112005780820151818401526020810190506111e5565b50505050905090810190601f16801561122d5780820380516001836020036101000a031916815260200191505b509850505050505050505060405180910390f35b6112c26004803603604081101561125757600080fd5b81019080803590602001909291908035906020019064010000000081111561127e57600080fd5b82018360208201111561129057600080fd5b803590602001918460018302840111640100000000831117156112b257600080fd5b909192939192939050505061340e565b005b611326600480360360408110156112da57600080fd5b81019080803573ffffffffffffffffffffffffffffffffffffffff169060200190929190803573ffffffffffffffffffffffffffffffffffffffff169060200190929190505050613517565b604051808215151515815260200191505060405180910390f35b61136c6004803603602081101561135657600080fd5b81019080803590602001909291905050506135ab565b604051808381526020018273ffffffffffffffffffffffffffffffffffffffff1673ffffffffffffffffffffffffffffffffffffffff1681526020019250505060405180910390f35b6113f7600480360360208110156113cb57600080fd5b81019080803573ffffffffffffffffffffffffffffffffffffffff1690602001909291905050506135fc565b005b61143b6004803603602081101561140f57600080fd5b81019080803573ffffffffffffffffffffffffffffffffffffffff169060200190929190505050613682565b604051808215151515815260200191505060405180910390f35b6114976004803603602081101561146b57600080fd5b81019080803573ffffffffffffffffffffffffffffffffffffffff1690602001909291905050506136a2565b604051808215151515815260200191505060405180910390f35b6114ba816136bf565b6001600960008373ffffffffffffffffffffffffffffffffffffffff1673ffffffffffffffffffffffffffffffffffffffff16815260200190815260200160002060006101000a81548160ff0219169083151502179055507fa1a0746f9ed69d855127a249ef8f15c32fdf2cc3519b22856eaf0af91d16603c81604051808273ffffffffffffffffffffffffffffffffffffffff1673ffffffffffffffffffffffffffffffffffffffff16815260200191505060405180910390a150565b6000600f6000837bffffffffffffffffffffffffffffffffffffffffffffffffffffffff19167bffffffffffffffffffffffffffffffffffffffffffffffffffffffff1916815260200190815260200160002060009054906101000a900460ff169050919050565b606060188054600181600116156101000203166002900480601f0160208091040260200160405190810160405280929190818152602001828054600181600116156101000203166002900480156116785780601f1061164d57610100808354040283529160200191611678565b820191906000526020600020905b81548152906001019060200180831161165b57829003601f168201915b5050505050905090565b600061168d826136d6565b6116e2576040517f08c379a000000000000000000000000000000000000000000000000000000000815260040180806020018281038252602c8152602001806150f4602c913960400191505060405180910390fd5b6011600083815260200190815260200160002060009054906101000a900473ffffffffffffffffffffffffffffffffffffffff169050919050565b80600d600082815260200190815260200160002060009054906101000a900473ffffffffffffffffffffffffffffffffffffffff1673ffffffffffffffffffffffffffffffffffffffff163373ffffffffffffffffffffffffffffffffffffffff16146117f2576040517f08c379a000000000000000000000000000000000000000000000000000000000815260040180806020018281038252601a8152602001807f646f6573206e6f74206f776e207175616c696669636174696f6e00000000000081525060200191505060405180910390fd5b82601c600084815260200190815260200160002060006101000a81548173ffffffffffffffffffffffffffffffffffffffff021916908373ffffffffffffffffffffffffffffffffffffffff160217905550818373ffffffffffffffffffffffffffffffffffffffff163373ffffffffffffffffffffffffffffffffffffffff167f8c5be1e5ebec7d5bd14f71427d1e84f3dd0314c0f7b2291e5b200ac8c7c3b92560405160405180910390a4505050565b606080600e60008473ffffffffffffffffffffffffffffffffffffffff1673ffffffffffffffffffffffffffffffffffffffff168152602001908152602001600020546040519080825280602002602001820160405280156119155781602001602082028038833980820191505090505b509050600080905060008090505b6006805490508110156119c6578473ffffffffffffffffffffffffffffffffffffffff16600d600083815260200190815260200160002060009054906101000a900473ffffffffffffffffffffffffffffffffffffffff1673ffffffffffffffffffffffffffffffffffffffff1614156119b957808383815181106119a457fe5b60200260200101818152505081806001019250505b8080600101915050611923565b508192505050919050565b6000601680549050905090565b60011515600b60008373ffffffffffffffffffffffffffffffffffffffff1673ffffffffffffffffffffffffffffffffffffffff16815260200190815260200160002060009054906101000a900460ff16151514611aa4576040517f08c379a00000000000000000000000000000000000000000000000000000000081526004018080602001828103825260138152602001807f446f6573204e6f7420486176652057696e67730000000000000000000000000081525060200191505060405180910390fd5b611ab833600361374890919063ffffffff16565b611b2a576040517f08c379a000000000000000000000000000000000000000000000000000000000815260040180806020018281038252601b8152602001807f49735f4e6f745f415f547261696e696e675f417574686f72697479000000000081525060200191505060405180910390fd5b6000600b60008373ffffffffffffffffffffffffffffffffffffffff1673ffffffffffffffffffffffffffffffffffffffff16815260200190815260200160002060006101000a81548160ff0219169083151502179055507f073d303ee4b04133b0e4a05c979be4b83a7038e3b342c45ac388ca7ef63200f781604051808273ffffffffffffffffffffffffffffffffffffffff1673ffffffffffffffffffffffffffffffffffffffff16815260200191505060405180910390a150565b3373ffffffffffffffffffffffffffffffffffffffff16600d600083815260200190815260200160002060009054906101000a900473ffffffffffffffffffffffffffffffffffffffff1673ffffffffffffffffffffffffffffffffffffffff161480611cb357503373ffffffffffffffffffffffffffffffffffffffff16601c600083815260200190815260200160002060009054906101000a900473ffffffffffffffffffffffffffffffffffffffff1673ffffffffffffffffffffffffffffffffffffffff16145b611d25576040517f08c379a000000000000000000000000000000000000000000000000000000000815260040180806020018281038252600e8152602001807f6e6f7420617574686f72697a656400000000000000000000000000000000000081525060200191505060405180910390fd5b611d30838383613826565b505050565b60011515600a60008373ffffffffffffffffffffffffffffffffffffffff1673ffffffffffffffffffffffffffffffffffffffff16815260200190815260200160002060009054906101000a900460ff16151514611dfb576040517f08c379a00000000000000000000000000000000000000000000000000000000081526004018080602001828103825260108152602001807f416c72656164792044656c69737465640000000000000000000000000000000081525060200191505060405180910390fd5b611e0481613a04565b6000600a60008373ffffffffffffffffffffffffffffffffffffffff1673ffffffffffffffffffffffffffffffffffffffff16815260200190815260200160002060006101000a81548160ff0219169083151502179055507f9d634a5e8fbd4f7a57bd5d54404e498fae6c54fa27c38ca4a0ab4071f0ca583c81604051808273ffffffffffffffffffffffffffffffffffffffff1673ffffffffffffffffffffffffffffffffffffffff16815260200191505060405180910390a150565b611eca612a4b565b611f3c576040517f08c379a00000000000000000000000000000000000000000000000000000000081526004018080602001828103825260208152602001807f4f776e61626c653a2063616c6c6572206973206e6f7420746865206f776e657281525060200191505060405180910390fd5b611f4581613a1b565b50565b6000611f5383612712565b8210611faa576040517f08c379a000000000000000000000000000000000000000000000000000000000815260040180806020018281038252602b815260200180614fd7602b913960400191505060405180910390fd5b601460008473ffffffffffffffffffffffffffffffffffffffff1673ffffffffffffffffffffffffffffffffffffffff1681526020019081526020016000208281548110611ff457fe5b9060005260206000200154905092915050565b601b60009054906101000a900473ffffffffffffffffffffffffffffffffffffffff1681565b6120378282613a32565b5050565b6120458282613de0565b5050565b60011515600a60008373ffffffffffffffffffffffffffffffffffffffff1673ffffffffffffffffffffffffffffffffffffffff16815260200190815260200160002060009054906101000a900460ff1615151415612110576040517f08c379a00000000000000000000000000000000000000000000000000000000081526004018080602001828103825260108152602001807f416c726561647920456e6c69737465640000000000000000000000000000000081525060200191505060405180910390fd5b60006007805490509050600760405180604001604052808381526020018473ffffffffffffffffffffffffffffffffffffffff16815250908060018154018082558091505090600182039060005260206000209060020201600090919290919091506000820151816000015560208201518160010160006101000a81548173ffffffffffffffffffffffffffffffffffffffff021916908373ffffffffffffffffffffffffffffffffffffffff1602179055505050506121cf82613e01565b6001600a60008473ffffffffffffffffffffffffffffffffffffffff1673ffffffffffffffffffffffffffffffffffffffff16815260200190815260200160002060006101000a81548160ff0219169083151502179055507f81389e9105d6ae0460e43f1a1f9e998cd61e342737a59111c8fcfc33dc5473598183604051808381526020018273ffffffffffffffffffffffffffffffffffffffff1673ffffffffffffffffffffffffffffffffffffffff1681526020019250505060405180910390a15050565b6122b183838360405180602001604052806000815250612d23565b505050565b82600d600082815260200190815260200160002060009054906101000a900473ffffffffffffffffffffffffffffffffffffffff1673ffffffffffffffffffffffffffffffffffffffff163373ffffffffffffffffffffffffffffffffffffffff161461238b576040517f08c379a000000000000000000000000000000000000000000000000000000000815260040180806020018281038252601a8152602001807f646f6573206e6f74206f776e207175616c696669636174696f6e00000000000081525060200191505060405180910390fd5b82826006868154811061239a57fe5b906000526020600020906004020160020191906123b8929190614e85565b5050505050565b60006123c96119d1565b8210612420576040517f08c379a000000000000000000000000000000000000000000000000000000000815260040180806020018281038252602c81526020018061519c602c913960400191505060405180910390fd5b6016828154811061242d57fe5b90600052602060002001549050919050565b60011515600b60008373ffffffffffffffffffffffffffffffffffffffff1673ffffffffffffffffffffffffffffffffffffffff16815260200190815260200160002060009054906101000a900460ff1615151415612506576040517f08c379a00000000000000000000000000000000000000000000000000000000081526004018080602001828103825260198152602001807f416c7265616479204265656e204973737565642057696e67730000000000000081525060200191505060405180910390fd5b61251a33600261374890919063ffffffff16565b61258c576040517f08c379a00000000000000000000000000000000000000000000000000000000081526004018080602001828103825260138152602001807f49735f4e6f745f415f4a756d704d61737465720000000000000000000000000081525060200191505060405180910390fd5b6001600b60008373ffffffffffffffffffffffffffffffffffffffff1673ffffffffffffffffffffffffffffffffffffffff16815260200190815260200160002060006101000a81548160ff0219169083151502179055507f5fc561c2e0519e656008f1066305fa69d1b40502149698df2c864296840a7a9081604051808273ffffffffffffffffffffffffffffffffffffffff1673ffffffffffffffffffffffffffffffffffffffff16815260200191505060405180910390a150565b6000806010600084815260200190815260200160002060009054906101000a900473ffffffffffffffffffffffffffffffffffffffff169050600073ffffffffffffffffffffffffffffffffffffffff168173ffffffffffffffffffffffffffffffffffffffff161415612709576040517f08c379a00000000000000000000000000000000000000000000000000000000081526004018080602001828103825260298152602001806150aa6029913960400191505060405180910390fd5b80915050919050565b6000600e60008373ffffffffffffffffffffffffffffffffffffffff1673ffffffffffffffffffffffffffffffffffffffff168152602001908152602001600020549050919050565b612763612a4b565b6127d5576040517f08c379a00000000000000000000000000000000000000000000000000000000081526004018080602001828103825260208152602001807f4f776e61626c653a2063616c6c6572206973206e6f7420746865206f776e657281525060200191505060405180910390fd5b600073ffffffffffffffffffffffffffffffffffffffff166000809054906101000a900473ffffffffffffffffffffffffffffffffffffffff1673ffffffffffffffffffffffffffffffffffffffff167f8be0079c531659141344cd1fd0a4f28419497f9722a3daafe3b4186f6b6457e060405160405180910390a360008060006101000a81548173ffffffffffffffffffffffffffffffffffffffff021916908373ffffffffffffffffffffffffffffffffffffffff160217905550565b600b6020528060005260406000206000915054906101000a900460ff1681565b80600d600082815260200190815260200160002060009054906101000a900473ffffffffffffffffffffffffffffffffffffffff1673ffffffffffffffffffffffffffffffffffffffff163373ffffffffffffffffffffffffffffffffffffffff1614612989576040517f08c379a000000000000000000000000000000000000000000000000000000000815260040180806020018281038252601a8152602001807f646f6573206e6f74206f776e207175616c696669636174696f6e00000000000081525060200191505060405180910390fd5b6006828154811061299657fe5b906000526020600020906004020160030160189054906101000a900460ff1615600683815481106129c357fe5b906000526020600020906004020160030160186101000a81548160ff0219169083151502179055505050565b600d6020528060005260406000206000915054906101000a900473ffffffffffffffffffffffffffffffffffffffff1681565b60008060009054906101000a900473ffffffffffffffffffffffffffffffffffffffff16905090565b60008060009054906101000a900473ffffffffffffffffffffffffffffffffffffffff1673ffffffffffffffffffffffffffffffffffffffff16612a8d613e18565b73ffffffffffffffffffffffffffffffffffffffff1614905090565b606060198054600181600116156101000203166002900480601f016020809104026020016040519081016040528092919081815260200182805460018160011615610100020316600290048015612b415780601f10612b1657610100808354040283529160200191612b41565b820191906000526020600020905b815481529060010190602001808311612b2457829003601f168201915b5050505050905090565b600c6020528060005260406000206000915054906101000a900460ff1681565b612b73613e18565b73ffffffffffffffffffffffffffffffffffffffff168273ffffffffffffffffffffffffffffffffffffffff161415612c14576040517f08c379a00000000000000000000000000000000000000000000000000000000081526004018080602001828103825260198152602001807f4552433732313a20617070726f766520746f2063616c6c65720000000000000081525060200191505060405180910390fd5b8060136000612c21613e18565b73ffffffffffffffffffffffffffffffffffffffff1673ffffffffffffffffffffffffffffffffffffffff16815260200190815260200160002060008473ffffffffffffffffffffffffffffffffffffffff1673ffffffffffffffffffffffffffffffffffffffff16815260200190815260200160002060006101000a81548160ff0219169083151502179055508173ffffffffffffffffffffffffffffffffffffffff16612cce613e18565b73ffffffffffffffffffffffffffffffffffffffff167f17307eab39ab6107e8899845ad3d59bd9653f200f220920489ca2b5937696c3183604051808215151515815260200191505060405180910390a35050565b612d34612d2e613e18565b83613e20565b612d89576040517f08c379a000000000000000000000000000000000000000000000000000000000815260040180806020018281038252603181526020018061516b6031913960400191505060405180910390fd5b612d9584848484613f14565b50505050565b60006008805490509050600860405180604001604052808381526020018473ffffffffffffffffffffffffffffffffffffffff16815250908060018154018082558091505090600182039060005260206000209060020201600090919290919091506000820151816000015560208201518160010160006101000a81548173ffffffffffffffffffffffffffffffffffffffff021916908373ffffffffffffffffffffffffffffffffffffffff160217905550505050612e5a82613f86565b6001600c60008473ffffffffffffffffffffffffffffffffffffffff1673ffffffffffffffffffffffffffffffffffffffff16815260200190815260200160002060006101000a81548160ff0219169083151502179055507f2dc1e067bcf1c76590d0b48a8e0d1669dce372cb6d9d53506f2177dc7674b1888183604051808381526020018273ffffffffffffffffffffffffffffffffffffffff1673ffffffffffffffffffffffffffffffffffffffff1681526020019250505060405180910390a15050565b60078181548110612f2e57fe5b90600052602060002090600202016000915090508060000154908060010160009054906101000a900473ffffffffffffffffffffffffffffffffffffffff16905082565b612f7a612a4b565b612fec576040517f08c379a00000000000000000000000000000000000000000000000000000000081526004018080602001828103825260208152602001807f4f776e61626c653a2063616c6c6572206973206e6f7420746865206f776e657281525060200191505060405180910390fd5b80601b60006101000a81548173ffffffffffffffffffffffffffffffffffffffff021916908373ffffffffffffffffffffffffffffffffffffffff16021790555050565b6060601b60009054906101000a900473ffffffffffffffffffffffffffffffffffffffff1673ffffffffffffffffffffffffffffffffffffffff1663c87b56dd836040518263ffffffff1660e01b81526004018082815260200191505060006040518083038186803b1580156130a557600080fd5b505afa1580156130b9573d6000803e3d6000fd5b505050506040513d6000823e3d601f19601f8201168201806040525060208110156130e357600080fd5b810190808051604051939291908464010000000082111561310357600080fd5b8382019150602082018581111561311957600080fd5b825186600182028301116401000000008211171561313657600080fd5b8083526020830192505050908051906020019080838360005b8381101561316a57808201518184015260208101905061314f565b50505050905090810190601f1680156131975780820380516001836020036101000a031916815260200191505b506040525050509050919050565b600a6020528060005260406000206000915054906101000a900460ff1681565b6131cd612a4b565b61323f576040517f08c379a00000000000000000000000000000000000000000000000000000000081526004018080602001828103825260208152602001807f4f776e61626c653a2063616c6c6572206973206e6f7420746865206f776e657281525060200191505060405180910390fd5b3373ffffffffffffffffffffffffffffffffffffffff16ff5b6006818154811061326557fe5b9060005260206000209060040201600091509050806000015490806001018054600181600116156101000203166002900480601f0160208091040260200160405190810160405280929190818152602001828054600181600116156101000203166002900480156133175780601f106132ec57610100808354040283529160200191613317565b820191906000526020600020905b8154815290600101906020018083116132fa57829003601f168201915b505050505090806002018054600181600116156101000203166002900480601f0160208091040260200160405190810160405280929190818152602001828054600181600116156101000203166002900480156133b55780601f1061338a576101008083540402835291602001916133b5565b820191906000526020600020905b81548152906001019060200180831161339857829003601f168201915b5050505050908060030160009054906101000a900473ffffffffffffffffffffffffffffffffffffffff16908060030160149054906101000a900463ffffffff16908060030160189054906101000a900460ff16905086565b82600d600082815260200190815260200160002060009054906101000a900473ffffffffffffffffffffffffffffffffffffffff1673ffffffffffffffffffffffffffffffffffffffff163373ffffffffffffffffffffffffffffffffffffffff16146134e3576040517f08c379a000000000000000000000000000000000000000000000000000000000815260040180806020018281038252601a8152602001807f646f6573206e6f74206f776e207175616c696669636174696f6e00000000000081525060200191505060405180910390fd5b8282600686815481106134f257fe5b90600052602060002090600402016001019190613510929190614e85565b5050505050565b6000601360008473ffffffffffffffffffffffffffffffffffffffff1673ffffffffffffffffffffffffffffffffffffffff16815260200190815260200160002060008373ffffffffffffffffffffffffffffffffffffffff1673ffffffffffffffffffffffffffffffffffffffff16815260200190815260200160002060009054906101000a900460ff16905092915050565b600881815481106135b857fe5b90600052602060002090600202016000915090508060000154908060010160009054906101000a900473ffffffffffffffffffffffffffffffffffffffff16905082565b613604612a4b565b613676576040517f08c379a00000000000000000000000000000000000000000000000000000000081526004018080602001828103825260208152602001807f4f776e61626c653a2063616c6c6572206973206e6f7420746865206f776e657281525060200191505060405180910390fd5b61367f81613f9d565b50565b60096020528060005260406000206000915054906101000a900460ff1681565b60006136b882600461374890919063ffffffff16565b9050919050565b6136d38160026140e190919063ffffffff16565b50565b6000806010600084815260200190815260200160002060009054906101000a900473ffffffffffffffffffffffffffffffffffffffff169050600073ffffffffffffffffffffffffffffffffffffffff168173ffffffffffffffffffffffffffffffffffffffff161415915050919050565b60008073ffffffffffffffffffffffffffffffffffffffff168273ffffffffffffffffffffffffffffffffffffffff1614156137cf576040517f08c379a00000000000000000000000000000000000000000000000000000000081526004018080602001828103825260228152602001806151206022913960400191505060405180910390fd5b8260000160008373ffffffffffffffffffffffffffffffffffffffff1673ffffffffffffffffffffffffffffffffffffffff16815260200190815260200160002060009054906101000a900460ff16905092915050565b6138796001600e60008573ffffffffffffffffffffffffffffffffffffffff1673ffffffffffffffffffffffffffffffffffffffff168152602001908152602001600020546141bc90919063ffffffff16565b600e60008473ffffffffffffffffffffffffffffffffffffffff1673ffffffffffffffffffffffffffffffffffffffff1681526020019081526020016000208190555061390f6001600e60003373ffffffffffffffffffffffffffffffffffffffff1673ffffffffffffffffffffffffffffffffffffffff1681526020019081526020016000205461424490919063ffffffff16565b600e60003373ffffffffffffffffffffffffffffffffffffffff1673ffffffffffffffffffffffffffffffffffffffff1681526020019081526020016000208190555081600d600083815260200190815260200160002060006101000a81548173ffffffffffffffffffffffffffffffffffffffff021916908373ffffffffffffffffffffffffffffffffffffffff160217905550808273ffffffffffffffffffffffffffffffffffffffff168473ffffffffffffffffffffffffffffffffffffffff167fddf252ad1be2c89b69c2b068fc378daa952ba7f163c4a11628f55a4df523b3ef60405160405180910390a4505050565b613a1881600161428e90919063ffffffff16565b50565b613a2f8160046140e190919063ffffffff16565b50565b60066040518060c0016040528060055481526020018481526020018381526020013373ffffffffffffffffffffffffffffffffffffffff1681526020014263ffffffff1681526020016001151581525090806001815401808255809150509060018203906000526020600020906004020160009091929091909150600082015181600001556020820151816001019080519060200190613ad3929190614f05565b506040820151816002019080519060200190613af0929190614f05565b5060608201518160030160006101000a81548173ffffffffffffffffffffffffffffffffffffffff021916908373ffffffffffffffffffffffffffffffffffffffff16021790555060808201518160030160146101000a81548163ffffffff021916908363ffffffff16021790555060a08201518160030160186101000a81548160ff02191690831515021790555050505033600d6000600554815260200190815260200160002060006101000a81548173ffffffffffffffffffffffffffffffffffffffff021916908373ffffffffffffffffffffffffffffffffffffffff160217905550613c296001600e60003373ffffffffffffffffffffffffffffffffffffffff1673ffffffffffffffffffffffffffffffffffffffff168152602001908152602001600020546141bc90919063ffffffff16565b600e60003373ffffffffffffffffffffffffffffffffffffffff1673ffffffffffffffffffffffffffffffffffffffff168152602001908152602001600020819055507fdbac541c0b28f6e1e1769938e1acdcf3c00c8a02fe029d9cde00ba2e02c6ade460055483833360016040518086815260200180602001806020018573ffffffffffffffffffffffffffffffffffffffff1673ffffffffffffffffffffffffffffffffffffffff16815260200184151515158152602001838103835287818151815260200191508051906020019080838360005b83811015613d1b578082015181840152602081019050613d00565b50505050905090810190601f168015613d485780820380516001836020036101000a031916815260200191505b50838103825286818151815260200191508051906020019080838360005b83811015613d81578082015181840152602081019050613d66565b50505050905090810190601f168015613dae5780820380516001836020036101000a031916815260200191505b5097505050505050505060405180910390a1613dd660016005546141bc90919063ffffffff16565b6005819055505050565b613dea828261434b565b613df48282614563565b613dfd8161462a565b5050565b613e158160016140e190919063ffffffff16565b50565b600033905090565b6000613e2b826136d6565b613e80576040517f08c379a000000000000000000000000000000000000000000000000000000000815260040180806020018281038252602c81526020018061507e602c913960400191505060405180910390fd5b6000613e8b8361264a565b90508073ffffffffffffffffffffffffffffffffffffffff168473ffffffffffffffffffffffffffffffffffffffff161480613efa57508373ffffffffffffffffffffffffffffffffffffffff16613ee284611682565b73ffffffffffffffffffffffffffffffffffffffff16145b80613f0b5750613f0a8185613517565b5b91505092915050565b613f1f848484614676565b613f2b8484848461469a565b613f80576040517f08c379a00000000000000000000000000000000000000000000000000000000081526004018080602001828103825260328152602001806150026032913960400191505060405180910390fd5b50505050565b613f9a8160036140e190919063ffffffff16565b50565b600073ffffffffffffffffffffffffffffffffffffffff168173ffffffffffffffffffffffffffffffffffffffff161415614023576040517f08c379a00000000000000000000000000000000000000000000000000000000081526004018080602001828103825260268152602001806150346026913960400191505060405180910390fd5b8073ffffffffffffffffffffffffffffffffffffffff166000809054906101000a900473ffffffffffffffffffffffffffffffffffffffff1673ffffffffffffffffffffffffffffffffffffffff167f8be0079c531659141344cd1fd0a4f28419497f9722a3daafe3b4186f6b6457e060405160405180910390a3806000806101000a81548173ffffffffffffffffffffffffffffffffffffffff021916908373ffffffffffffffffffffffffffffffffffffffff16021790555050565b6140eb8282613748565b1561415e576040517f08c379a000000000000000000000000000000000000000000000000000000000815260040180806020018281038252601f8152602001807f526f6c65733a206163636f756e7420616c72656164792068617320726f6c650081525060200191505060405180910390fd5b60018260000160008373ffffffffffffffffffffffffffffffffffffffff1673ffffffffffffffffffffffffffffffffffffffff16815260200190815260200160002060006101000a81548160ff0219169083151502179055505050565b60008082840190508381101561423a576040517f08c379a000000000000000000000000000000000000000000000000000000000815260040180806020018281038252601b8152602001807f536166654d6174683a206164646974696f6e206f766572666c6f77000000000081525060200191505060405180910390fd5b8091505092915050565b600061428683836040518060400160405280601e81526020017f536166654d6174683a207375627472616374696f6e206f766572666c6f77000081525061488a565b905092915050565b6142988282613748565b6142ed576040517f08c379a00000000000000000000000000000000000000000000000000000000081526004018080602001828103825260218152602001806150d36021913960400191505060405180910390fd5b60008260000160008373ffffffffffffffffffffffffffffffffffffffff1673ffffffffffffffffffffffffffffffffffffffff16815260200190815260200160002060006101000a81548160ff0219169083151502179055505050565b600073ffffffffffffffffffffffffffffffffffffffff168273ffffffffffffffffffffffffffffffffffffffff1614156143ee576040517f08c379a00000000000000000000000000000000000000000000000000000000081526004018080602001828103825260208152602001807f4552433732313a206d696e7420746f20746865207a65726f206164647265737381525060200191505060405180910390fd5b6143f7816136d6565b1561446a576040517f08c379a000000000000000000000000000000000000000000000000000000000815260040180806020018281038252601c8152602001807f4552433732313a20746f6b656e20616c7265616479206d696e7465640000000081525060200191505060405180910390fd5b816010600083815260200190815260200160002060006101000a81548173ffffffffffffffffffffffffffffffffffffffff021916908373ffffffffffffffffffffffffffffffffffffffff160217905550614503601260008473ffffffffffffffffffffffffffffffffffffffff1673ffffffffffffffffffffffffffffffffffffffff16815260200190815260200160002061494a565b808273ffffffffffffffffffffffffffffffffffffffff16600073ffffffffffffffffffffffffffffffffffffffff167fddf252ad1be2c89b69c2b068fc378daa952ba7f163c4a11628f55a4df523b3ef60405160405180910390a45050565b601460008373ffffffffffffffffffffffffffffffffffffffff1673ffffffffffffffffffffffffffffffffffffffff168152602001908152602001600020805490506015600083815260200190815260200160002081905550601460008373ffffffffffffffffffffffffffffffffffffffff1673ffffffffffffffffffffffffffffffffffffffff1681526020019081526020016000208190806001815401808255809150509060018203906000526020600020016000909192909190915055505050565b6016805490506017600083815260200190815260200160002081905550601681908060018154018082558091505090600182039060005260206000200160009091929091909150555050565b614681838383614960565b61468b8382614bbb565b6146958282614563565b505050565b60006146bb8473ffffffffffffffffffffffffffffffffffffffff16614d59565b6146c85760019050614882565b60008473ffffffffffffffffffffffffffffffffffffffff1663150b7a026146ee613e18565b8887876040518563ffffffff1660e01b8152600401808573ffffffffffffffffffffffffffffffffffffffff1673ffffffffffffffffffffffffffffffffffffffff1681526020018473ffffffffffffffffffffffffffffffffffffffff1673ffffffffffffffffffffffffffffffffffffffff16815260200183815260200180602001828103825283818151815260200191508051906020019080838360005b838110156147aa57808201518184015260208101905061478f565b50505050905090810190601f1680156147d75780820380516001836020036101000a031916815260200191505b5095505050505050602060405180830381600087803b1580156147f957600080fd5b505af115801561480d573d6000803e3d6000fd5b505050506040513d602081101561482357600080fd5b8101908080519060200190929190505050905063150b7a0260e01b7bffffffffffffffffffffffffffffffffffffffffffffffffffffffff1916817bffffffffffffffffffffffffffffffffffffffffffffffffffffffff1916149150505b949350505050565b6000838311158290614937576040517f08c379a00000000000000000000000000000000000000000000000000000000081526004018080602001828103825283818151815260200191508051906020019080838360005b838110156148fc5780820151818401526020810190506148e1565b50505050905090810190601f1680156149295780820380516001836020036101000a031916815260200191505b509250505060405180910390fd5b5060008385039050809150509392505050565b6001816000016000828254019250508190555050565b8273ffffffffffffffffffffffffffffffffffffffff166149808261264a565b73ffffffffffffffffffffffffffffffffffffffff16146149ec576040517f08c379a00000000000000000000000000000000000000000000000000000000081526004018080602001828103825260298152602001806151426029913960400191505060405180910390fd5b600073ffffffffffffffffffffffffffffffffffffffff168273ffffffffffffffffffffffffffffffffffffffff161415614a72576040517f08c379a000000000000000000000000000000000000000000000000000000000815260040180806020018281038252602481526020018061505a6024913960400191505060405180910390fd5b614a7b81614da4565b614ac2601260008573ffffffffffffffffffffffffffffffffffffffff1673ffffffffffffffffffffffffffffffffffffffff168152602001908152602001600020614e62565b614b09601260008473ffffffffffffffffffffffffffffffffffffffff1673ffffffffffffffffffffffffffffffffffffffff16815260200190815260200160002061494a565b816010600083815260200190815260200160002060006101000a81548173ffffffffffffffffffffffffffffffffffffffff021916908373ffffffffffffffffffffffffffffffffffffffff160217905550808273ffffffffffffffffffffffffffffffffffffffff168473ffffffffffffffffffffffffffffffffffffffff167fddf252ad1be2c89b69c2b068fc378daa952ba7f163c4a11628f55a4df523b3ef60405160405180910390a4505050565b6000614c136001601460008673ffffffffffffffffffffffffffffffffffffffff1673ffffffffffffffffffffffffffffffffffffffff1681526020019081526020016000208054905061424490919063ffffffff16565b9050600060156000848152602001908152602001600020549050818114614d00576000601460008673ffffffffffffffffffffffffffffffffffffffff1673ffffffffffffffffffffffffffffffffffffffff1681526020019081526020016000208381548110614c8057fe5b9060005260206000200154905080601460008773ffffffffffffffffffffffffffffffffffffffff1673ffffffffffffffffffffffffffffffffffffffff1681526020019081526020016000208381548110614cd857fe5b9060005260206000200181905550816015600083815260200190815260200160002081905550505b601460008573ffffffffffffffffffffffffffffffffffffffff1673ffffffffffffffffffffffffffffffffffffffff168152602001908152602001600020805480919060019003614d529190614f85565b5050505050565b60008060007fc5d2460186f7233c927e7db2dcc703c0e500b653ca82273b7bfad8045d85a47060001b9050833f91506000801b8214158015614d9b5750808214155b92505050919050565b600073ffffffffffffffffffffffffffffffffffffffff166011600083815260200190815260200160002060009054906101000a900473ffffffffffffffffffffffffffffffffffffffff1673ffffffffffffffffffffffffffffffffffffffff1614614e5f5760006011600083815260200190815260200160002060006101000a81548173ffffffffffffffffffffffffffffffffffffffff021916908373ffffffffffffffffffffffffffffffffffffffff1602179055505b50565b614e7a6001826000015461424490919063ffffffff16565b816000018190555050565b828054600181600116156101000203166002900490600052602060002090601f016020900481019282601f10614ec657803560ff1916838001178555614ef4565b82800160010185558215614ef4579182015b82811115614ef3578235825591602001919060010190614ed8565b5b509050614f019190614fb1565b5090565b828054600181600116156101000203166002900490600052602060002090601f016020900481019282601f10614f4657805160ff1916838001178555614f74565b82800160010185558215614f74579182015b82811115614f73578251825591602001919060010190614f58565b5b509050614f819190614fb1565b5090565b815481835581811115614fac57818360005260206000209182019101614fab9190614fb1565b5b505050565b614fd391905b80821115614fcf576000816000905550600101614fb7565b5090565b9056fe455243373231456e756d657261626c653a206f776e657220696e646578206f7574206f6620626f756e64734552433732313a207472616e7366657220746f206e6f6e20455243373231526563656976657220696d706c656d656e7465724f776e61626c653a206e6577206f776e657220697320746865207a65726f20616464726573734552433732313a207472616e7366657220746f20746865207a65726f20616464726573734552433732313a206f70657261746f7220717565727920666f72206e6f6e6578697374656e7420746f6b656e4552433732313a206f776e657220717565727920666f72206e6f6e6578697374656e7420746f6b656e526f6c65733a206163636f756e7420646f6573206e6f74206861766520726f6c654552433732313a20617070726f76656420717565727920666f72206e6f6e6578697374656e7420746f6b656e526f6c65733a206163636f756e7420697320746865207a65726f20616464726573734552433732313a207472616e73666572206f6620746f6b656e2074686174206973206e6f74206f776e4552433732313a207472616e736665722063616c6c6572206973206e6f74206f776e6572206e6f7220617070726f766564455243373231456e756d657261626c653a20676c6f62616c20696e646578206f7574206f6620626f756e6473a265627a7a72315820cd1b369146860b52292ff7cd08edbf6c0bb122d5a03c576abd9fc03fdfa50f8164736f6c634300050c0032",
  "source": "pragma solidity ^0.5.0;\n\nimport \"@openzeppelin/contracts/token/ERC721/ERC721Full.sol\";\nimport \"./Metadata.sol\";\nimport \"./QualificationHelper.sol\";\n\ncontract QualificationOwnership is QualificationHelper, ERC721Full {\n\n    using SafeMath for uint256;\n\n    address public metadata;\n    mapping (uint => address) qualificationApprovals;\n\n    constructor(string memory _qualName, string memory _qualCode, address _metadata) public\n        ERC721Full(_qualName, _qualCode) {\n            metadata = _metadata;\n        }\n\n    function mint(address recipient, uint qualId) public {\n        _mint(recipient, qualId);\n    }\n\n    function updateMetadata(address _metadata) public onlyOwner {\n        metadata = _metadata;\n    }\n\n    function tokenURI(uint _tokenId) external view returns (string memory _infoUrl) {\n        return Metadata(metadata).tokenURI(_tokenId);\n    }\n\n    function balanceOf(address _owner) public view returns (uint256) {\n        return trgEstablishmentQualificationCount[_owner];\n    }\n\n    //function ownerOf(uint256 _tokenId) public view returns (address) {\n    //    return qualificationToTrgEstablishment[_tokenId];\n    //}\n\n    function _transfer(address _from, address _to, uint256 _tokenId) private {\n        trgEstablishmentQualificationCount[_to] = trgEstablishmentQualificationCount[_to].add(1);\n        trgEstablishmentQualificationCount[msg.sender] = trgEstablishmentQualificationCount[msg.sender].sub(1);\n        qualificationToTrgEstablishment[_tokenId] = _to;\n        emit Transfer(_from, _to, _tokenId);\n    }\n\n    function transferFrom(address _from, address _to, uint256 _tokenId) public {\n        require (qualificationToTrgEstablishment[_tokenId] == msg.sender || qualificationApprovals[_tokenId] == msg.sender, \"not authorized\");\n        _transfer(_from, _to, _tokenId);\n        }\n\n    function approve(address _approved, uint256 _tokenId) public onlyOwnerOf(_tokenId) {\n        qualificationApprovals[_tokenId] = _approved;\n        emit Approval(msg.sender, _approved, _tokenId);\n        }\n}",
  "sourcePath": "/home/vitalpointai/projects/qualification-coin/src/contracts/QualificationOwnership.sol",
  "compiler": {
    "name": "solc",
    "version": "0.5.12+commit.7709ece9.Emscripten.clang"
  },
  "schemaVersion": "3.0.19",
  "updatedAt": "2019-12-30T23:51:36.034Z",
  "networkType": "ethereum",
  "devdoc": {
    "methods": {
      "getApproved(uint256)": {
        "details": "Gets the approved address for a token ID, or zero if no address set Reverts if the token ID does not exist.",
        "params": {
          "tokenId": "uint256 ID of the token to query the approval of"
        },
        "return": "address currently approved for the given token ID"
      },
      "isApprovedForAll(address,address)": {
        "details": "Tells whether an operator is approved by a given owner.",
        "params": {
          "operator": "operator address which you want to query the approval of",
          "owner": "owner address which you want to query the approval of"
        },
        "return": "bool whether the given operator is approved by the given owner"
      },
      "isOwner()": {
        "details": "Returns true if the caller is the current owner."
      },
      "name()": {
        "details": "Gets the token name.",
        "return": "string representing the token name"
      },
      "owner()": {
        "details": "Returns the address of the current owner."
      },
      "ownerOf(uint256)": {
        "details": "Gets the owner of the specified token ID.",
        "params": {
          "tokenId": "uint256 ID of the token to query the owner of"
        },
        "return": "address currently marked as the owner of the given token ID"
      },
      "renounceOwnership()": {
        "details": "Leaves the contract without owner. It will not be possible to call `onlyOwner` functions anymore. Can only be called by the current owner.     * NOTE: Renouncing ownership will leave the contract without an owner, thereby removing any functionality that is only available to the owner."
      },
      "safeTransferFrom(address,address,uint256)": {
        "details": "Safely transfers the ownership of a given token ID to another address If the target address is a contract, it must implement {IERC721Receiver-onERC721Received}, which is called upon a safe transfer, and return the magic value `bytes4(keccak256(\"onERC721Received(address,address,uint256,bytes)\"))`; otherwise, the transfer is reverted. Requires the msg.sender to be the owner, approved, or operator",
        "params": {
          "from": "current owner of the token",
          "to": "address to receive the ownership of the given token ID",
          "tokenId": "uint256 ID of the token to be transferred"
        }
      },
      "safeTransferFrom(address,address,uint256,bytes)": {
        "details": "Safely transfers the ownership of a given token ID to another address If the target address is a contract, it must implement {IERC721Receiver-onERC721Received}, which is called upon a safe transfer, and return the magic value `bytes4(keccak256(\"onERC721Received(address,address,uint256,bytes)\"))`; otherwise, the transfer is reverted. Requires the _msgSender() to be the owner, approved, or operator",
        "params": {
          "_data": "bytes data to send along with a safe transfer check",
          "from": "current owner of the token",
          "to": "address to receive the ownership of the given token ID",
          "tokenId": "uint256 ID of the token to be transferred"
        }
      },
      "setApprovalForAll(address,bool)": {
        "details": "Sets or unsets the approval of a given operator An operator is allowed to transfer all tokens of the sender on their behalf.",
        "params": {
          "approved": "representing the status of the approval to be set",
          "to": "operator address to set the approval"
        }
      },
      "supportsInterface(bytes4)": {
        "details": "See {IERC165-supportsInterface}.     * Time complexity O(1), guaranteed to always use less than 30 000 gas."
      },
      "symbol()": {
        "details": "Gets the token symbol.",
        "return": "string representing the token symbol"
      },
      "tokenByIndex(uint256)": {
        "details": "Gets the token ID at a given index of all the tokens in this contract Reverts if the index is greater or equal to the total number of tokens.",
        "params": {
          "index": "uint256 representing the index to be accessed of the tokens list"
        },
        "return": "uint256 token ID at the given index of the tokens list"
      },
      "tokenOfOwnerByIndex(address,uint256)": {
        "details": "Gets the token ID at a given index of the tokens list of the requested owner.",
        "params": {
          "index": "uint256 representing the index to be accessed of the requested tokens list",
          "owner": "address owning the tokens list to be accessed"
        },
        "return": "uint256 token ID at the given index of the tokens list owned by the requested address"
      },
      "totalSupply()": {
        "details": "Gets the total amount of tokens stored by the contract.",
        "return": "uint256 representing the total amount of tokens"
      },
      "transferOwnership(address)": {
        "details": "Transfers ownership of the contract to a new account (`newOwner`). Can only be called by the current owner."
      }
    }
  },
  "userdoc": {
    "methods": {}
  }
}